{
  "_format": "hh-sol-artifact-1",
  "contractName": "Market",
  "sourceName": "contracts/Market.sol",
  "abi": [
    {
      "inputs": [
        {
          "internalType": "contract IVault",
          "name": "vault",
          "type": "address"
        },
        {
          "internalType": "uint8",
          "name": "fee",
          "type": "uint8"
        },
        {
          "internalType": "address",
          "name": "oracle",
          "type": "address"
        }
      ],
      "stateMutability": "nonpayable",
      "type": "constructor"
    },
    {
      "anonymous": false,
      "inputs": [
        {
          "indexed": true,
          "internalType": "address",
          "name": "previousOwner",
          "type": "address"
        },
        {
          "indexed": true,
          "internalType": "address",
          "name": "newOwner",
          "type": "address"
        }
      ],
      "name": "OwnershipTransferred",
      "type": "event"
    },
    {
      "anonymous": false,
      "inputs": [
        {
          "indexed": false,
          "internalType": "uint256",
          "name": "index",
          "type": "uint256"
        },
        {
          "indexed": false,
          "internalType": "bytes32",
          "name": "propositionId",
          "type": "bytes32"
        },
        {
          "indexed": false,
          "internalType": "bytes32",
          "name": "marketId",
          "type": "bytes32"
        },
        {
          "indexed": false,
          "internalType": "uint256",
          "name": "amount",
          "type": "uint256"
        },
        {
          "indexed": false,
          "internalType": "uint256",
          "name": "payout",
          "type": "uint256"
        },
        {
          "indexed": true,
          "internalType": "address",
          "name": "owner",
          "type": "address"
        }
      ],
      "name": "Placed",
      "type": "event"
    },
    {
      "anonymous": false,
      "inputs": [
        {
          "indexed": false,
          "internalType": "uint256",
          "name": "id",
          "type": "uint256"
        },
        {
          "indexed": false,
          "internalType": "uint256",
          "name": "payout",
          "type": "uint256"
        },
        {
          "indexed": false,
          "internalType": "bool",
          "name": "result",
          "type": "bool"
        },
        {
          "indexed": true,
          "internalType": "address",
          "name": "owner",
          "type": "address"
        }
      ],
      "name": "Settled",
      "type": "event"
    },
    {
      "inputs": [
        {
          "internalType": "bytes32",
          "name": "nonce",
          "type": "bytes32"
        },
        {
          "internalType": "bytes32",
          "name": "propositionId",
          "type": "bytes32"
        },
        {
          "internalType": "bytes32",
          "name": "marketId",
          "type": "bytes32"
        },
        {
          "internalType": "uint256",
          "name": "wager",
          "type": "uint256"
        },
        {
          "internalType": "uint256",
          "name": "odds",
          "type": "uint256"
        },
        {
          "internalType": "uint256",
          "name": "close",
          "type": "uint256"
        },
        {
          "internalType": "uint256",
          "name": "end",
          "type": "uint256"
        },
        {
          "components": [
            {
              "internalType": "uint8",
              "name": "v",
              "type": "uint8"
            },
            {
              "internalType": "bytes32",
              "name": "r",
              "type": "bytes32"
            },
            {
              "internalType": "bytes32",
              "name": "s",
              "type": "bytes32"
            }
          ],
          "internalType": "struct SignatureLib.Signature",
          "name": "signature",
          "type": "tuple"
        }
      ],
      "name": "back",
      "outputs": [
        {
          "internalType": "uint256",
          "name": "",
          "type": "uint256"
        }
      ],
      "stateMutability": "nonpayable",
      "type": "function"
    },
    {
      "inputs": [
        {
          "internalType": "uint256",
          "name": "index",
          "type": "uint256"
        }
      ],
      "name": "getBetByIndex",
      "outputs": [
        {
          "internalType": "uint256",
          "name": "",
          "type": "uint256"
        },
        {
          "internalType": "uint256",
          "name": "",
          "type": "uint256"
        },
        {
          "internalType": "uint256",
          "name": "",
          "type": "uint256"
        },
        {
          "internalType": "bool",
          "name": "",
          "type": "bool"
        },
        {
          "internalType": "address",
          "name": "",
          "type": "address"
        }
      ],
      "stateMutability": "view",
      "type": "function"
    },
    {
      "inputs": [],
      "name": "getCount",
      "outputs": [
        {
          "internalType": "uint256",
          "name": "",
          "type": "uint256"
        }
      ],
      "stateMutability": "view",
      "type": "function"
    },
    {
      "inputs": [
        {
          "internalType": "uint64",
          "name": "id",
          "type": "uint64"
        }
      ],
      "name": "getExpiry",
      "outputs": [
        {
          "internalType": "uint256",
          "name": "",
          "type": "uint256"
        }
      ],
      "stateMutability": "view",
      "type": "function"
    },
    {
      "inputs": [],
      "name": "getFee",
      "outputs": [
        {
          "internalType": "uint8",
          "name": "",
          "type": "uint8"
        }
      ],
      "stateMutability": "view",
      "type": "function"
    },
    {
      "inputs": [],
      "name": "getInPlayCount",
      "outputs": [
        {
          "internalType": "uint256",
          "name": "",
          "type": "uint256"
        }
      ],
      "stateMutability": "view",
      "type": "function"
    },
    {
      "inputs": [
        {
          "internalType": "bytes32",
          "name": "marketId",
          "type": "bytes32"
        }
      ],
      "name": "getMarketTotal",
      "outputs": [
        {
          "internalType": "uint256",
          "name": "",
          "type": "uint256"
        }
      ],
      "stateMutability": "view",
      "type": "function"
    },
    {
      "inputs": [
        {
          "internalType": "int256",
          "name": "wager",
          "type": "int256"
        },
        {
          "internalType": "int256",
          "name": "odds",
          "type": "int256"
        },
        {
          "internalType": "bytes32",
          "name": "propositionId",
          "type": "bytes32"
        }
      ],
      "name": "getOdds",
      "outputs": [
        {
          "internalType": "int256",
          "name": "",
          "type": "int256"
        }
      ],
      "stateMutability": "view",
      "type": "function"
    },
    {
      "inputs": [],
      "name": "getOracleAddress",
      "outputs": [
        {
          "internalType": "address",
          "name": "",
          "type": "address"
        }
      ],
      "stateMutability": "view",
      "type": "function"
    },
    {
      "inputs": [
        {
          "internalType": "bytes32",
          "name": "propositionId",
          "type": "bytes32"
        },
        {
          "internalType": "uint256",
          "name": "wager",
          "type": "uint256"
        },
        {
          "internalType": "uint256",
          "name": "odds",
          "type": "uint256"
        }
      ],
      "name": "getPotentialPayout",
      "outputs": [
        {
          "internalType": "uint256",
          "name": "",
          "type": "uint256"
        }
      ],
      "stateMutability": "view",
      "type": "function"
    },
    {
      "inputs": [],
      "name": "getTotalExposure",
      "outputs": [
        {
          "internalType": "uint256",
          "name": "",
          "type": "uint256"
        }
      ],
      "stateMutability": "view",
      "type": "function"
    },
    {
      "inputs": [],
      "name": "getTotalInPlay",
      "outputs": [
        {
          "internalType": "uint256",
          "name": "",
          "type": "uint256"
        }
      ],
      "stateMutability": "view",
      "type": "function"
    },
    {
      "inputs": [],
      "name": "getVaultAddress",
      "outputs": [
        {
          "internalType": "address",
          "name": "",
          "type": "address"
        }
      ],
      "stateMutability": "view",
      "type": "function"
    },
    {
      "inputs": [],
      "name": "min",
      "outputs": [
        {
          "internalType": "uint256",
          "name": "",
          "type": "uint256"
        }
      ],
      "stateMutability": "view",
      "type": "function"
    },
    {
      "inputs": [],
      "name": "owner",
      "outputs": [
        {
          "internalType": "address",
          "name": "",
          "type": "address"
        }
      ],
      "stateMutability": "view",
      "type": "function"
    },
    {
      "inputs": [],
      "name": "renounceOwnership",
      "outputs": [],
      "stateMutability": "nonpayable",
      "type": "function"
    },
    {
      "inputs": [
        {
          "internalType": "uint256",
          "name": "index",
          "type": "uint256"
        }
      ],
      "name": "settle",
      "outputs": [],
      "stateMutability": "nonpayable",
      "type": "function"
    },
    {
      "inputs": [
        {
          "internalType": "uint256",
          "name": "from",
          "type": "uint256"
        },
        {
          "internalType": "uint256",
          "name": "to",
          "type": "uint256"
        },
        {
          "internalType": "bytes32",
          "name": "marketId",
          "type": "bytes32"
        }
      ],
      "name": "settleMarket",
      "outputs": [],
      "stateMutability": "nonpayable",
      "type": "function"
    },
    {
      "inputs": [],
      "name": "timeout",
      "outputs": [
        {
          "internalType": "uint256",
          "name": "",
          "type": "uint256"
        }
      ],
      "stateMutability": "view",
      "type": "function"
    },
    {
      "inputs": [
        {
          "internalType": "address",
          "name": "newOwner",
          "type": "address"
        }
      ],
      "name": "transferOwnership",
      "outputs": [],
      "stateMutability": "nonpayable",
      "type": "function"
    }
  ],
  "bytecode": "0x6101406040523480156200001257600080fd5b5060405162002bd038038062002bd083398181016040528101906200003891906200034e565b620000586200004c6200019560201b60201c565b6200019d60201b60201c565b600073ffffffffffffffffffffffffffffffffffffffff168373ffffffffffffffffffffffffffffffffffffffff161415620000cb576040517f08c379a0000000000000000000000000000000000000000000000000000000008152600401620000c2906200040b565b60405180910390fd5b3073ffffffffffffffffffffffffffffffffffffffff1660c08173ffffffffffffffffffffffffffffffffffffffff16815250508273ffffffffffffffffffffffffffffffffffffffff1660a08173ffffffffffffffffffffffffffffffffffffffff16815250508160ff1660808160ff16815250508073ffffffffffffffffffffffffffffffffffffffff1660e08173ffffffffffffffffffffffffffffffffffffffff168152505062278d006101008181525050610e1061012081815250505050506200042d565b600033905090565b60008060009054906101000a900473ffffffffffffffffffffffffffffffffffffffff169050816000806101000a81548173ffffffffffffffffffffffffffffffffffffffff021916908373ffffffffffffffffffffffffffffffffffffffff1602179055508173ffffffffffffffffffffffffffffffffffffffff168173ffffffffffffffffffffffffffffffffffffffff167f8be0079c531659141344cd1fd0a4f28419497f9722a3daafe3b4186f6b6457e060405160405180910390a35050565b600080fd5b600073ffffffffffffffffffffffffffffffffffffffff82169050919050565b6000620002938262000266565b9050919050565b6000620002a78262000286565b9050919050565b620002b9816200029a565b8114620002c557600080fd5b50565b600081519050620002d981620002ae565b92915050565b600060ff82169050919050565b620002f781620002df565b81146200030357600080fd5b50565b6000815190506200031781620002ec565b92915050565b620003288162000286565b81146200033457600080fd5b50565b60008151905062000348816200031d565b92915050565b6000806000606084860312156200036a576200036962000261565b5b60006200037a86828701620002c8565b93505060206200038d8682870162000306565b9250506040620003a08682870162000337565b9150509250925092565b600082825260208201905092915050565b7f496e76616c696420616464726573730000000000000000000000000000000000600082015250565b6000620003f3600f83620003aa565b91506200040082620003bb565b602082019050919050565b600060208201905081810360008301526200042681620003e4565b9050919050565b60805160a05160c05160e051610100516101205161270d620004c36000396000610ef90152600081816105f501526116890152600081816104a701528181610781015281816108450152610906015260008181610aa30152610b640152600081816105cf015281816109e601528181610b43015281816111c00152818161137101526116ee0152600061088d015261270d6000f3fe608060405234801561001057600080fd5b506004361061012c5760003560e01c8063a87d942c116100ad578063d21f48e111610071578063d21f48e114610315578063e4650fac14610345578063e8ee7b9b14610375578063f2fde38b146103a5578063f8897945146103c15761012c565b8063a87d942c1461026d578063b18b78dd1461028b578063bf611788146102a9578063c96121a8146102d9578063ced72f87146102f75761012c565b806370dea79a116100f457806370dea79a146101ed578063715018a61461020b5780638ac6d217146102155780638da5cb5b146102335780638df82800146102515761012c565b8063064c770214610131578063129c45fc14610161578063584394791461019557806365b96ea2146101b357806365cacaa4146101cf575b600080fd5b61014b60048036038101906101469190611860565b6103df565b60405161015891906118a6565b60405180910390f35b61017b600480360381019061017691906118ed565b6103fc565b60405161018c959493929190611976565b60405180910390f35b61019d610420565b6040516101aa91906118a6565b60405180910390f35b6101cd60048036038101906101c891906119c9565b61042a565b005b6101d76105cb565b6040516101e49190611a1c565b60405180910390f35b6101f56105f3565b60405161020291906118a6565b60405180910390f35b610213610617565b005b61021d61062b565b60405161022a91906118a6565b60405180910390f35b61023b610635565b6040516102489190611a1c565b60405180910390f35b61026b600480360381019061026691906118ed565b61065e565b005b610275610834565b60405161028291906118a6565b60405180910390f35b610293610841565b6040516102a09190611a1c565b60405180910390f35b6102c360048036038101906102be9190611a37565b610869565b6040516102d091906118a6565b60405180910390f35b6102e161087f565b6040516102ee91906118a6565b60405180910390f35b6102ff610889565b60405161030c9190611aa6565b60405180910390f35b61032f600480360381019061032a9190611ae5565b6108b1565b60405161033c91906118a6565b60405180910390f35b61035f600480360381019061035a9190611bdb565b610e2e565b60405161036c91906118a6565b60405180910390f35b61038f600480360381019061038a9190611c3e565b610e40565b60405161039c9190611ca0565b60405180910390f35b6103bf60048036038101906103ba9190611ce7565b610e73565b005b6103c9610ef7565b6040516103d691906118a6565b60405180910390f35b600060046000838152602001908152602001600020549050919050565b600080600080600061040d86610f1b565b9450945094509450945091939590929450565b6000600754905090565b60008390505b828110156105c557600060036000848152602001908152602001600020828154811061045f5761045e611d14565b5b90600052602060002001549050600281815481106104805761047f611d14565b5b906000526020600020906006020160050160009054906101000a900460ff166105b15760007f000000000000000000000000000000000000000000000000000000000000000073ffffffffffffffffffffffffffffffffffffffff1663add4c784600284815481106104f5576104f4611d14565b5b9060005260206000209060060201600101546040518263ffffffff1660e01b81526004016105239190611d52565b602060405180830381865afa158015610540573d6000803e3d6000fd5b505050506040513d601f19601f820116820180604052508101906105649190611d82565b9050806002838154811061057b5761057a611d14565b5b90600052602060002090600602016000015414156105a35761059e826001611023565b6105af565b6105ae826000611023565b5b505b5080806105bd90611dde565b915050610430565b50505050565b60007f0000000000000000000000000000000000000000000000000000000000000000905090565b7f000000000000000000000000000000000000000000000000000000000000000081565b61061f6114d9565b6106296000611557565b565b6000600854905090565b60008060009054906101000a900473ffffffffffffffffffffffffffffffffffffffff16905090565b60006002828154811061067457610673611d14565b5b90600052602060002090600602016040518060e001604052908160008201548152602001600182015481526020016002820154815260200160038201548152602001600482015481526020016005820160009054906101000a900460ff161515151581526020016005820160019054906101000a900473ffffffffffffffffffffffffffffffffffffffff1673ffffffffffffffffffffffffffffffffffffffff1673ffffffffffffffffffffffffffffffffffffffff16815250509050600015158160a0015115151461077d576040517f08c379a000000000000000000000000000000000000000000000000000000000815260040161077490611e84565b60405180910390fd5b60007f000000000000000000000000000000000000000000000000000000000000000073ffffffffffffffffffffffffffffffffffffffff16638a9df35c836020015184600001516040518363ffffffff1660e01b81526004016107e2929190611ea4565b602060405180830381865afa1580156107ff573d6000803e3d6000fd5b505050506040513d601f19601f820116820180604052508101906108239190611ef9565b905061082f8382611023565b505050565b6000600280549050905090565b60007f0000000000000000000000000000000000000000000000000000000000000000905090565b600061087684848461161b565b90509392505050565b6000600154905090565b60007f0000000000000000000000000000000000000000000000000000000000000000905090565b600042831180156108c157508342115b610900576040517f08c379a00000000000000000000000000000000000000000000000000000000081526004016108f790611f72565b60405180910390fd5b600015157f000000000000000000000000000000000000000000000000000000000000000073ffffffffffffffffffffffffffffffffffffffff16638a9df35c898b6040518363ffffffff1660e01b815260040161095f929190611ea4565b602060405180830381865afa15801561097c573d6000803e3d6000fd5b505050506040513d601f19601f820116820180604052508101906109a09190611ef9565b1515146109e2576040517f08c379a00000000000000000000000000000000000000000000000000000000081526004016109d990612004565b60405180910390fd5b60007f000000000000000000000000000000000000000000000000000000000000000073ffffffffffffffffffffffffffffffffffffffff166338d52e0f6040518163ffffffff1660e01b8152600401602060405180830381865afa158015610a4f573d6000803e3d6000fd5b505050506040513d601f19601f82011682018060405250810190610a739190612062565b90506000610a828a898961161b565b90508173ffffffffffffffffffffffffffffffffffffffff166323b872dd337f00000000000000000000000000000000000000000000000000000000000000008b6040518463ffffffff1660e01b8152600401610ae19392919061208f565b6020604051808303816000875af1158015610b00573d6000803e3d6000fd5b505050506040513d601f19601f82011682018060405250810190610b249190611ef9565b508173ffffffffffffffffffffffffffffffffffffffff166323b872dd7f00000000000000000000000000000000000000000000000000000000000000007f00000000000000000000000000000000000000000000000000000000000000008b85610b8f91906120c6565b6040518463ffffffff1660e01b8152600401610bad9392919061208f565b6020604051808303816000875af1158015610bcc573d6000803e3d6000fd5b505050506040513d601f19601f82011682018060405250810190610bf09190611ef9565b5087600460008b81526020019081526020016000206000828254610c1491906120fa565b9250508190555060026040518060e001604052808c81526020018b81526020018a81526020018381526020018781526020016000151581526020013373ffffffffffffffffffffffffffffffffffffffff168152509080600181540180825580915050600190039060005260206000209060060201600090919091909150600082015181600001556020820151816001015560408201518160020155606082015181600301556080820151816004015560a08201518160050160006101000a81548160ff02191690831515021790555060c08201518160050160016101000a81548173ffffffffffffffffffffffffffffffffffffffff021916908373ffffffffffffffffffffffffffffffffffffffff160217905550505060006002805490509050600360008b81526020019081526020016000208190806001815401808255809150506001900390600052602060002001600090919091909150558160076000828254610d8391906120fa565b925050819055508882610d9691906120c6565b60086000828254610da791906120fa565b9250508190555060016000815480929190610dc190611dde565b91905055503373ffffffffffffffffffffffffffffffffffffffff167fd759bd709dd545e334bbbe1ec5f65be8969a61bba4499466675d5cfe7a36b5fe828d8d8d87604051610e14959493929190612150565b60405180910390a280935050505098975050505050505050565b6000610e3982611685565b9050919050565b600080841480610e505750600083145b15610e5e5760009050610e6c565b610e698484846116e9565b90505b9392505050565b610e7b6114d9565b600073ffffffffffffffffffffffffffffffffffffffff168173ffffffffffffffffffffffffffffffffffffffff161415610eeb576040517f08c379a0000000000000000000000000000000000000000000000000000000008152600401610ee290612215565b60405180910390fd5b610ef481611557565b50565b7f000000000000000000000000000000000000000000000000000000000000000081565b60008060008060008060028781548110610f3857610f37611d14565b5b90600052602060002090600602016040518060e001604052908160008201548152602001600182015481526020016002820154815260200160038201548152602001600482015481526020016005820160009054906101000a900460ff161515151581526020016005820160019054906101000a900473ffffffffffffffffffffffffffffffffffffffff1673ffffffffffffffffffffffffffffffffffffffff1673ffffffffffffffffffffffffffffffffffffffff168152505090508060400151816060015182608001518360a001518460c00151955095509550955095505091939590929450565b6002828154811061103757611036611d14565b5b9060005260206000209060060201600401544261105491906120fa565b6002838154811061106857611067611d14565b5b906000526020600020906006020160040154106110ba576040517f08c379a00000000000000000000000000000000000000000000000000000000081526004016110b190612281565b60405180910390fd5b6001600283815481106110d0576110cf611d14565b5b906000526020600020906006020160050160006101000a81548160ff0219169083151502179055506002828154811061110c5761110b611d14565b5b9060005260206000209060060201600301546007600082825461112f91906120c6565b925050819055506002828154811061114a57611149611d14565b5b906000526020600020906006020160020154600283815481106111705761116f611d14565b5b90600052602060002090600602016003015461118c91906120c6565b6008600082825461119d91906120c6565b92505081905550600160008154809291906111b7906122a1565b919050555060007f000000000000000000000000000000000000000000000000000000000000000073ffffffffffffffffffffffffffffffffffffffff166338d52e0f6040518163ffffffff1660e01b8152600401602060405180830381865afa158015611229573d6000803e3d6000fd5b505050506040513d601f19601f8201168201806040525081019061124d9190612062565b9050600115158215151415611346578073ffffffffffffffffffffffffffffffffffffffff1663a9059cbb6002858154811061128c5761128b611d14565b5b906000526020600020906006020160050160019054906101000a900473ffffffffffffffffffffffffffffffffffffffff16600286815481106112d2576112d1611d14565b5b9060005260206000209060060201600301546040518363ffffffff1660e01b81526004016113019291906122cb565b6020604051808303816000875af1158015611320573d6000803e3d6000fd5b505050506040513d601f19601f820116820180604052508101906113449190611ef9565b505b600015158215151415611418578073ffffffffffffffffffffffffffffffffffffffff1663a9059cbb7f0000000000000000000000000000000000000000000000000000000000000000600286815481106113a4576113a3611d14565b5b9060005260206000209060060201600301546040518363ffffffff1660e01b81526004016113d39291906122cb565b6020604051808303816000875af11580156113f2573d6000803e3d6000fd5b505050506040513d601f19601f820116820180604052508101906114169190611ef9565b505b6002838154811061142c5761142b611d14565b5b906000526020600020906006020160050160019054906101000a900473ffffffffffffffffffffffffffffffffffffffff1673ffffffffffffffffffffffffffffffffffffffff167f08a2a3d90b4a86017a5adf7503073c6b2b44051c48e9844a336190c9793c4af984600286815481106114aa576114a9611d14565b5b906000526020600020906006020160030154856040516114cc939291906122f4565b60405180910390a2505050565b6114e161181d565b73ffffffffffffffffffffffffffffffffffffffff166114ff610635565b73ffffffffffffffffffffffffffffffffffffffff1614611555576040517f08c379a000000000000000000000000000000000000000000000000000000000815260040161154c90612377565b60405180910390fd5b565b60008060009054906101000a900473ffffffffffffffffffffffffffffffffffffffff169050816000806101000a81548173ffffffffffffffffffffffffffffffffffffffff021916908373ffffffffffffffffffffffffffffffffffffffff1602179055508173ffffffffffffffffffffffffffffffffffffffff168173ffffffffffffffffffffffffffffffffffffffff167f8be0079c531659141344cd1fd0a4f28419497f9722a3daafe3b4186f6b6457e060405160405180910390a35050565b600080821161162d5761162c612397565b5b6000831161163e5761163d612397565b5b600061164b8484876116e9565b9050600081141561166057600091505061167e565b620f4240848261167091906123c6565b61167a919061244f565b9150505b9392505050565b60007f000000000000000000000000000000000000000000000000000000000000000060028367ffffffffffffffff16815481106116c6576116c5611d14565b5b9060005260206000209060060201600401546116e291906120fa565b9050919050565b6000807f000000000000000000000000000000000000000000000000000000000000000073ffffffffffffffffffffffffffffffffffffffff166301e1d1146040518163ffffffff1660e01b8152600401602060405180830381865afa158015611757573d6000803e3d6000fd5b505050506040513d601f19601f8201168201806040525081019061177b9190612495565b90506000811415611790576000915050611816565b80600660008581526020019081526020016000205411156117b5576000915050611816565b6006600084815260200190815260200160002054816117d491906124c2565b90506103e8816103e8876117e89190612556565b6117f2919061266d565b856117fd9190612556565b611807919061266d565b8461181291906124c2565b9150505b9392505050565b600033905090565b600080fd5b6000819050919050565b61183d8161182a565b811461184857600080fd5b50565b60008135905061185a81611834565b92915050565b60006020828403121561187657611875611825565b5b60006118848482850161184b565b91505092915050565b6000819050919050565b6118a08161188d565b82525050565b60006020820190506118bb6000830184611897565b92915050565b6118ca8161188d565b81146118d557600080fd5b50565b6000813590506118e7816118c1565b92915050565b60006020828403121561190357611902611825565b5b6000611911848285016118d8565b91505092915050565b60008115159050919050565b61192f8161191a565b82525050565b600073ffffffffffffffffffffffffffffffffffffffff82169050919050565b600061196082611935565b9050919050565b61197081611955565b82525050565b600060a08201905061198b6000830188611897565b6119986020830187611897565b6119a56040830186611897565b6119b26060830185611926565b6119bf6080830184611967565b9695505050505050565b6000806000606084860312156119e2576119e1611825565b5b60006119f0868287016118d8565b9350506020611a01868287016118d8565b9250506040611a128682870161184b565b9150509250925092565b6000602082019050611a316000830184611967565b92915050565b600080600060608486031215611a5057611a4f611825565b5b6000611a5e8682870161184b565b9350506020611a6f868287016118d8565b9250506040611a80868287016118d8565b9150509250925092565b600060ff82169050919050565b611aa081611a8a565b82525050565b6000602082019050611abb6000830184611a97565b92915050565b600080fd5b600060608284031215611adc57611adb611ac1565b5b81905092915050565b600080600080600080600080610140898b031215611b0657611b05611825565b5b6000611b148b828c0161184b565b9850506020611b258b828c0161184b565b9750506040611b368b828c0161184b565b9650506060611b478b828c016118d8565b9550506080611b588b828c016118d8565b94505060a0611b698b828c016118d8565b93505060c0611b7a8b828c016118d8565b92505060e0611b8b8b828c01611ac6565b9150509295985092959890939650565b600067ffffffffffffffff82169050919050565b611bb881611b9b565b8114611bc357600080fd5b50565b600081359050611bd581611baf565b92915050565b600060208284031215611bf157611bf0611825565b5b6000611bff84828501611bc6565b91505092915050565b6000819050919050565b611c1b81611c08565b8114611c2657600080fd5b50565b600081359050611c3881611c12565b92915050565b600080600060608486031215611c5757611c56611825565b5b6000611c6586828701611c29565b9350506020611c7686828701611c29565b9250506040611c878682870161184b565b9150509250925092565b611c9a81611c08565b82525050565b6000602082019050611cb56000830184611c91565b92915050565b611cc481611955565b8114611ccf57600080fd5b50565b600081359050611ce181611cbb565b92915050565b600060208284031215611cfd57611cfc611825565b5b6000611d0b84828501611cd2565b91505092915050565b7f4e487b7100000000000000000000000000000000000000000000000000000000600052603260045260246000fd5b611d4c8161182a565b82525050565b6000602082019050611d676000830184611d43565b92915050565b600081519050611d7c81611834565b92915050565b600060208284031215611d9857611d97611825565b5b6000611da684828501611d6d565b91505092915050565b7f4e487b7100000000000000000000000000000000000000000000000000000000600052601160045260246000fd5b6000611de98261188d565b91507fffffffffffffffffffffffffffffffffffffffffffffffffffffffffffffffff821415611e1c57611e1b611daf565b5b600182019050919050565b600082825260208201905092915050565b7f736574746c653a204265742068617320616c726561647920736574746c656400600082015250565b6000611e6e601f83611e27565b9150611e7982611e38565b602082019050919050565b60006020820190508181036000830152611e9d81611e61565b9050919050565b6000604082019050611eb96000830185611d43565b611ec66020830184611d43565b9392505050565b611ed68161191a565b8114611ee157600080fd5b50565b600081519050611ef381611ecd565b92915050565b600060208284031215611f0f57611f0e611825565b5b6000611f1d84828501611ee4565b91505092915050565b7f6261636b3a20496e76616c696420646174650000000000000000000000000000600082015250565b6000611f5c601283611e27565b9150611f6782611f26565b602082019050919050565b60006020820190508181036000830152611f8b81611f4f565b9050919050565b7f6261636b3a204f7261636c6520726573756c7420616c7265616479207365742060008201527f666f722074686973206d61726b65740000000000000000000000000000000000602082015250565b6000611fee602f83611e27565b9150611ff982611f92565b604082019050919050565b6000602082019050818103600083015261201d81611fe1565b9050919050565b600061202f82611955565b9050919050565b61203f81612024565b811461204a57600080fd5b50565b60008151905061205c81612036565b92915050565b60006020828403121561207857612077611825565b5b60006120868482850161204d565b91505092915050565b60006060820190506120a46000830186611967565b6120b16020830185611967565b6120be6040830184611897565b949350505050565b60006120d18261188d565b91506120dc8361188d565b9250828210156120ef576120ee611daf565b5b828203905092915050565b60006121058261188d565b91506121108361188d565b9250827fffffffffffffffffffffffffffffffffffffffffffffffffffffffffffffffff0382111561214557612144611daf565b5b828201905092915050565b600060a0820190506121656000830188611897565b6121726020830187611d43565b61217f6040830186611d43565b61218c6060830185611897565b6121996080830184611897565b9695505050505050565b7f4f776e61626c653a206e6577206f776e657220697320746865207a65726f206160008201527f6464726573730000000000000000000000000000000000000000000000000000602082015250565b60006121ff602683611e27565b915061220a826121a3565b604082019050919050565b6000602082019050818103600083015261222e816121f2565b9050919050565b7f5f736574746c653a204d61726b6574206e6f7420636c6f736564000000000000600082015250565b600061226b601a83611e27565b915061227682612235565b602082019050919050565b6000602082019050818103600083015261229a8161225e565b9050919050565b60006122ac8261188d565b915060008214156122c0576122bf611daf565b5b600182039050919050565b60006040820190506122e06000830185611967565b6122ed6020830184611897565b9392505050565b60006060820190506123096000830186611897565b6123166020830185611897565b6123236040830184611926565b949350505050565b7f4f776e61626c653a2063616c6c6572206973206e6f7420746865206f776e6572600082015250565b6000612361602083611e27565b915061236c8261232b565b602082019050919050565b6000602082019050818103600083015261239081612354565b9050919050565b7f4e487b7100000000000000000000000000000000000000000000000000000000600052600160045260246000fd5b60006123d18261188d565b91506123dc8361188d565b9250817fffffffffffffffffffffffffffffffffffffffffffffffffffffffffffffffff048311821515161561241557612414611daf565b5b828202905092915050565b7f4e487b7100000000000000000000000000000000000000000000000000000000600052601260045260246000fd5b600061245a8261188d565b91506124658361188d565b92508261247557612474612420565b5b828204905092915050565b60008151905061248f816118c1565b92915050565b6000602082840312156124ab576124aa611825565b5b60006124b984828501612480565b91505092915050565b60006124cd82611c08565b91506124d883611c08565b9250827f80000000000000000000000000000000000000000000000000000000000000000182126000841215161561251357612512611daf565b5b827f7fffffffffffffffffffffffffffffffffffffffffffffffffffffffffffffff01821360008412161561254b5761254a611daf565b5b828203905092915050565b600061256182611c08565b915061256c83611c08565b9250827f7fffffffffffffffffffffffffffffffffffffffffffffffffffffffffffffff04821160008413600084131616156125ab576125aa611daf565b5b817f800000000000000000000000000000000000000000000000000000000000000005831260008412600084131616156125e8576125e7611daf565b5b827f8000000000000000000000000000000000000000000000000000000000000000058212600084136000841216161561262557612624611daf565b5b827f7fffffffffffffffffffffffffffffffffffffffffffffffffffffffffffffff058212600084126000841216161561266257612661611daf565b5b828202905092915050565b600061267882611c08565b915061268383611c08565b92508261269357612692612420565b5b600160000383147f8000000000000000000000000000000000000000000000000000000000000000831416156126cc576126cb611daf565b5b82820590509291505056fea2646970667358221220c849866f0e34edd3c0a54f2e4c1c735cc7a27325536828d996784b24e3474a6464736f6c634300080a0033",
  "linkReferences": {},
  "deployedLinkReferences": {}
}