{
  "_format": "hh-sol-artifact-1",
  "contractName": "MarketOracle",
  "sourceName": "contracts/MarketOracle.sol",
  "abi": [
    {
      "inputs": [],
      "stateMutability": "nonpayable",
      "type": "constructor"
    },
    {
      "anonymous": false,
      "inputs": [
        {
          "indexed": false,
          "internalType": "bytes32",
          "name": "marketId",
          "type": "bytes32"
        },
        {
          "indexed": false,
          "internalType": "bytes32",
          "name": "propositionId",
          "type": "bytes32"
        }
      ],
      "name": "ResultSet",
      "type": "event"
    },
    {
      "inputs": [
        {
          "internalType": "bytes32",
          "name": "marketId",
          "type": "bytes32"
        },
        {
          "internalType": "bytes32",
          "name": "propositionId",
          "type": "bytes32"
        }
      ],
      "name": "checkResult",
      "outputs": [
        {
          "internalType": "bool",
          "name": "",
          "type": "bool"
        }
      ],
      "stateMutability": "view",
      "type": "function"
    },
    {
      "inputs": [
        {
          "internalType": "bytes32",
          "name": "marketId",
          "type": "bytes32"
        }
      ],
      "name": "getResult",
      "outputs": [
        {
          "internalType": "bytes32",
          "name": "",
          "type": "bytes32"
        }
      ],
      "stateMutability": "view",
      "type": "function"
    },
    {
      "inputs": [
        {
          "internalType": "bytes32",
          "name": "marketId",
          "type": "bytes32"
        },
        {
          "internalType": "bytes32",
          "name": "propositionId",
          "type": "bytes32"
        },
        {
          "internalType": "bytes32",
          "name": "sig",
          "type": "bytes32"
        }
      ],
      "name": "setResult",
      "outputs": [],
      "stateMutability": "nonpayable",
      "type": "function"
    }
  ],
  "bytecode": "0x60a060405234801561001057600080fd5b503373ffffffffffffffffffffffffffffffffffffffff1660808173ffffffffffffffffffffffffffffffffffffffff16815250506080516105fc61005d600039600050506105fc6000f3fe608060405234801561001057600080fd5b50600436106100415760003560e01c806362de493a146100465780638a9df35c14610062578063add4c78414610092575b600080fd5b610060600480360381019061005b91906102b6565b6100c2565b005b61007c60048036038101906100779190610309565b6101b4565b6040516100899190610364565b60405180910390f35b6100ac60048036038101906100a7919061037f565b610219565b6040516100b991906103bb565b60405180910390f35b6000801b821415610108576040517f08c379a00000000000000000000000000000000000000000000000000000000081526004016100ff90610459565b60405180910390fd5b6000801b600080858152602001908152602001600020541461015f576040517f08c379a0000000000000000000000000000000000000000000000000000000008152600401610156906104eb565b60405180910390fd5b81600080858152602001908152602001600020819055507fe36ed5e08892fad4291c4d8d3adf63440f93eb2fedf67b4fab8d9c183f0979e783836040516101a792919061050b565b60405180910390a1505050565b60008060001b8214156101fc576040517f08c379a00000000000000000000000000000000000000000000000000000000081526004016101f3906105a6565b60405180910390fd5b816000808581526020019081526020016000205414905092915050565b60008060001b821415610261576040517f08c379a0000000000000000000000000000000000000000000000000000000008152600401610258906105a6565b60405180910390fd5b600080838152602001908152602001600020549050919050565b600080fd5b6000819050919050565b61029381610280565b811461029e57600080fd5b50565b6000813590506102b08161028a565b92915050565b6000806000606084860312156102cf576102ce61027b565b5b60006102dd868287016102a1565b93505060206102ee868287016102a1565b92505060406102ff868287016102a1565b9150509250925092565b600080604083850312156103205761031f61027b565b5b600061032e858286016102a1565b925050602061033f858286016102a1565b9150509250929050565b60008115159050919050565b61035e81610349565b82525050565b60006020820190506103796000830184610355565b92915050565b6000602082840312156103955761039461027b565b5b60006103a3848285016102a1565b91505092915050565b6103b581610280565b82525050565b60006020820190506103d060008301846103ac565b92915050565b600082825260208201905092915050565b7f73657442696e617279526573756c743a20496e76616c69642070726f706f736960008201527f74696f6e49640000000000000000000000000000000000000000000000000000602082015250565b60006104436026836103d6565b915061044e826103e7565b604082019050919050565b6000602082019050818103600083015261047281610436565b9050919050565b7f73657442696e617279526573756c743a20526573756c7420616c72656164792060008201527f7365740000000000000000000000000000000000000000000000000000000000602082015250565b60006104d56023836103d6565b91506104e082610479565b604082019050919050565b60006020820190508181036000830152610504816104c8565b9050919050565b600060408201905061052060008301856103ac565b61052d60208301846103ac565b9392505050565b7f67657442696e617279526573756c743a20496e76616c69642070726f706f736960008201527f74696f6e49640000000000000000000000000000000000000000000000000000602082015250565b60006105906026836103d6565b915061059b82610534565b604082019050919050565b600060208201905081810360008301526105bf81610583565b905091905056fea2646970667358221220a80614b6256e5598718b81d4e18469124d5bcc9479ad7713fe2a98ea57cb7df964736f6c634300080a0033",
  "linkReferences": {},
  "deployedLinkReferences": {}
}