{
  "contractName": "Market",
  "abi": [
    {
      "inputs": [
        {
          "internalType": "address",
          "name": "vault",
          "type": "address"
        },
        {
          "internalType": "uint8",
          "name": "fee",
          "type": "uint8"
        }
      ],
      "stateMutability": "nonpayable",
      "type": "constructor"
    },
    {
      "anonymous": false,
      "inputs": [
        {
          "indexed": true,
          "internalType": "address",
          "name": "previousOwner",
          "type": "address"
        },
        {
          "indexed": true,
          "internalType": "address",
          "name": "newOwner",
          "type": "address"
        }
      ],
      "name": "OwnershipTransferred",
      "type": "event"
    },
    {
      "anonymous": false,
      "inputs": [
        {
          "indexed": false,
          "internalType": "bytes32",
          "name": "propositionId",
          "type": "bytes32"
        },
        {
          "indexed": false,
          "internalType": "uint256",
          "name": "amount",
          "type": "uint256"
        },
        {
          "indexed": false,
          "internalType": "uint256",
          "name": "payout",
          "type": "uint256"
        },
        {
          "indexed": true,
          "internalType": "address",
          "name": "owner",
          "type": "address"
        }
      ],
      "name": "Placed",
      "type": "event"
    },
    {
      "anonymous": false,
      "inputs": [
        {
          "indexed": false,
          "internalType": "uint256",
          "name": "id",
          "type": "uint256"
        },
        {
          "indexed": false,
          "internalType": "uint256",
          "name": "payout",
          "type": "uint256"
        },
        {
          "indexed": true,
          "internalType": "address",
          "name": "owner",
          "type": "address"
        }
      ],
      "name": "Settled",
      "type": "event"
    },
    {
      "inputs": [],
      "name": "min",
      "outputs": [
        {
          "internalType": "uint256",
          "name": "",
          "type": "uint256"
        }
      ],
      "stateMutability": "view",
      "type": "function"
    },
    {
      "inputs": [],
      "name": "owner",
      "outputs": [
        {
          "internalType": "address",
          "name": "",
          "type": "address"
        }
      ],
      "stateMutability": "view",
      "type": "function"
    },
    {
      "inputs": [],
      "name": "renounceOwnership",
      "outputs": [],
      "stateMutability": "nonpayable",
      "type": "function"
    },
    {
      "inputs": [],
      "name": "timeout",
      "outputs": [
        {
          "internalType": "uint256",
          "name": "",
          "type": "uint256"
        }
      ],
      "stateMutability": "view",
      "type": "function"
    },
    {
      "inputs": [
        {
          "internalType": "address",
          "name": "newOwner",
          "type": "address"
        }
      ],
      "name": "transferOwnership",
      "outputs": [],
      "stateMutability": "nonpayable",
      "type": "function"
    },
    {
      "inputs": [],
      "name": "getTarget",
      "outputs": [
        {
          "internalType": "uint8",
          "name": "",
          "type": "uint8"
        }
      ],
      "stateMutability": "view",
      "type": "function"
    },
    {
      "inputs": [],
      "name": "getTotalInplay",
      "outputs": [
        {
          "internalType": "uint256",
          "name": "",
          "type": "uint256"
        }
      ],
      "stateMutability": "view",
      "type": "function"
    },
    {
      "inputs": [],
      "name": "getTotalLiablity",
      "outputs": [
        {
          "internalType": "uint256",
          "name": "",
          "type": "uint256"
        }
      ],
      "stateMutability": "view",
      "type": "function"
    },
    {
      "inputs": [],
      "name": "getVaultAddress",
      "outputs": [
        {
          "internalType": "address",
          "name": "",
          "type": "address"
        }
      ],
      "stateMutability": "view",
      "type": "function"
    },
    {
      "inputs": [
        {
          "internalType": "uint64",
          "name": "id",
          "type": "uint64"
        }
      ],
      "name": "getExpiry",
      "outputs": [
        {
          "internalType": "uint256",
          "name": "",
          "type": "uint256"
        }
      ],
      "stateMutability": "view",
      "type": "function"
    },
    {
      "inputs": [
        {
          "internalType": "bytes32",
          "name": "marketId",
          "type": "bytes32"
        }
      ],
      "name": "getMarketTotal",
      "outputs": [
        {
          "internalType": "uint256",
          "name": "",
          "type": "uint256"
        }
      ],
      "stateMutability": "view",
      "type": "function"
    },
    {
      "inputs": [
        {
          "internalType": "uint256",
          "name": "index",
          "type": "uint256"
        }
      ],
      "name": "getBetByIndex",
      "outputs": [
        {
          "internalType": "uint256",
          "name": "",
          "type": "uint256"
        },
        {
          "internalType": "uint256",
          "name": "",
          "type": "uint256"
        },
        {
          "internalType": "uint256",
          "name": "",
          "type": "uint256"
        },
        {
          "internalType": "bool",
          "name": "",
          "type": "bool"
        },
        {
          "internalType": "address",
          "name": "",
          "type": "address"
        }
      ],
      "stateMutability": "view",
      "type": "function"
    },
    {
      "inputs": [
        {
          "internalType": "int256",
          "name": "wager",
          "type": "int256"
        },
        {
          "internalType": "int256",
          "name": "odds",
          "type": "int256"
        },
        {
          "internalType": "bytes32",
          "name": "propositionId",
          "type": "bytes32"
        }
      ],
      "name": "getOdds",
      "outputs": [
        {
          "internalType": "int256",
          "name": "",
          "type": "int256"
        }
      ],
      "stateMutability": "view",
      "type": "function"
    },
    {
      "inputs": [
        {
          "internalType": "bytes32",
          "name": "propositionId",
          "type": "bytes32"
        },
        {
          "internalType": "uint256",
          "name": "wager",
          "type": "uint256"
        },
        {
          "internalType": "uint256",
          "name": "odds",
          "type": "uint256"
        }
      ],
      "name": "getPotentialPayout",
      "outputs": [
        {
          "internalType": "uint256",
          "name": "",
          "type": "uint256"
        }
      ],
      "stateMutability": "view",
      "type": "function"
    },
    {
      "inputs": [
        {
          "internalType": "bytes32",
          "name": "nonce",
          "type": "bytes32"
        },
        {
          "internalType": "bytes32",
          "name": "propositionId",
          "type": "bytes32"
        },
        {
          "internalType": "bytes32",
          "name": "marketId",
          "type": "bytes32"
        },
        {
          "internalType": "uint256",
          "name": "wager",
          "type": "uint256"
        },
        {
          "internalType": "uint256",
          "name": "odds",
          "type": "uint256"
        },
        {
          "internalType": "uint256",
          "name": "close",
          "type": "uint256"
        },
        {
          "internalType": "uint256",
          "name": "end",
          "type": "uint256"
        },
        {
          "internalType": "bytes",
          "name": "signature",
          "type": "bytes"
        }
      ],
      "name": "back",
      "outputs": [
        {
          "internalType": "uint256",
          "name": "",
          "type": "uint256"
        }
      ],
      "stateMutability": "nonpayable",
      "type": "function"
    },
    {
      "inputs": [
        {
          "internalType": "uint256",
          "name": "id",
          "type": "uint256"
        },
        {
          "internalType": "bytes",
          "name": "signature",
          "type": "bytes"
        }
      ],
      "name": "settle",
      "outputs": [],
      "stateMutability": "nonpayable",
      "type": "function"
    },
    {
      "inputs": [
        {
          "internalType": "bytes32",
          "name": "nonce",
          "type": "bytes32"
        },
        {
          "internalType": "bytes32",
          "name": "marketId",
          "type": "bytes32"
        },
        {
          "internalType": "bytes32",
          "name": "propositionId",
          "type": "bytes32"
        },
        {
          "internalType": "bytes",
          "name": "signature",
          "type": "bytes"
        }
      ],
      "name": "settleMarket",
      "outputs": [],
      "stateMutability": "nonpayable",
      "type": "function"
    }
  ],
  "bytecode": "0x6101206040523480156200001257600080fd5b5060405162002b9c38038062002b9c8339818101604052810190620000389190620002d3565b620000586200004c6200015f60201b60201c565b6200016760201b60201c565b600073ffffffffffffffffffffffffffffffffffffffff168273ffffffffffffffffffffffffffffffffffffffff161415620000cb576040517f08c379a0000000000000000000000000000000000000000000000000000000008152600401620000c2906200037b565b60405180910390fd5b3073ffffffffffffffffffffffffffffffffffffffff1660c08173ffffffffffffffffffffffffffffffffffffffff16815250508173ffffffffffffffffffffffffffffffffffffffff1660a08173ffffffffffffffffffffffffffffffffffffffff16815250508060ff1660808160ff168152505062278d0060e08181525050610e10610100818152505050506200039d565b600033905090565b60008060009054906101000a900473ffffffffffffffffffffffffffffffffffffffff169050816000806101000a81548173ffffffffffffffffffffffffffffffffffffffff021916908373ffffffffffffffffffffffffffffffffffffffff1602179055508173ffffffffffffffffffffffffffffffffffffffff168173ffffffffffffffffffffffffffffffffffffffff167f8be0079c531659141344cd1fd0a4f28419497f9722a3daafe3b4186f6b6457e060405160405180910390a35050565b600080fd5b600073ffffffffffffffffffffffffffffffffffffffff82169050919050565b60006200025d8262000230565b9050919050565b6200026f8162000250565b81146200027b57600080fd5b50565b6000815190506200028f8162000264565b92915050565b600060ff82169050919050565b620002ad8162000295565b8114620002b957600080fd5b50565b600081519050620002cd81620002a2565b92915050565b60008060408385031215620002ed57620002ec6200022b565b5b6000620002fd858286016200027e565b92505060206200031085828601620002bc565b9150509250929050565b600082825260208201905092915050565b7f496e76616c696420616464726573730000000000000000000000000000000000600082015250565b600062000363600f836200031a565b915062000370826200032b565b602082019050919050565b60006020820190508181036000830152620003968162000354565b9050919050565b60805160a05160c05160e051610100516127826200041a6000396000610de101526000818161072301526114640152600081816109e801528181610aa901526111400152600081816106fd0152818161080d0152818161090b01528181610a8801528181611104015261150c015260006107ce01526127826000f3fe608060405234801561001057600080fd5b506004361061010b5760003560e01c80638da5cb5b116100a2578063e8ee7b9b11610071578063e8ee7b9b146102ac578063f00e6a2a146102dc578063f20c9596146102fa578063f2fde38b1461032a578063f8897945146103465761010b565b80638da5cb5b14610210578063af7c383e1461022e578063bf6117881461024c578063e4650fac1461027c5761010b565b8063569ca13d116100de578063569ca13d146101ae57806365cacaa4146101ca57806370dea79a146101e8578063715018a6146102065761010b565b8063064c770214610110578063129c45fc1461014057806327f5c8ca1461017457806339c2ebb914610192575b600080fd5b61012a6004803603810190610125919061168d565b610364565b60405161013791906116d3565b60405180910390f35b61015a6004803603810190610155919061171a565b610381565b60405161016b9594939291906117a3565b60405180910390f35b61017c6103a5565b60405161018991906116d3565b60405180910390f35b6101ac60048036038101906101a7919061185b565b6103af565b005b6101c860048036038101906101c391906118bb565b6104b1565b005b6101d26106f9565b6040516101df9190611943565b60405180910390f35b6101f0610721565b6040516101fd91906116d3565b60405180910390f35b61020e610745565b005b610218610759565b6040516102259190611943565b60405180910390f35b610236610782565b60405161024391906116d3565b60405180910390f35b6102666004803603810190610261919061195e565b61078c565b60405161027391906116d3565b60405180910390f35b610296600480360381019061029191906119f1565b6107a2565b6040516102a391906116d3565b60405180910390f35b6102c660048036038101906102c19190611a54565b6107b4565b6040516102d39190611ab6565b60405180910390f35b6102e46107ca565b6040516102f19190611aed565b60405180910390f35b610314600480360381019061030f9190611b08565b6107f2565b60405161032191906116d3565b60405180910390f35b610344600480360381019061033f9190611c0a565b610d5b565b005b61034e610ddf565b60405161035b91906116d3565b60405180910390f35b600060046000838152602001908152602001600020549050919050565b600080600080600061039286610e03565b9450945094509450945091939590929450565b6000600854905090565b6000836040516020016103c29190611c58565b604051602081830303815290604052805190602001209050600061042a8285858080601f016020809104026020016040519081016040528093929190818152602001838380828437600081840152601f19601f82011690508083019250505050505050610f01565b9050610434610759565b73ffffffffffffffffffffffffffffffffffffffff168173ffffffffffffffffffffffffffffffffffffffff16146104a1576040517f08c379a000000000000000000000000000000000000000000000000000000000815260040161049890611cd0565b60405180910390fd5b6104aa85610f76565b5050505050565b6000801b84141580156104c757506000801b8314155b610506576040517f08c379a00000000000000000000000000000000000000000000000000000000081526004016104fd90611d3c565b60405180910390fd5b600085848660405160200161051d93929190611d7d565b60405160208183030381529060405280519060200120905060006105858285858080601f016020809104026020016040519081016040528093929190818152602001838380828437600081840152601f19601f82011690508083019250505050505050610f01565b905061058f610759565b73ffffffffffffffffffffffffffffffffffffffff168173ffffffffffffffffffffffffffffffffffffffff16146105fc576040517f08c379a00000000000000000000000000000000000000000000000000000000081526004016105f390611cd0565b60405180910390fd5b6000600560008881526020019081526020016000208054905090506020811061062857610627611dba565b5b60005b818110156106ee576000600560008a8152602001908152602001600020828154811061065a57610659611de9565b5b906000526020600020015490506003818154811061067b5761067a611de9565b5b906000526020600020906005020160040160009054906101000a900460ff161580156106cb575087600382815481106106b7576106b6611de9565b5b906000526020600020906005020160000154145b156106da576106d982610f76565b5b5080806106e690611e47565b91505061062b565b505050505050505050565b60007f0000000000000000000000000000000000000000000000000000000000000000905090565b7f000000000000000000000000000000000000000000000000000000000000000081565b61074d6112ea565b6107576000611368565b565b60008060009054906101000a900473ffffffffffffffffffffffffffffffffffffffff16905090565b6000600954905090565b600061079984848461142c565b90509392505050565b60006107ad82611460565b9050919050565b60006107c18484846114c4565b90509392505050565b60007f0000000000000000000000000000000000000000000000000000000000000000905090565b60008073ffffffffffffffffffffffffffffffffffffffff167f000000000000000000000000000000000000000000000000000000000000000073ffffffffffffffffffffffffffffffffffffffff161415610883576040517f08c379a000000000000000000000000000000000000000000000000000000000815260040161087a90611edc565b60405180910390fd5b428411801561089157508442115b6108d0576040517f08c379a00000000000000000000000000000000000000000000000000000000081526004016108c790611f48565b60405180910390fd5b60008a8a8a8a8a8a8a6040516020016108ef9796959493929190611f68565b60405160208183030381529060405280519060200120905060007f000000000000000000000000000000000000000000000000000000000000000073ffffffffffffffffffffffffffffffffffffffff166338d52e0f6040518163ffffffff1660e01b8152600401602060405180830381865afa158015610974573d6000803e3d6000fd5b505050506040513d601f19601f820116820180604052508101906109989190611ffe565b905060006109a78a8a8e6114c4565b9050600081136109ba576109b9611dba565b5b60006109c78d8c8c61142c565b90508273ffffffffffffffffffffffffffffffffffffffff166323b872dd337f00000000000000000000000000000000000000000000000000000000000000008e6040518463ffffffff1660e01b8152600401610a269392919061202b565b6020604051808303816000875af1158015610a45573d6000803e3d6000fd5b505050506040513d601f19601f82011682018060405250810190610a69919061208e565b508273ffffffffffffffffffffffffffffffffffffffff166323b872dd7f00000000000000000000000000000000000000000000000000000000000000007f00000000000000000000000000000000000000000000000000000000000000008e85610ad491906120bb565b6040518463ffffffff1660e01b8152600401610af29392919061202b565b6020604051808303816000875af1158015610b11573d6000803e3d6000fd5b505050506040513d601f19601f82011682018060405250810190610b35919061208e565b508a600460008e81526020019081526020016000206000828254610b5991906120ef565b9250508190555060036040518060c001604052808f81526020018d81526020018381526020018a81526020016000151581526020013373ffffffffffffffffffffffffffffffffffffffff1681525090806001815401808255809150506001900390600052602060002090600502016000909190919091506000820151816000015560208201518160010155604082015181600201556060820151816003015560808201518160040160006101000a81548160ff02191690831515021790555060a08201518160040160016101000a81548173ffffffffffffffffffffffffffffffffffffffff021916908373ffffffffffffffffffffffffffffffffffffffff1602179055505050600560008d8152602001908152602001600020600254908060018154018082558091505060019003906000526020600020016000909190919091505560026000815480929190610cb190611e47565b91905055508060086000828254610cc891906120ef565b925050819055508a81610cdb91906120bb565b60096000828254610cec91906120ef565b925050819055503373ffffffffffffffffffffffffffffffffffffffff167f9997d8f7e802f5defb4f3812a5b671b8f48a9a075a28f887da7d839a28a4cda68e8d84604051610d3d93929190612154565b60405180910390a26002549450505050509998505050505050505050565b610d636112ea565b600073ffffffffffffffffffffffffffffffffffffffff168173ffffffffffffffffffffffffffffffffffffffff161415610dd3576040517f08c379a0000000000000000000000000000000000000000000000000000000008152600401610dca906121fd565b60405180910390fd5b610ddc81611368565b50565b7f000000000000000000000000000000000000000000000000000000000000000081565b60008060008060008060038781548110610e2057610e1f611de9565b5b90600052602060002090600502016040518060c0016040529081600082015481526020016001820154815260200160028201548152602001600382015481526020016004820160009054906101000a900460ff161515151581526020016004820160019054906101000a900473ffffffffffffffffffffffffffffffffffffffff1673ffffffffffffffffffffffffffffffffffffffff1673ffffffffffffffffffffffffffffffffffffffff1681525050905080602001518160400151826060015183608001518460a00151955095509550955095505091939590929450565b600080600080610f1085611602565b80935081945082955050505060018684848460405160008152602001604052604051610f3f949392919061221d565b6020604051602081039080840390855afa158015610f61573d6000803e3d6000fd5b50505060206040510351935050505092915050565b6000151560038281548110610f8e57610f8d611de9565b5b906000526020600020906005020160040160009054906101000a900460ff16151514610fef576040517f08c379a0000000000000000000000000000000000000000000000000000000008152600401610fe6906122ae565b60405180910390fd5b6003818154811061100357611002611de9565b5b9060005260206000209060050201600301544261102091906120ef565b6003828154811061103457611033611de9565b5b90600052602060002090600502016003015410611086576040517f08c379a000000000000000000000000000000000000000000000000000000000815260040161107d9061231a565b60405180910390fd5b60016003828154811061109c5761109b611de9565b5b906000526020600020906005020160040160006101000a81548160ff021916908315150217905550600381815481106110d8576110d7611de9565b5b906000526020600020906005020160020154600860008282546110fb91906120bb565b925050819055507f000000000000000000000000000000000000000000000000000000000000000073ffffffffffffffffffffffffffffffffffffffff166323b872dd7f00000000000000000000000000000000000000000000000000000000000000006003848154811061117357611172611de9565b5b906000526020600020906005020160040160019054906101000a900473ffffffffffffffffffffffffffffffffffffffff16600385815481106111b9576111b8611de9565b5b9060005260206000209060050201600201546040518463ffffffff1660e01b81526004016111e99392919061202b565b6020604051808303816000875af1158015611208573d6000803e3d6000fd5b505050506040513d601f19601f8201168201806040525081019061122c919061208e565b506003818154811061124157611240611de9565b5b906000526020600020906005020160040160019054906101000a900473ffffffffffffffffffffffffffffffffffffffff1673ffffffffffffffffffffffffffffffffffffffff167fad80bd5021987f3f1d52b69564356b8f3799fec3d3ef660c96023960568b228782600384815481106112bf576112be611de9565b5b9060005260206000209060050201600201546040516112df92919061233a565b60405180910390a250565b6112f2611645565b73ffffffffffffffffffffffffffffffffffffffff16611310610759565b73ffffffffffffffffffffffffffffffffffffffff1614611366576040517f08c379a000000000000000000000000000000000000000000000000000000000815260040161135d906123af565b60405180910390fd5b565b60008060009054906101000a900473ffffffffffffffffffffffffffffffffffffffff169050816000806101000a81548173ffffffffffffffffffffffffffffffffffffffff021916908373ffffffffffffffffffffffffffffffffffffffff1602179055508173ffffffffffffffffffffffffffffffffffffffff168173ffffffffffffffffffffffffffffffffffffffff167f8be0079c531659141344cd1fd0a4f28419497f9722a3daafe3b4186f6b6457e060405160405180910390a35050565b60008061143a8484876114c4565b9050620f4240848261144c91906123cf565b6114569190612458565b9150509392505050565b60007f000000000000000000000000000000000000000000000000000000000000000060038367ffffffffffffffff16815481106114a1576114a0611de9565b5b9060005260206000209060050201600301546114bd91906120ef565b9050919050565b6000808313611508576040517f08c379a00000000000000000000000000000000000000000000000000000000081526004016114ff906124d5565b60405180910390fd5b60007f000000000000000000000000000000000000000000000000000000000000000073ffffffffffffffffffffffffffffffffffffffff166301e1d1146040518163ffffffff1660e01b8152600401602060405180830381865afa158015611575573d6000803e3d6000fd5b505050506040513d601f19601f82011682018060405250810190611599919061250a565b90506007600084815260200190815260200160002054816115ba9190612537565b90506103e8816103e8876115ce91906125cb565b6115d891906126e2565b856115e391906125cb565b6115ed91906126e2565b846115f89190612537565b9150509392505050565b6000806000604184511461161557600080fd5b60008060006020870151925060408701519150606087015160001a90508083839550955095505050509193909250565b600033905090565b600080fd5b600080fd5b6000819050919050565b61166a81611657565b811461167557600080fd5b50565b60008135905061168781611661565b92915050565b6000602082840312156116a3576116a261164d565b5b60006116b184828501611678565b91505092915050565b6000819050919050565b6116cd816116ba565b82525050565b60006020820190506116e860008301846116c4565b92915050565b6116f7816116ba565b811461170257600080fd5b50565b600081359050611714816116ee565b92915050565b6000602082840312156117305761172f61164d565b5b600061173e84828501611705565b91505092915050565b60008115159050919050565b61175c81611747565b82525050565b600073ffffffffffffffffffffffffffffffffffffffff82169050919050565b600061178d82611762565b9050919050565b61179d81611782565b82525050565b600060a0820190506117b860008301886116c4565b6117c560208301876116c4565b6117d260408301866116c4565b6117df6060830185611753565b6117ec6080830184611794565b9695505050505050565b600080fd5b600080fd5b600080fd5b60008083601f84011261181b5761181a6117f6565b5b8235905067ffffffffffffffff811115611838576118376117fb565b5b60208301915083600182028301111561185457611853611800565b5b9250929050565b6000806000604084860312156118745761187361164d565b5b600061188286828701611705565b935050602084013567ffffffffffffffff8111156118a3576118a2611652565b5b6118af86828701611805565b92509250509250925092565b6000806000806000608086880312156118d7576118d661164d565b5b60006118e588828901611678565b95505060206118f688828901611678565b945050604061190788828901611678565b935050606086013567ffffffffffffffff81111561192857611927611652565b5b61193488828901611805565b92509250509295509295909350565b60006020820190506119586000830184611794565b92915050565b6000806000606084860312156119775761197661164d565b5b600061198586828701611678565b935050602061199686828701611705565b92505060406119a786828701611705565b9150509250925092565b600067ffffffffffffffff82169050919050565b6119ce816119b1565b81146119d957600080fd5b50565b6000813590506119eb816119c5565b92915050565b600060208284031215611a0757611a0661164d565b5b6000611a15848285016119dc565b91505092915050565b6000819050919050565b611a3181611a1e565b8114611a3c57600080fd5b50565b600081359050611a4e81611a28565b92915050565b600080600060608486031215611a6d57611a6c61164d565b5b6000611a7b86828701611a3f565b9350506020611a8c86828701611a3f565b9250506040611a9d86828701611678565b9150509250925092565b611ab081611a1e565b82525050565b6000602082019050611acb6000830184611aa7565b92915050565b600060ff82169050919050565b611ae781611ad1565b82525050565b6000602082019050611b026000830184611ade565b92915050565b60008060008060008060008060006101008a8c031215611b2b57611b2a61164d565b5b6000611b398c828d01611678565b9950506020611b4a8c828d01611678565b9850506040611b5b8c828d01611678565b9750506060611b6c8c828d01611705565b9650506080611b7d8c828d01611705565b95505060a0611b8e8c828d01611705565b94505060c0611b9f8c828d01611705565b93505060e08a013567ffffffffffffffff811115611bc057611bbf611652565b5b611bcc8c828d01611805565b92509250509295985092959850929598565b611be781611782565b8114611bf257600080fd5b50565b600081359050611c0481611bde565b92915050565b600060208284031215611c2057611c1f61164d565b5b6000611c2e84828501611bf5565b91505092915050565b6000819050919050565b611c52611c4d826116ba565b611c37565b82525050565b6000611c648284611c41565b60208201915081905092915050565b600082825260208201905092915050565b7f496e76616c6964207369676e6174757265000000000000000000000000000000600082015250565b6000611cba601183611c73565b9150611cc582611c84565b602082019050919050565b60006020820190508181036000830152611ce981611cad565b9050919050565b7f496e76616c696420494400000000000000000000000000000000000000000000600082015250565b6000611d26600a83611c73565b9150611d3182611cf0565b602082019050919050565b60006020820190508181036000830152611d5581611d19565b9050919050565b6000819050919050565b611d77611d7282611657565b611d5c565b82525050565b6000611d898286611d66565b602082019150611d998285611d66565b602082019150611da98284611d66565b602082019150819050949350505050565b7f4e487b7100000000000000000000000000000000000000000000000000000000600052600160045260246000fd5b7f4e487b7100000000000000000000000000000000000000000000000000000000600052603260045260246000fd5b7f4e487b7100000000000000000000000000000000000000000000000000000000600052601160045260246000fd5b6000611e52826116ba565b91507fffffffffffffffffffffffffffffffffffffffffffffffffffffffffffffffff821415611e8557611e84611e18565b5b600182019050919050565b7f5661756c742061646472657373206e6f74207365740000000000000000000000600082015250565b6000611ec6601583611c73565b9150611ed182611e90565b602082019050919050565b60006020820190508181036000830152611ef581611eb9565b9050919050565b7f496e76616c696420646174650000000000000000000000000000000000000000600082015250565b6000611f32600c83611c73565b9150611f3d82611efc565b602082019050919050565b60006020820190508181036000830152611f6181611f25565b9050919050565b6000611f74828a611d66565b602082019150611f848289611d66565b602082019150611f948288611d66565b602082019150611fa48287611c41565b602082019150611fb48286611c41565b602082019150611fc48285611c41565b602082019150611fd48284611c41565b60208201915081905098975050505050505050565b600081519050611ff881611bde565b92915050565b6000602082840312156120145761201361164d565b5b600061202284828501611fe9565b91505092915050565b60006060820190506120406000830186611794565b61204d6020830185611794565b61205a60408301846116c4565b949350505050565b61206b81611747565b811461207657600080fd5b50565b60008151905061208881612062565b92915050565b6000602082840312156120a4576120a361164d565b5b60006120b284828501612079565b91505092915050565b60006120c6826116ba565b91506120d1836116ba565b9250828210156120e4576120e3611e18565b5b828203905092915050565b60006120fa826116ba565b9150612105836116ba565b9250827fffffffffffffffffffffffffffffffffffffffffffffffffffffffffffffffff0382111561213a57612139611e18565b5b828201905092915050565b61214e81611657565b82525050565b60006060820190506121696000830186612145565b61217660208301856116c4565b61218360408301846116c4565b949350505050565b7f4f776e61626c653a206e6577206f776e657220697320746865207a65726f206160008201527f6464726573730000000000000000000000000000000000000000000000000000602082015250565b60006121e7602683611c73565b91506121f28261218b565b604082019050919050565b60006020820190508181036000830152612216816121da565b9050919050565b60006080820190506122326000830187612145565b61223f6020830186611ade565b61224c6040830185612145565b6122596060830184612145565b95945050505050565b7f4265742068617320616c7265616479206265656e20736574746c656400000000600082015250565b6000612298601c83611c73565b91506122a382612262565b602082019050919050565b600060208201905081810360008301526122c78161228b565b9050919050565b7f4d61726b6574206e6f7420636c6f736564000000000000000000000000000000600082015250565b6000612304601183611c73565b915061230f826122ce565b602082019050919050565b60006020820190508181036000830152612333816122f7565b9050919050565b600060408201905061234f60008301856116c4565b61235c60208301846116c4565b9392505050565b7f4f776e61626c653a2063616c6c6572206973206e6f7420746865206f776e6572600082015250565b6000612399602083611c73565b91506123a482612363565b602082019050919050565b600060208201905081810360008301526123c88161238c565b9050919050565b60006123da826116ba565b91506123e5836116ba565b9250817fffffffffffffffffffffffffffffffffffffffffffffffffffffffffffffffff048311821515161561241e5761241d611e18565b5b828202905092915050565b7f4e487b7100000000000000000000000000000000000000000000000000000000600052601260045260246000fd5b6000612463826116ba565b915061246e836116ba565b92508261247e5761247d612429565b5b828204905092915050565b7f43616e6e6f742068617665206e65676174697665206f64647300000000000000600082015250565b60006124bf601983611c73565b91506124ca82612489565b602082019050919050565b600060208201905081810360008301526124ee816124b2565b9050919050565b600081519050612504816116ee565b92915050565b6000602082840312156125205761251f61164d565b5b600061252e848285016124f5565b91505092915050565b600061254282611a1e565b915061254d83611a1e565b9250827f80000000000000000000000000000000000000000000000000000000000000000182126000841215161561258857612587611e18565b5b827f7fffffffffffffffffffffffffffffffffffffffffffffffffffffffffffffff0182136000841216156125c0576125bf611e18565b5b828203905092915050565b60006125d682611a1e565b91506125e183611a1e565b9250827f7fffffffffffffffffffffffffffffffffffffffffffffffffffffffffffffff04821160008413600084131616156126205761261f611e18565b5b817f8000000000000000000000000000000000000000000000000000000000000000058312600084126000841316161561265d5761265c611e18565b5b827f8000000000000000000000000000000000000000000000000000000000000000058212600084136000841216161561269a57612699611e18565b5b827f7fffffffffffffffffffffffffffffffffffffffffffffffffffffffffffffff05821260008412600084121616156126d7576126d6611e18565b5b828202905092915050565b60006126ed82611a1e565b91506126f883611a1e565b92508261270857612707612429565b5b600160000383147f80000000000000000000000000000000000000000000000000000000000000008314161561274157612740611e18565b5b82820590509291505056fea2646970667358221220f1c1acf2059ff1644870385a109f20353b7cf5ca7d549f9346ec226e9673d08664736f6c634300080a0033",
  "immutableReferences": {
    "6774": [
      {
        "length": 32,
        "start": 1998
      }
    ],
    "6776": [
      {
        "length": 32,
        "start": 1789
      },
      {
        "length": 32,
        "start": 2061
      },
      {
        "length": 32,
        "start": 2315
      },
      {
        "length": 32,
        "start": 2696
      },
      {
        "length": 32,
        "start": 4356
      },
      {
        "length": 32,
        "start": 5388
      }
    ],
    "6778": [
      {
        "length": 32,
        "start": 2536
      },
      {
        "length": 32,
        "start": 2729
      },
      {
        "length": 32,
        "start": 4416
      }
    ],
    "6809": [
      {
        "length": 32,
        "start": 1827
      },
      {
        "length": 32,
        "start": 5220
      }
    ],
    "6811": [
      {
        "length": 32,
        "start": 3553
      }
    ]
  },
  "source": "// SPDX-License-Identifier: MIT\r\npragma solidity =0.8.10;\r\n\r\nimport \"@openzeppelin/contracts/access/Ownable.sol\";\r\nimport \"@openzeppelin/contracts/token/ERC20/IERC20.sol\";\r\nimport \"@openzeppelin/contracts/token/ERC721/IERC721.sol\";\r\n\r\nimport { IBet } from \"./IBet.sol\";\r\nimport \"./IVault.sol\";\r\nimport \"./IMarket.sol\";\r\n\r\n// Put these in the ERC721 contract\r\nstruct Bet {\r\n    bytes32 propositionId;\r\n    uint256 amount;\r\n    uint256 payout;\r\n    uint256 payoutDate;\r\n    bool settled;\r\n    address owner;\r\n}\r\n\r\ncontract Market is Ownable, IMarket {\r\n\r\n    uint256 private constant MAX = 32;\r\n    uint256 private constant PRECESSION = 1_000;\r\n\r\n    IERC721 private _bet;\r\n    uint8 private immutable _fee;\r\n    address private immutable _vault;\r\n    address private immutable _self;\r\n\r\n    uint256 private _count; // running count of bets\r\n\r\n    Bet[] private _bets;\r\n\r\n    // MarketID => amount bet\r\n    mapping(bytes32 => uint256) private _marketTotal;\r\n\r\n    // MarketID => Bets Indexes\r\n    mapping(bytes32 => uint256[]) private _marketBets;\r\n\r\n    // MarketID => PropositionID => amount bet\r\n    mapping(bytes32 => mapping(uint16 => uint256)) private _marketBetAmount;\r\n\r\n    // PropositionID => amount bet\r\n    mapping(bytes32 => uint256) private _potentialPayout;\r\n\r\n    uint256 private _totalInPlay;\r\n    uint256 private _totalLiability;\r\n\r\n    // Can claim after this period regardless\r\n    uint256 public immutable timeout;\r\n    uint256 public immutable min;\r\n\r\n    function getTarget() external view returns (uint8) {\r\n        return _fee;\r\n    }\r\n\r\n    function getTotalInplay() external view returns (uint256) {\r\n        return _totalInPlay;\r\n    }\r\n\r\n    function getTotalLiablity() external view returns (uint256) {\r\n        return _totalLiability;\r\n    }\r\n\r\n    function getVaultAddress() external view returns (address) {\r\n        return _vault;\r\n    }\r\n\r\n    function getExpiry(uint64 id) external view returns (uint256) {\r\n        return _getExpiry(id);\r\n    }\r\n\r\n    function getMarketTotal(bytes32 marketId) external view returns (uint256) {\r\n        return _marketTotal[marketId];\r\n    }\r\n\r\n    function _getExpiry(uint64 id) private view returns (uint256) {\r\n        return _bets[id].payoutDate + timeout;\r\n    }\r\n\r\n    constructor(address vault, uint8 fee) {\r\n        require(vault != address(0), \"Invalid address\");\r\n        _self = address(this);\r\n        _vault = vault;\r\n        // _bet = IERC721(erc721);\r\n        _fee = fee;\r\n        \r\n        timeout = 30 days;\r\n        min = 1 hours;\r\n    }\r\n\r\n    // function getBetById(bytes32 id) external view returns (uint256, uint256, uint256, bool, address) {\r\n    //     uint64 index = _betsIndexes[id];\r\n    //     return _getBet(index);\r\n    // }\r\n\r\n    function getBetByIndex(uint256 index) external view returns (uint256, uint256, uint256, bool, address) {\r\n        return _getBet(index);\r\n    }\r\n\r\n    function _getBet(uint256 index) private view returns (uint256, uint256, uint256, bool, address) {\r\n        // bytes32 index = _betsIndexes[id];\r\n        Bet memory bet = _bets[index];\r\n        return (bet.amount, bet.payout, bet.payoutDate, bet.settled, bet.owner);\r\n    }\r\n\r\n    // function getBetById(bytes32 id) external view returns (uint256, uint256, uint256, bool, address) {\r\n    //     // bytes32 index = _betsIndexes[id];\r\n    //     // Bet memory bet = _bets[id];\r\n    //     // return (bet.amount, bet.payout, bet.payoutDate, bet.claimed, bet.owner);\r\n    //     return 0;\r\n    // }\r\n\r\n    function getOdds(int wager, int256 odds, bytes32 propositionId) external view returns (int256) {\r\n        return _getOdds(wager, odds, propositionId);\r\n    }\r\n    \r\n    function _getOdds(int wager, int256 odds, bytes32 propositionId) private view returns (int256) {\r\n        require(odds > 0, \"Cannot have negative odds\");\r\n        int256 p = int256(IVault(_vault).totalAssets());\r\n\r\n        // f(wager) = odds - odds*(wager/pool) \r\n\r\n        // do not include this guy in the return\r\n        p -= int256(_potentialPayout[propositionId]);\r\n\r\n        return odds - (odds * (wager * 1_000 / p) / 1_000);\r\n    }\r\n\r\n    function getPotentialPayout(bytes32 propositionId, uint256 wager, uint256 odds) external view returns (uint256) {\r\n        return _getPayout(propositionId, wager, odds);\r\n    }\r\n\r\n    function _getPayout(bytes32 propositionId, uint256 wager, uint256 odds) private view returns (uint256) {\r\n        // add underlying to the market\r\n        int256 trueOdds = _getOdds(int256(wager), int256(odds), propositionId);\r\n        // assert(trueOdds > 0);\r\n\r\n        return uint256(trueOdds) * wager / 1_000_000;\r\n    }\r\n\r\n    function back(bytes32 nonce, bytes32 propositionId, bytes32 marketId, uint256 wager, uint256 odds, uint256 close, uint256 end, bytes calldata signature) external returns (uint256) {\r\n        require(_vault != address(0), \"Vault address not set\");\r\n        require(end > block.timestamp && block.timestamp > close, \"Invalid date\");\r\n        \r\n        bytes32 messageHash = keccak256(abi.encodePacked(nonce, propositionId, marketId, wager, odds, close, end));\r\n        // bytes32 ethSignedMessageHash = getEthSignedMessageHash(messageHash);\r\n\r\n        // require(recoverSigner(ethSignedMessageHash, signature) == owner(), \"Invalid signature\");\r\n        address underlying = IVault(_vault).asset();\r\n\r\n        // add underlying to the market\r\n        int256 trueOdds = _getOdds(int256(wager), int256(odds), propositionId);\r\n        assert(trueOdds > 0);\r\n\r\n        uint256 payout = _getPayout(propositionId, wager, odds);\r\n\r\n        // escrow\r\n        IERC20(underlying).transferFrom(msg.sender, _self, wager);\r\n        IERC20(underlying).transferFrom(_vault, _self, (payout - wager));\r\n\r\n        // assert(IERC20(underlying).balanceOf(_self) >= payout);\r\n\r\n        // add to the market\r\n        _marketTotal[marketId] += wager;\r\n\r\n        _bets.push(Bet(propositionId, wager, payout, end, false, msg.sender));\r\n        _marketBets[marketId].push(_count);\r\n        _count++;\r\n\r\n        // Mint the 721\r\n        // uint256 tokenId = IBet(_bet).mint(msg.sender);\r\n\r\n        _totalInPlay += payout;\r\n        _totalLiability += (payout - wager);\r\n\r\n        emit Placed(propositionId, wager, payout, msg.sender);\r\n\r\n        return _count; // token ID\r\n    }\r\n\r\n    function settle(uint256 id, bytes calldata signature) external {\r\n        bytes32 message = keccak256(abi.encodePacked(id));\r\n        address marketOwner = recoverSigner(message, signature);\r\n        require(marketOwner == owner(), \"Invalid signature\");\r\n\r\n        _settle(id);\r\n    }\r\n\r\n    function settleMarket(bytes32 nonce, bytes32 marketId, bytes32 propositionId, bytes calldata signature) public {\r\n        require(marketId != 0 && propositionId != 0, \"Invalid ID\");\r\n\r\n        bytes32 message = keccak256(abi.encodePacked(nonce, propositionId, marketId));\r\n        address marketOwner = recoverSigner(message, signature);\r\n        require(marketOwner == owner(), \"Invalid signature\");\r\n        \r\n        uint256 count = _marketBets[marketId].length;\r\n        assert(count < MAX);\r\n        for (uint256 i = 0; i < count; i++) {\r\n            uint256 index = _marketBets[marketId][i];\r\n\r\n            if (!_bets[index].settled && _bets[index].propositionId == propositionId) {\r\n                _settle(i);\r\n            }\r\n        }\r\n    }\r\n\r\n    // function claim(bytes32 id, bytes calldata signature) external {\r\n    //     bytes32 message = keccak256(abi.encodePacked(id));\r\n    //     address marketOwner = recoverSigner(message, signature);\r\n    //     require(marketOwner == owner(), \"Invalid signature\");\r\n\r\n    //     require(_bets[id].claimed == false, \"Bet has already been claimed\");\r\n    //     require(_bets[id].payoutDate < block.timestamp + _bets[id].payoutDate, \"Market not closed\");\r\n\r\n    //     _bets[id].claimed = true;\r\n    //     _totalInPlay -= _bets[id].amount;\r\n\r\n    //     IERC20(_vault).transferFrom(_self, _bets[id].owner, _bets[id].payout);\r\n\r\n    //     emit Claimed(id, _bets[id].payout, _bets[id].owner);\r\n    // }\r\n\r\n    function _settle(uint256 id) private {\r\n        require(_bets[id].settled == false, \"Bet has already been settled\");\r\n        require(_bets[id].payoutDate < block.timestamp + _bets[id].payoutDate, \"Market not closed\");\r\n\r\n        _bets[id].settled = true;\r\n        _totalInPlay -= _bets[id].payout;\r\n\r\n        IERC20(_vault).transferFrom(_self, _bets[id].owner, _bets[id].payout);\r\n\r\n        emit Settled(id, _bets[id].payout, _bets[id].owner);\r\n    }\r\n\r\n    function getEthSignedMessageHash(bytes32 messageHash)\r\n        internal\r\n        pure\r\n        returns (bytes32)\r\n    {\r\n        /*\r\n        Signature is produced by signing a keccak256 hash with the following format:\r\n        \"\\x19Ethereum Signed Message\\n\" + len(msg) + msg\r\n        */\r\n        return keccak256(abi.encodePacked(\"\\x19Ethereum Signed Message:\\n32\", messageHash));\r\n    }\r\n\r\n    function recoverSigner(bytes32 message, bytes memory signature)\r\n        private\r\n        pure\r\n        returns (address)\r\n    {\r\n        uint8 v;\r\n        bytes32 r;\r\n        bytes32 s;\r\n\r\n        (v, r, s) = splitSignature(signature);\r\n\r\n        return ecrecover(message, v, r, s);\r\n    }\r\n\r\n    function splitSignature(bytes memory signature)\r\n        private\r\n        pure\r\n        returns (uint8, bytes32, bytes32)\r\n    {\r\n        require(signature.length == 65);\r\n\r\n        bytes32 r;\r\n        bytes32 s;\r\n        uint8 v;\r\n\r\n        assembly {\r\n            // first 32 bytes, after the length prefix\r\n            r := mload(add(signature, 32))\r\n            // second 32 bytes\r\n            s := mload(add(signature, 64))\r\n            // final byte (first byte of the next 32 bytes)\r\n            v := byte(0, mload(add(signature, 96)))\r\n        }\r\n\r\n        return (v, r, s);\r\n    }\r\n\r\n    event Placed(bytes32 propositionId, uint256 amount, uint256 payout, address indexed owner);\r\n    event Settled(uint256 id, uint256 payout, address indexed owner);\r\n}",
  "sourcePath": "C:\\git\\horselink\\horse.link\\contracts\\Market.sol",
  "compiler": {
    "name": "solc",
    "version": "0.8.10+commit.fc410830.Emscripten.clang"
  },
  "schemaVersion": "3.4.10",
  "updatedAt": "2022-09-16T04:35:03.891Z",
  "devdoc": {
    "kind": "dev",
    "methods": {
      "owner()": {
        "details": "Returns the address of the current owner."
      },
      "renounceOwnership()": {
        "details": "Leaves the contract without owner. It will not be possible to call `onlyOwner` functions anymore. Can only be called by the current owner. NOTE: Renouncing ownership will leave the contract without an owner, thereby removing any functionality that is only available to the owner."
      },
      "transferOwnership(address)": {
        "details": "Transfers ownership of the contract to a new account (`newOwner`). Can only be called by the current owner."
      }
    },
    "version": 1
  },
  "userdoc": {
    "kind": "user",
    "methods": {},
    "version": 1
  }
}