{
  "_format": "hh-sol-artifact-1",
  "contractName": "Market",
  "sourceName": "contracts/Market.sol",
  "abi": [
    {
      "inputs": [
        {
          "internalType": "contract IVault",
          "name": "vault",
          "type": "address"
        },
        {
          "internalType": "uint8",
          "name": "fee",
          "type": "uint8"
        },
        {
          "internalType": "address",
          "name": "oracle",
          "type": "address"
        }
      ],
      "stateMutability": "nonpayable",
      "type": "constructor"
    },
    {
      "anonymous": false,
      "inputs": [
        {
          "indexed": true,
          "internalType": "address",
          "name": "previousOwner",
          "type": "address"
        },
        {
          "indexed": true,
          "internalType": "address",
          "name": "newOwner",
          "type": "address"
        }
      ],
      "name": "OwnershipTransferred",
      "type": "event"
    },
    {
      "anonymous": false,
      "inputs": [
        {
          "indexed": false,
          "internalType": "uint256",
          "name": "index",
          "type": "uint256"
        },
        {
          "indexed": false,
          "internalType": "bytes32",
          "name": "propositionId",
          "type": "bytes32"
        },
        {
          "indexed": false,
          "internalType": "bytes32",
          "name": "marketId",
          "type": "bytes32"
        },
        {
          "indexed": false,
          "internalType": "uint256",
          "name": "amount",
          "type": "uint256"
        },
        {
          "indexed": false,
          "internalType": "uint256",
          "name": "payout",
          "type": "uint256"
        },
        {
          "indexed": true,
          "internalType": "address",
          "name": "owner",
          "type": "address"
        }
      ],
      "name": "Placed",
      "type": "event"
    },
    {
      "anonymous": false,
      "inputs": [
        {
          "indexed": false,
          "internalType": "uint256",
          "name": "id",
          "type": "uint256"
        },
        {
          "indexed": false,
          "internalType": "uint256",
          "name": "payout",
          "type": "uint256"
        },
        {
          "indexed": false,
          "internalType": "bool",
          "name": "result",
          "type": "bool"
        },
        {
          "indexed": true,
          "internalType": "address",
          "name": "owner",
          "type": "address"
        }
      ],
      "name": "Settled",
      "type": "event"
    },
    {
      "inputs": [
        {
          "internalType": "bytes32",
          "name": "nonce",
          "type": "bytes32"
        },
        {
          "internalType": "bytes32",
          "name": "propositionId",
          "type": "bytes32"
        },
        {
          "internalType": "bytes32",
          "name": "marketId",
          "type": "bytes32"
        },
        {
          "internalType": "uint256",
          "name": "wager",
          "type": "uint256"
        },
        {
          "internalType": "uint256",
          "name": "odds",
          "type": "uint256"
        },
        {
          "internalType": "uint256",
          "name": "close",
          "type": "uint256"
        },
        {
          "internalType": "uint256",
          "name": "end",
          "type": "uint256"
        },
        {
          "components": [
            {
              "internalType": "uint8",
              "name": "v",
              "type": "uint8"
            },
            {
              "internalType": "bytes32",
              "name": "r",
              "type": "bytes32"
            },
            {
              "internalType": "bytes32",
              "name": "s",
              "type": "bytes32"
            }
          ],
          "internalType": "struct Signature",
          "name": "signature",
          "type": "tuple"
        }
      ],
      "name": "back",
      "outputs": [
        {
          "internalType": "uint256",
          "name": "",
          "type": "uint256"
        }
      ],
      "stateMutability": "nonpayable",
      "type": "function"
    },
    {
      "inputs": [],
      "name": "claim",
      "outputs": [],
      "stateMutability": "nonpayable",
      "type": "function"
    },
    {
      "inputs": [
        {
          "internalType": "uint256",
          "name": "index",
          "type": "uint256"
        }
      ],
      "name": "getBetByIndex",
      "outputs": [
        {
          "internalType": "uint256",
          "name": "",
          "type": "uint256"
        },
        {
          "internalType": "uint256",
          "name": "",
          "type": "uint256"
        },
        {
          "internalType": "uint256",
          "name": "",
          "type": "uint256"
        },
        {
          "internalType": "bool",
          "name": "",
          "type": "bool"
        },
        {
          "internalType": "address",
          "name": "",
          "type": "address"
        }
      ],
      "stateMutability": "view",
      "type": "function"
    },
    {
      "inputs": [],
      "name": "getCount",
      "outputs": [
        {
          "internalType": "uint256",
          "name": "",
          "type": "uint256"
        }
      ],
      "stateMutability": "view",
      "type": "function"
    },
    {
      "inputs": [
        {
          "internalType": "uint64",
          "name": "id",
          "type": "uint64"
        }
      ],
      "name": "getExpiry",
      "outputs": [
        {
          "internalType": "uint256",
          "name": "",
          "type": "uint256"
        }
      ],
      "stateMutability": "view",
      "type": "function"
    },
    {
      "inputs": [],
      "name": "getFee",
      "outputs": [
        {
          "internalType": "uint8",
          "name": "",
          "type": "uint8"
        }
      ],
      "stateMutability": "view",
      "type": "function"
    },
    {
      "inputs": [],
      "name": "getInPlayCount",
      "outputs": [
        {
          "internalType": "uint256",
          "name": "",
          "type": "uint256"
        }
      ],
      "stateMutability": "view",
      "type": "function"
    },
    {
      "inputs": [
        {
          "internalType": "bytes32",
          "name": "marketId",
          "type": "bytes32"
        }
      ],
      "name": "getMarketTotal",
      "outputs": [
        {
          "internalType": "uint256",
          "name": "",
          "type": "uint256"
        }
      ],
      "stateMutability": "view",
      "type": "function"
    },
    {
      "inputs": [
        {
          "internalType": "int256",
          "name": "wager",
          "type": "int256"
        },
        {
          "internalType": "int256",
          "name": "odds",
          "type": "int256"
        },
        {
          "internalType": "bytes32",
          "name": "propositionId",
          "type": "bytes32"
        }
      ],
      "name": "getOdds",
      "outputs": [
        {
          "internalType": "int256",
          "name": "",
          "type": "int256"
        }
      ],
      "stateMutability": "view",
      "type": "function"
    },
    {
      "inputs": [],
      "name": "getOracleAddress",
      "outputs": [
        {
          "internalType": "address",
          "name": "",
          "type": "address"
        }
      ],
      "stateMutability": "view",
      "type": "function"
    },
    {
      "inputs": [
        {
          "internalType": "bytes32",
          "name": "propositionId",
          "type": "bytes32"
        },
        {
          "internalType": "uint256",
          "name": "wager",
          "type": "uint256"
        },
        {
          "internalType": "uint256",
          "name": "odds",
          "type": "uint256"
        }
      ],
      "name": "getPotentialPayout",
      "outputs": [
        {
          "internalType": "uint256",
          "name": "",
          "type": "uint256"
        }
      ],
      "stateMutability": "view",
      "type": "function"
    },
    {
      "inputs": [
        {
          "internalType": "uint256",
          "name": "index",
          "type": "uint256"
        },
        {
          "internalType": "bool",
          "name": "result",
          "type": "bool"
        }
      ],
      "name": "getSettleMessage",
      "outputs": [
        {
          "internalType": "bytes32",
          "name": "",
          "type": "bytes32"
        }
      ],
      "stateMutability": "view",
      "type": "function"
    },
    {
      "inputs": [],
      "name": "getTotalExposure",
      "outputs": [
        {
          "internalType": "uint256",
          "name": "",
          "type": "uint256"
        }
      ],
      "stateMutability": "view",
      "type": "function"
    },
    {
      "inputs": [],
      "name": "getTotalInPlay",
      "outputs": [
        {
          "internalType": "uint256",
          "name": "",
          "type": "uint256"
        }
      ],
      "stateMutability": "view",
      "type": "function"
    },
    {
      "inputs": [],
      "name": "getVaultAddress",
      "outputs": [
        {
          "internalType": "address",
          "name": "",
          "type": "address"
        }
      ],
      "stateMutability": "view",
      "type": "function"
    },
    {
      "inputs": [],
      "name": "min",
      "outputs": [
        {
          "internalType": "uint256",
          "name": "",
          "type": "uint256"
        }
      ],
      "stateMutability": "view",
      "type": "function"
    },
    {
      "inputs": [],
      "name": "owner",
      "outputs": [
        {
          "internalType": "address",
          "name": "",
          "type": "address"
        }
      ],
      "stateMutability": "view",
      "type": "function"
    },
    {
      "inputs": [],
      "name": "renounceOwnership",
      "outputs": [],
      "stateMutability": "nonpayable",
      "type": "function"
    },
    {
      "inputs": [
        {
          "internalType": "uint256",
          "name": "index",
          "type": "uint256"
        },
        {
          "internalType": "bool",
          "name": "result",
          "type": "bool"
        },
        {
          "components": [
            {
              "internalType": "uint8",
              "name": "v",
              "type": "uint8"
            },
            {
              "internalType": "bytes32",
              "name": "r",
              "type": "bytes32"
            },
            {
              "internalType": "bytes32",
              "name": "s",
              "type": "bytes32"
            }
          ],
          "internalType": "struct Signature",
          "name": "signature",
          "type": "tuple"
        }
      ],
      "name": "settle",
      "outputs": [],
      "stateMutability": "nonpayable",
      "type": "function"
    },
    {
      "inputs": [
        {
          "internalType": "uint256",
          "name": "from",
          "type": "uint256"
        },
        {
          "internalType": "uint256",
          "name": "to",
          "type": "uint256"
        },
        {
          "internalType": "bytes32",
          "name": "marketId",
          "type": "bytes32"
        },
        {
          "components": [
            {
              "internalType": "uint8",
              "name": "v",
              "type": "uint8"
            },
            {
              "internalType": "bytes32",
              "name": "r",
              "type": "bytes32"
            },
            {
              "internalType": "bytes32",
              "name": "s",
              "type": "bytes32"
            }
          ],
          "internalType": "struct Signature",
          "name": "signature",
          "type": "tuple"
        }
      ],
      "name": "settleMarket",
      "outputs": [],
      "stateMutability": "nonpayable",
      "type": "function"
    },
    {
      "inputs": [],
      "name": "timeout",
      "outputs": [
        {
          "internalType": "uint256",
          "name": "",
          "type": "uint256"
        }
      ],
      "stateMutability": "view",
      "type": "function"
    },
    {
      "inputs": [
        {
          "internalType": "address",
          "name": "newOwner",
          "type": "address"
        }
      ],
      "name": "transferOwnership",
      "outputs": [],
      "stateMutability": "nonpayable",
      "type": "function"
    }
  ],
  "bytecode": "0x6101606040523480156200001257600080fd5b50604051620030463803806200304683398181016040528101906200003891906200035e565b620000586200004c620001a560201b60201c565b620001ad60201b60201c565b600073ffffffffffffffffffffffffffffffffffffffff168373ffffffffffffffffffffffffffffffffffffffff161415620000cb576040517f08c379a0000000000000000000000000000000000000000000000000000000008152600401620000c2906200041b565b60405180910390fd5b3073ffffffffffffffffffffffffffffffffffffffff1660e08173ffffffffffffffffffffffffffffffffffffffff16815250508273ffffffffffffffffffffffffffffffffffffffff1660c08173ffffffffffffffffffffffffffffffffffffffff16815250508160ff1660808160ff1681525050600a60ff1660a08160ff16815250508073ffffffffffffffffffffffffffffffffffffffff166101008173ffffffffffffffffffffffffffffffffffffffff168152505062278d006101208181525050610e1061014081815250505050506200043d565b600033905090565b60008060009054906101000a900473ffffffffffffffffffffffffffffffffffffffff169050816000806101000a81548173ffffffffffffffffffffffffffffffffffffffff021916908373ffffffffffffffffffffffffffffffffffffffff1602179055508173ffffffffffffffffffffffffffffffffffffffff168173ffffffffffffffffffffffffffffffffffffffff167f8be0079c531659141344cd1fd0a4f28419497f9722a3daafe3b4186f6b6457e060405160405180910390a35050565b600080fd5b600073ffffffffffffffffffffffffffffffffffffffff82169050919050565b6000620002a38262000276565b9050919050565b6000620002b78262000296565b9050919050565b620002c981620002aa565b8114620002d557600080fd5b50565b600081519050620002e981620002be565b92915050565b600060ff82169050919050565b6200030781620002ef565b81146200031357600080fd5b50565b6000815190506200032781620002fc565b92915050565b620003388162000296565b81146200034457600080fd5b50565b60008151905062000358816200032d565b92915050565b6000806000606084860312156200037a576200037962000271565b5b60006200038a86828701620002d8565b93505060206200039d8682870162000316565b9250506040620003b08682870162000347565b9150509250925092565b600082825260208201905092915050565b7f496e76616c696420616464726573730000000000000000000000000000000000600082015250565b600062000403600f83620003ba565b91506200041082620003cb565b602082019050919050565b600060208201905081810360008301526200043681620003f4565b9050919050565b60805160a05160c05160e051610100516101205161014051612b79620004cd6000396000610f7601526000818161089801526117e5015260006109b4015260008181610b300152610bf10152600081816106d10152818161087201528181610a7301528181610bd00152818161131c015281816114cd015261184a01526000505060006109fc0152612b796000f3fe608060405234801561001057600080fd5b50600436106101425760003560e01c80639f766b25116100b8578063ced72f871161007c578063ced72f8714610347578063d21f48e114610365578063e4650fac14610395578063e8ee7b9b146103c5578063f2fde38b146103f5578063f88979451461041157610142565b80639f766b25146102a1578063a87d942c146102bd578063b18b78dd146102db578063bf611788146102f9578063c96121a81461032957610142565b8063584394791161010a578063584394791461020157806365cacaa41461021f57806370dea79a1461023d578063715018a61461025b5780638ac6d217146102655780638da5cb5b1461028357610142565b8063064c770214610147578063129c45fc146101775780633c4cf7d5146101ab5780634e71d92d146101c757806350392453146101d1575b600080fd5b610161600480360381019061015c91906119bc565b61042f565b60405161016e9190611a02565b60405180910390f35b610191600480360381019061018c9190611a49565b61044c565b6040516101a2959493929190611ad2565b60405180910390f35b6101c560048036038101906101c09190611b49565b610470565b005b6101cf610601565b005b6101eb60048036038101906101e69190611bf0565b610831565b6040516101f89190611c3f565b60405180910390f35b610209610864565b6040516102169190611a02565b60405180910390f35b61022761086e565b6040516102349190611c5a565b60405180910390f35b610245610896565b6040516102529190611a02565b60405180910390f35b6102636108ba565b005b61026d6108ce565b60405161027a9190611a02565b60405180910390f35b61028b6108d8565b6040516102989190611c5a565b60405180910390f35b6102bb60048036038101906102b69190611c75565b610901565b005b6102c56109a3565b6040516102d29190611a02565b60405180910390f35b6102e36109b0565b6040516102f09190611c5a565b60405180910390f35b610313600480360381019061030e9190611cc8565b6109d8565b6040516103209190611a02565b60405180910390f35b6103316109ee565b60405161033e9190611a02565b60405180910390f35b61034f6109f8565b60405161035c9190611d37565b60405180910390f35b61037f600480360381019061037a9190611d52565b610a20565b60405161038c9190611a02565b60405180910390f35b6103af60048036038101906103aa9190611e48565b610eab565b6040516103bc9190611a02565b60405180910390f35b6103df60048036038101906103da9190611eab565b610ebd565b6040516103ec9190611f0d565b60405180910390f35b61040f600480360381019061040a9190611f54565b610ef0565b005b610419610f74565b6040516104269190611a02565b60405180910390f35b600060046000838152602001908152602001600020549050919050565b600080600080600061045d86610f98565b9450945094509450945091939590929450565b60008583604051602001610485929190611fa2565b60405160208183030381529060405280519060200120905060006104a98284611096565b90506104b36108d8565b73ffffffffffffffffffffffffffffffffffffffff168173ffffffffffffffffffffffffffffffffffffffff1614610520576040517f08c379a00000000000000000000000000000000000000000000000000000000081526004016105179061202b565b60405180910390fd5b60008690505b858110156105f75760006003600087815260200190815260200160002082815481106105555761055461204b565b5b90600052602060002001549050600281815481106105765761057561204b565b5b906000526020600020906005020160040160009054906101000a900460ff166105e35788600282815481106105ae576105ad61204b565b5b90600052602060002090600502016000015414156105d6576105d1816001611134565b6105e2565b6105e1816000611134565b5b5b5080806105ef906120a9565b915050610526565b5050505050505050565b6000600960003373ffffffffffffffffffffffffffffffffffffffff1673ffffffffffffffffffffffffffffffffffffffff16815260200190815260200160002054905060008111610688576040517f08c379a000000000000000000000000000000000000000000000000000000000815260040161067f9061213e565b60405180910390fd5b6000600960003373ffffffffffffffffffffffffffffffffffffffff1673ffffffffffffffffffffffffffffffffffffffff1681526020019081526020016000208190555060007f000000000000000000000000000000000000000000000000000000000000000073ffffffffffffffffffffffffffffffffffffffff166338d52e0f6040518163ffffffff1660e01b8152600401602060405180830381865afa15801561073a573d6000803e3d6000fd5b505050506040513d601f19601f8201168201806040525081019061075e919061219c565b90508073ffffffffffffffffffffffffffffffffffffffff1663a9059cbb33846040518363ffffffff1660e01b815260040161079b9291906121c9565b6020604051808303816000875af11580156107ba573d6000803e3d6000fd5b505050506040513d601f19601f820116820180604052508101906107de9190612207565b503373ffffffffffffffffffffffffffffffffffffffff167fd8138f8a3f377c5259ca548e70e4c2de94f129f5a11036a15b69513cba2b426a836040516108259190611a02565b60405180910390a25050565b6000828260405160200161084692919061229d565b60405160208183030381529060405280519060200120905092915050565b6000600754905090565b60007f0000000000000000000000000000000000000000000000000000000000000000905090565b7f000000000000000000000000000000000000000000000000000000000000000081565b6108c2611635565b6108cc60006116b3565b565b6000600854905090565b60008060009054906101000a900473ffffffffffffffffffffffffffffffffffffffff16905090565b600061090d8484610831565b9050600061091b8284611096565b90506109256108d8565b73ffffffffffffffffffffffffffffffffffffffff168173ffffffffffffffffffffffffffffffffffffffff1614610992576040517f08c379a000000000000000000000000000000000000000000000000000000000815260040161098990612315565b60405180910390fd5b61099c8585611134565b5050505050565b6000600280549050905090565b60007f0000000000000000000000000000000000000000000000000000000000000000905090565b60006109e5848484611777565b90509392505050565b6000600154905090565b60007f0000000000000000000000000000000000000000000000000000000000000000905090565b60004283118015610a3057508342115b610a6f576040517f08c379a0000000000000000000000000000000000000000000000000000000008152600401610a6690612381565b60405180910390fd5b60007f000000000000000000000000000000000000000000000000000000000000000073ffffffffffffffffffffffffffffffffffffffff166338d52e0f6040518163ffffffff1660e01b8152600401602060405180830381865afa158015610adc573d6000803e3d6000fd5b505050506040513d601f19601f82011682018060405250810190610b00919061219c565b90506000610b0f8a8989611777565b90508173ffffffffffffffffffffffffffffffffffffffff166323b872dd337f00000000000000000000000000000000000000000000000000000000000000008b6040518463ffffffff1660e01b8152600401610b6e939291906123a1565b6020604051808303816000875af1158015610b8d573d6000803e3d6000fd5b505050506040513d601f19601f82011682018060405250810190610bb19190612207565b508173ffffffffffffffffffffffffffffffffffffffff166323b872dd7f00000000000000000000000000000000000000000000000000000000000000007f00000000000000000000000000000000000000000000000000000000000000008b85610c1c91906123d8565b6040518463ffffffff1660e01b8152600401610c3a939291906123a1565b6020604051808303816000875af1158015610c59573d6000803e3d6000fd5b505050506040513d601f19601f82011682018060405250810190610c7d9190612207565b5087600460008b81526020019081526020016000206000828254610ca1919061240c565b9250508190555060026040518060c001604052808c81526020018a81526020018381526020018781526020016000151581526020013373ffffffffffffffffffffffffffffffffffffffff1681525090806001815401808255809150506001900390600052602060002090600502016000909190919091506000820151816000015560208201518160010155604082015181600201556060820151816003015560808201518160040160006101000a81548160ff02191690831515021790555060a08201518160040160016101000a81548173ffffffffffffffffffffffffffffffffffffffff021916908373ffffffffffffffffffffffffffffffffffffffff160217905550505060006002805490509050600360008b81526020019081526020016000208190806001815401808255809150506001900390600052602060002001600090919091909150558160076000828254610e00919061240c565b925050819055508882610e1391906123d8565b60086000828254610e24919061240c565b9250508190555060016000815480929190610e3e906120a9565b91905055503373ffffffffffffffffffffffffffffffffffffffff167fd759bd709dd545e334bbbe1ec5f65be8969a61bba4499466675d5cfe7a36b5fe828d8d8d87604051610e91959493929190612462565b60405180910390a280935050505098975050505050505050565b6000610eb6826117e1565b9050919050565b600080841480610ecd5750600083145b15610edb5760009050610ee9565b610ee6848484611845565b90505b9392505050565b610ef8611635565b600073ffffffffffffffffffffffffffffffffffffffff168173ffffffffffffffffffffffffffffffffffffffff161415610f68576040517f08c379a0000000000000000000000000000000000000000000000000000000008152600401610f5f90612527565b60405180910390fd5b610f71816116b3565b50565b7f000000000000000000000000000000000000000000000000000000000000000081565b60008060008060008060028781548110610fb557610fb461204b565b5b90600052602060002090600502016040518060c0016040529081600082015481526020016001820154815260200160028201548152602001600382015481526020016004820160009054906101000a900460ff161515151581526020016004820160019054906101000a900473ffffffffffffffffffffffffffffffffffffffff1673ffffffffffffffffffffffffffffffffffffffff1673ffffffffffffffffffffffffffffffffffffffff1681525050905080602001518160400151826060015183608001518460a00151955095509550955095505091939590929450565b600080836040516020016110aa919061259e565b6040516020818303038152906040528051906020012090506001818460000160208101906110d891906125f0565b85602001358660400135604051600081526020016040526040516110ff949392919061261d565b6020604051602081039080840390855afa158015611121573d6000803e3d6000fd5b5050506020604051035191505092915050565b600015156002838154811061114c5761114b61204b565b5b906000526020600020906005020160040160009054906101000a900460ff161515146111ad576040517f08c379a00000000000000000000000000000000000000000000000000000000081526004016111a4906126d4565b60405180910390fd5b600282815481106111c1576111c061204b565b5b906000526020600020906005020160030154426111de919061240c565b600283815481106111f2576111f161204b565b5b90600052602060002090600502016003015410611244576040517f08c379a000000000000000000000000000000000000000000000000000000000815260040161123b90612740565b60405180910390fd5b60016002838154811061125a5761125961204b565b5b906000526020600020906005020160040160006101000a81548160ff021916908315150217905550600282815481106112965761129561204b565b5b906000526020600020906005020160020154600760008282546112b991906123d8565b925050819055506001600760008282546112d391906123d8565b92505081905550600282815481106112ee576112ed61204b565b5b9060005260206000209060050201600201546008600082825461131191906123d8565b9250508190555060007f000000000000000000000000000000000000000000000000000000000000000073ffffffffffffffffffffffffffffffffffffffff166338d52e0f6040518163ffffffff1660e01b8152600401602060405180830381865afa158015611385573d6000803e3d6000fd5b505050506040513d601f19601f820116820180604052508101906113a9919061219c565b90506001151582151514156114a2578073ffffffffffffffffffffffffffffffffffffffff1663a9059cbb600285815481106113e8576113e761204b565b5b906000526020600020906005020160040160019054906101000a900473ffffffffffffffffffffffffffffffffffffffff166002868154811061142e5761142d61204b565b5b9060005260206000209060050201600201546040518363ffffffff1660e01b815260040161145d9291906121c9565b6020604051808303816000875af115801561147c573d6000803e3d6000fd5b505050506040513d601f19601f820116820180604052508101906114a09190612207565b505b600015158215151415611574578073ffffffffffffffffffffffffffffffffffffffff1663a9059cbb7f000000000000000000000000000000000000000000000000000000000000000060028681548110611500576114ff61204b565b5b9060005260206000209060050201600201546040518363ffffffff1660e01b815260040161152f9291906121c9565b6020604051808303816000875af115801561154e573d6000803e3d6000fd5b505050506040513d601f19601f820116820180604052508101906115729190612207565b505b600283815481106115885761158761204b565b5b906000526020600020906005020160040160019054906101000a900473ffffffffffffffffffffffffffffffffffffffff1673ffffffffffffffffffffffffffffffffffffffff167f08a2a3d90b4a86017a5adf7503073c6b2b44051c48e9844a336190c9793c4af984600286815481106116065761160561204b565b5b9060005260206000209060050201600201548560405161162893929190612760565b60405180910390a2505050565b61163d611979565b73ffffffffffffffffffffffffffffffffffffffff1661165b6108d8565b73ffffffffffffffffffffffffffffffffffffffff16146116b1576040517f08c379a00000000000000000000000000000000000000000000000000000000081526004016116a8906127e3565b60405180910390fd5b565b60008060009054906101000a900473ffffffffffffffffffffffffffffffffffffffff169050816000806101000a81548173ffffffffffffffffffffffffffffffffffffffff021916908373ffffffffffffffffffffffffffffffffffffffff1602179055508173ffffffffffffffffffffffffffffffffffffffff168173ffffffffffffffffffffffffffffffffffffffff167f8be0079c531659141344cd1fd0a4f28419497f9722a3daafe3b4186f6b6457e060405160405180910390a35050565b600080821161178957611788612803565b5b6000831161179a57611799612803565b5b60006117a7848487611845565b905060008114156117bc5760009150506117da565b620f424084826117cc9190612832565b6117d691906128bb565b9150505b9392505050565b60007f000000000000000000000000000000000000000000000000000000000000000060028367ffffffffffffffff16815481106118225761182161204b565b5b90600052602060002090600502016003015461183e919061240c565b9050919050565b6000807f000000000000000000000000000000000000000000000000000000000000000073ffffffffffffffffffffffffffffffffffffffff166301e1d1146040518163ffffffff1660e01b8152600401602060405180830381865afa1580156118b3573d6000803e3d6000fd5b505050506040513d601f19601f820116820180604052508101906118d79190612901565b905060008114156118ec576000915050611972565b8060066000858152602001908152602001600020541115611911576000915050611972565b600660008481526020019081526020016000205481611930919061292e565b90506103e8816103e88761194491906129c2565b61194e9190612ad9565b8561195991906129c2565b6119639190612ad9565b8461196e919061292e565b9150505b9392505050565b600033905090565b600080fd5b6000819050919050565b61199981611986565b81146119a457600080fd5b50565b6000813590506119b681611990565b92915050565b6000602082840312156119d2576119d1611981565b5b60006119e0848285016119a7565b91505092915050565b6000819050919050565b6119fc816119e9565b82525050565b6000602082019050611a1760008301846119f3565b92915050565b611a26816119e9565b8114611a3157600080fd5b50565b600081359050611a4381611a1d565b92915050565b600060208284031215611a5f57611a5e611981565b5b6000611a6d84828501611a34565b91505092915050565b60008115159050919050565b611a8b81611a76565b82525050565b600073ffffffffffffffffffffffffffffffffffffffff82169050919050565b6000611abc82611a91565b9050919050565b611acc81611ab1565b82525050565b600060a082019050611ae760008301886119f3565b611af460208301876119f3565b611b0160408301866119f3565b611b0e6060830185611a82565b611b1b6080830184611ac3565b9695505050505050565b600080fd5b600060608284031215611b4057611b3f611b25565b5b81905092915050565b600080600080600060e08688031215611b6557611b64611981565b5b6000611b73888289016119a7565b9550506020611b8488828901611a34565b9450506040611b9588828901611a34565b9350506060611ba6888289016119a7565b9250506080611bb788828901611b2a565b9150509295509295909350565b611bcd81611a76565b8114611bd857600080fd5b50565b600081359050611bea81611bc4565b92915050565b60008060408385031215611c0757611c06611981565b5b6000611c1585828601611a34565b9250506020611c2685828601611bdb565b9150509250929050565b611c3981611986565b82525050565b6000602082019050611c546000830184611c30565b92915050565b6000602082019050611c6f6000830184611ac3565b92915050565b600080600060a08486031215611c8e57611c8d611981565b5b6000611c9c86828701611a34565b9350506020611cad86828701611bdb565b9250506040611cbe86828701611b2a565b9150509250925092565b600080600060608486031215611ce157611ce0611981565b5b6000611cef868287016119a7565b9350506020611d0086828701611a34565b9250506040611d1186828701611a34565b9150509250925092565b600060ff82169050919050565b611d3181611d1b565b82525050565b6000602082019050611d4c6000830184611d28565b92915050565b600080600080600080600080610140898b031215611d7357611d72611981565b5b6000611d818b828c016119a7565b9850506020611d928b828c016119a7565b9750506040611da38b828c016119a7565b9650506060611db48b828c01611a34565b9550506080611dc58b828c01611a34565b94505060a0611dd68b828c01611a34565b93505060c0611de78b828c01611a34565b92505060e0611df88b828c01611b2a565b9150509295985092959890939650565b600067ffffffffffffffff82169050919050565b611e2581611e08565b8114611e3057600080fd5b50565b600081359050611e4281611e1c565b92915050565b600060208284031215611e5e57611e5d611981565b5b6000611e6c84828501611e33565b91505092915050565b6000819050919050565b611e8881611e75565b8114611e9357600080fd5b50565b600081359050611ea581611e7f565b92915050565b600080600060608486031215611ec457611ec3611981565b5b6000611ed286828701611e96565b9350506020611ee386828701611e96565b9250506040611ef4868287016119a7565b9150509250925092565b611f0781611e75565b82525050565b6000602082019050611f226000830184611efe565b92915050565b611f3181611ab1565b8114611f3c57600080fd5b50565b600081359050611f4e81611f28565b92915050565b600060208284031215611f6a57611f69611981565b5b6000611f7884828501611f3f565b91505092915050565b6000819050919050565b611f9c611f9782611986565b611f81565b82525050565b6000611fae8285611f8b565b602082019150611fbe8284611f8b565b6020820191508190509392505050565b600082825260208201905092915050565b7f736574746c654d61726b65743a20496e76616c6964207369676e617475726500600082015250565b6000612015601f83611fce565b915061202082611fdf565b602082019050919050565b6000602082019050818103600083015261204481612008565b9050919050565b7f4e487b7100000000000000000000000000000000000000000000000000000000600052603260045260246000fd5b7f4e487b7100000000000000000000000000000000000000000000000000000000600052601160045260246000fd5b60006120b4826119e9565b91507fffffffffffffffffffffffffffffffffffffffffffffffffffffffffffffffff8214156120e7576120e661207a565b5b600182019050919050565b7f636c61696d3a204e6f206665657320746f20636c61696d000000000000000000600082015250565b6000612128601783611fce565b9150612133826120f2565b602082019050919050565b600060208201905081810360008301526121578161211b565b9050919050565b600061216982611ab1565b9050919050565b6121798161215e565b811461218457600080fd5b50565b60008151905061219681612170565b92915050565b6000602082840312156121b2576121b1611981565b5b60006121c084828501612187565b91505092915050565b60006040820190506121de6000830185611ac3565b6121eb60208301846119f3565b9392505050565b60008151905061220181611bc4565b92915050565b60006020828403121561221d5761221c611981565b5b600061222b848285016121f2565b91505092915050565b6000819050919050565b61224f61224a826119e9565b612234565b82525050565b60008160f81b9050919050565b600061226d82612255565b9050919050565b600061227f82612262565b9050919050565b61229761229282611a76565b612274565b82525050565b60006122a9828561223e565b6020820191506122b98284612286565b6001820191508190509392505050565b7f736574746c653a20496e76616c6964207369676e617475726500000000000000600082015250565b60006122ff601983611fce565b915061230a826122c9565b602082019050919050565b6000602082019050818103600083015261232e816122f2565b9050919050565b7f6261636b3a20496e76616c696420646174650000000000000000000000000000600082015250565b600061236b601283611fce565b915061237682612335565b602082019050919050565b6000602082019050818103600083015261239a8161235e565b9050919050565b60006060820190506123b66000830186611ac3565b6123c36020830185611ac3565b6123d060408301846119f3565b949350505050565b60006123e3826119e9565b91506123ee836119e9565b9250828210156124015761240061207a565b5b828203905092915050565b6000612417826119e9565b9150612422836119e9565b9250827fffffffffffffffffffffffffffffffffffffffffffffffffffffffffffffffff038211156124575761245661207a565b5b828201905092915050565b600060a08201905061247760008301886119f3565b6124846020830187611c30565b6124916040830186611c30565b61249e60608301856119f3565b6124ab60808301846119f3565b9695505050505050565b7f4f776e61626c653a206e6577206f776e657220697320746865207a65726f206160008201527f6464726573730000000000000000000000000000000000000000000000000000602082015250565b6000612511602683611fce565b915061251c826124b5565b604082019050919050565b6000602082019050818103600083015261254081612504565b9050919050565b600081905092915050565b7f19457468657265756d205369676e6564204d6573736167653a0a333200000000600082015250565b6000612588601c83612547565b915061259382612552565b601c82019050919050565b60006125a98261257b565b91506125b58284611f8b565b60208201915081905092915050565b6125cd81611d1b565b81146125d857600080fd5b50565b6000813590506125ea816125c4565b92915050565b60006020828403121561260657612605611981565b5b6000612614848285016125db565b91505092915050565b60006080820190506126326000830187611c30565b61263f6020830186611d28565b61264c6040830185611c30565b6126596060830184611c30565b95945050505050565b7f5f736574746c653a204265742068617320616c7265616479206265656e20736560008201527f74746c6564000000000000000000000000000000000000000000000000000000602082015250565b60006126be602583611fce565b91506126c982612662565b604082019050919050565b600060208201905081810360008301526126ed816126b1565b9050919050565b7f5f736574746c653a204d61726b6574206e6f7420636c6f736564000000000000600082015250565b600061272a601a83611fce565b9150612735826126f4565b602082019050919050565b600060208201905081810360008301526127598161271d565b9050919050565b600060608201905061277560008301866119f3565b61278260208301856119f3565b61278f6040830184611a82565b949350505050565b7f4f776e61626c653a2063616c6c6572206973206e6f7420746865206f776e6572600082015250565b60006127cd602083611fce565b91506127d882612797565b602082019050919050565b600060208201905081810360008301526127fc816127c0565b9050919050565b7f4e487b7100000000000000000000000000000000000000000000000000000000600052600160045260246000fd5b600061283d826119e9565b9150612848836119e9565b9250817fffffffffffffffffffffffffffffffffffffffffffffffffffffffffffffffff04831182151516156128815761288061207a565b5b828202905092915050565b7f4e487b7100000000000000000000000000000000000000000000000000000000600052601260045260246000fd5b60006128c6826119e9565b91506128d1836119e9565b9250826128e1576128e061288c565b5b828204905092915050565b6000815190506128fb81611a1d565b92915050565b60006020828403121561291757612916611981565b5b6000612925848285016128ec565b91505092915050565b600061293982611e75565b915061294483611e75565b9250827f80000000000000000000000000000000000000000000000000000000000000000182126000841215161561297f5761297e61207a565b5b827f7fffffffffffffffffffffffffffffffffffffffffffffffffffffffffffffff0182136000841216156129b7576129b661207a565b5b828203905092915050565b60006129cd82611e75565b91506129d883611e75565b9250827f7fffffffffffffffffffffffffffffffffffffffffffffffffffffffffffffff0482116000841360008413161615612a1757612a1661207a565b5b817f80000000000000000000000000000000000000000000000000000000000000000583126000841260008413161615612a5457612a5361207a565b5b827f80000000000000000000000000000000000000000000000000000000000000000582126000841360008412161615612a9157612a9061207a565b5b827f7fffffffffffffffffffffffffffffffffffffffffffffffffffffffffffffff0582126000841260008412161615612ace57612acd61207a565b5b828202905092915050565b6000612ae482611e75565b9150612aef83611e75565b925082612aff57612afe61288c565b5b600160000383147f800000000000000000000000000000000000000000000000000000000000000083141615612b3857612b3761207a565b5b82820590509291505056fea26469706673582212209a3f3220510c011134deab9ec1918b293d73c46dfb60c45b4b789bd38b11d2be64736f6c634300080a0033",
  "linkReferences": {},
  "deployedLinkReferences": {}
}