{
  "_format": "hh-sol-artifact-1",
  "contractName": "Registry",
  "sourceName": "contracts/Registry.sol",
  "abi": [
    {
      "inputs": [
        {
          "internalType": "contract IERC20Metadata",
          "name": "token",
          "type": "address"
        }
      ],
      "stateMutability": "nonpayable",
      "type": "constructor"
    },
    {
      "anonymous": false,
      "inputs": [
        {
          "indexed": true,
          "internalType": "address",
          "name": "market",
          "type": "address"
        }
      ],
      "name": "MarketAdded",
      "type": "event"
    },
    {
      "anonymous": false,
      "inputs": [
        {
          "indexed": false,
          "internalType": "uint256",
          "name": "threshold",
          "type": "uint256"
        }
      ],
      "name": "ThresholdUpdated",
      "type": "event"
    },
    {
      "anonymous": false,
      "inputs": [
        {
          "indexed": true,
          "internalType": "address",
          "name": "vault",
          "type": "address"
        }
      ],
      "name": "VaultAdded",
      "type": "event"
    },
    {
      "inputs": [
        {
          "internalType": "address",
          "name": "market",
          "type": "address"
        }
      ],
      "name": "addMarket",
      "outputs": [],
      "stateMutability": "nonpayable",
      "type": "function"
    },
    {
      "inputs": [
        {
          "internalType": "contract IVault",
          "name": "vault",
          "type": "address"
        }
      ],
      "name": "addVault",
      "outputs": [],
      "stateMutability": "nonpayable",
      "type": "function"
    },
    {
      "inputs": [],
      "name": "marketCount",
      "outputs": [
        {
          "internalType": "uint256",
          "name": "",
          "type": "uint256"
        }
      ],
      "stateMutability": "view",
      "type": "function"
    },
    {
      "inputs": [
        {
          "internalType": "uint256",
          "name": "",
          "type": "uint256"
        }
      ],
      "name": "markets",
      "outputs": [
        {
          "internalType": "address",
          "name": "",
          "type": "address"
        }
      ],
      "stateMutability": "view",
      "type": "function"
    },
    {
      "inputs": [
        {
          "internalType": "uint256",
          "name": "threshold",
          "type": "uint256"
        }
      ],
      "name": "setThreshold",
      "outputs": [],
      "stateMutability": "nonpayable",
      "type": "function"
    },
    {
      "inputs": [],
      "name": "vaultCount",
      "outputs": [
        {
          "internalType": "uint256",
          "name": "",
          "type": "uint256"
        }
      ],
      "stateMutability": "view",
      "type": "function"
    },
    {
      "inputs": [
        {
          "internalType": "uint256",
          "name": "",
          "type": "uint256"
        }
      ],
      "name": "vaults",
      "outputs": [
        {
          "internalType": "contract IVault",
          "name": "",
          "type": "address"
        }
      ],
      "stateMutability": "view",
      "type": "function"
    }
  ],
  "bytecode": "0x60c06040523480156200001157600080fd5b5060405162000f3938038062000f39833981810160405281019062000037919062000124565b3373ffffffffffffffffffffffffffffffffffffffff1660808173ffffffffffffffffffffffffffffffffffffffff16815250508073ffffffffffffffffffffffffffffffffffffffff1660a08173ffffffffffffffffffffffffffffffffffffffff16815250505062000156565b600080fd5b600073ffffffffffffffffffffffffffffffffffffffff82169050919050565b6000620000d882620000ab565b9050919050565b6000620000ec82620000cb565b9050919050565b620000fe81620000df565b81146200010a57600080fd5b50565b6000815190506200011e81620000f3565b92915050565b6000602082840312156200013d576200013c620000a6565b5b60006200014d848285016200010d565b91505092915050565b60805160a051610db6620001836000396000818161017701526104fd0152600061074f0152610db66000f3fe608060405234801561001057600080fd5b506004361061007d5760003560e01c8063960bfe041161005b578063960bfe04146100ea578063a7c6a10014610106578063b1283e7714610124578063ec979082146101545761007d565b8063256b5a02146100825780638c64ea4a1461009e57806393e30633146100ce575b600080fd5b61009c600480360381019061009791906108e9565b610172565b005b6100b860048036038101906100b3919061094c565b6104b9565b6040516100c591906109d8565b60405180910390f35b6100e860048036038101906100e39190610a1f565b6104f8565b005b61010460048036038101906100ff919061094c565b61074d565b005b61010e61081c565b60405161011b9190610a5b565b60405180910390f35b61013e6004803603810190610139919061094c565b610829565b60405161014b9190610a85565b60405180910390f35b61015c610868565b6040516101699190610a5b565b60405180910390f35b6004547f000000000000000000000000000000000000000000000000000000000000000073ffffffffffffffffffffffffffffffffffffffff166370a08231336040518263ffffffff1660e01b81526004016101ce9190610a85565b602060405180830381865afa1580156101eb573d6000803e3d6000fd5b505050506040513d601f19601f8201168201806040525081019061020f9190610ab5565b1015610250576040517f08c379a000000000000000000000000000000000000000000000000000000000815260040161024790610b65565b60405180910390fd5b60008173ffffffffffffffffffffffffffffffffffffffff166338d52e0f6040518163ffffffff1660e01b8152600401602060405180830381865afa15801561029d573d6000803e3d6000fd5b505050506040513d601f19601f820116820180604052508101906102c19190610bc3565b9050600073ffffffffffffffffffffffffffffffffffffffff16600260008373ffffffffffffffffffffffffffffffffffffffff1673ffffffffffffffffffffffffffffffffffffffff16815260200190815260200160002060009054906101000a900473ffffffffffffffffffffffffffffffffffffffff1673ffffffffffffffffffffffffffffffffffffffff1614610391576040517f08c379a000000000000000000000000000000000000000000000000000000000815260040161038890610c62565b60405180910390fd5b6001829080600181540180825580915050600190039060005260206000200160009091909190916101000a81548173ffffffffffffffffffffffffffffffffffffffff021916908373ffffffffffffffffffffffffffffffffffffffff16021790555081600260008373ffffffffffffffffffffffffffffffffffffffff1673ffffffffffffffffffffffffffffffffffffffff16815260200190815260200160002060006101000a81548173ffffffffffffffffffffffffffffffffffffffff021916908373ffffffffffffffffffffffffffffffffffffffff1602179055508173ffffffffffffffffffffffffffffffffffffffff167f7b7ef7a864d96a85497a1ed846adb39940dd6ccef678ff6ac8d55505e09b8cc460405160405180910390a25050565b600181815481106104c957600080fd5b906000526020600020016000915054906101000a900473ffffffffffffffffffffffffffffffffffffffff1681565b6004547f000000000000000000000000000000000000000000000000000000000000000073ffffffffffffffffffffffffffffffffffffffff166370a08231336040518263ffffffff1660e01b81526004016105549190610a85565b602060405180830381865afa158015610571573d6000803e3d6000fd5b505050506040513d601f19601f820116820180604052508101906105959190610ab5565b10156105d6576040517f08c379a00000000000000000000000000000000000000000000000000000000081526004016105cd90610b65565b60405180910390fd5b600073ffffffffffffffffffffffffffffffffffffffff16600360008373ffffffffffffffffffffffffffffffffffffffff1673ffffffffffffffffffffffffffffffffffffffff16815260200190815260200160002060009054906101000a900473ffffffffffffffffffffffffffffffffffffffff1673ffffffffffffffffffffffffffffffffffffffff16146106a4576040517f08c379a000000000000000000000000000000000000000000000000000000000815260040161069b90610cce565b60405180910390fd5b6000819080600181540180825580915050600190039060005260206000200160009091909190916101000a81548173ffffffffffffffffffffffffffffffffffffffff021916908373ffffffffffffffffffffffffffffffffffffffff1602179055508073ffffffffffffffffffffffffffffffffffffffff167fbc600b1f03d316c479b49930c28e328809316458d5b5dacbb7419df5f6f8964760405160405180910390a250565b7f000000000000000000000000000000000000000000000000000000000000000073ffffffffffffffffffffffffffffffffffffffff163373ffffffffffffffffffffffffffffffffffffffff16146107db576040517f08c379a00000000000000000000000000000000000000000000000000000000081526004016107d290610d60565b60405180910390fd5b806004819055507fadfa8ecb21b6962ebcd0adbd9ab985b7b4c5b5eb3b0dead683171565c7bfe171816040516108119190610a5b565b60405180910390a150565b6000600180549050905090565b6000818154811061083957600080fd5b906000526020600020016000915054906101000a900473ffffffffffffffffffffffffffffffffffffffff1681565b60008080549050905090565b600080fd5b600073ffffffffffffffffffffffffffffffffffffffff82169050919050565b60006108a482610879565b9050919050565b60006108b682610899565b9050919050565b6108c6816108ab565b81146108d157600080fd5b50565b6000813590506108e3816108bd565b92915050565b6000602082840312156108ff576108fe610874565b5b600061090d848285016108d4565b91505092915050565b6000819050919050565b61092981610916565b811461093457600080fd5b50565b60008135905061094681610920565b92915050565b60006020828403121561096257610961610874565b5b600061097084828501610937565b91505092915050565b6000819050919050565b600061099e61099961099484610879565b610979565b610879565b9050919050565b60006109b082610983565b9050919050565b60006109c2826109a5565b9050919050565b6109d2816109b7565b82525050565b60006020820190506109ed60008301846109c9565b92915050565b6109fc81610899565b8114610a0757600080fd5b50565b600081359050610a19816109f3565b92915050565b600060208284031215610a3557610a34610874565b5b6000610a4384828501610a0a565b91505092915050565b610a5581610916565b82525050565b6000602082019050610a706000830184610a4c565b92915050565b610a7f81610899565b82525050565b6000602082019050610a9a6000830184610a76565b92915050565b600081519050610aaf81610920565b92915050565b600060208284031215610acb57610aca610874565b5b6000610ad984828501610aa0565b91505092915050565b600082825260208201905092915050565b7f6f6e6c79546f6b656e486f6c646572733a2043616c6c657220646f6573206e6f60008201527f7420686f6c6420656e6f75676820746f6b656e73000000000000000000000000602082015250565b6000610b4f603483610ae2565b9150610b5a82610af3565b604082019050919050565b60006020820190508181036000830152610b7e81610b42565b9050919050565b6000610b9082610899565b9050919050565b610ba081610b85565b8114610bab57600080fd5b50565b600081519050610bbd81610b97565b92915050565b600060208284031215610bd957610bd8610874565b5b6000610be784828501610bae565b91505092915050565b7f6164645661756c743a205661756c742077697468207468697320756e6465726c60008201527f79696e6720746f6b656e20616c72656164792061646465640000000000000000602082015250565b6000610c4c603883610ae2565b9150610c5782610bf0565b604082019050919050565b60006020820190508181036000830152610c7b81610c3f565b9050919050565b7f6164644d61726b65743a204d61726b657420616c726561647920616464656400600082015250565b6000610cb8601f83610ae2565b9150610cc382610c82565b602082019050919050565b60006020820190508181036000830152610ce781610cab565b9050919050565b7f6f6e6c794f776e65723a2043616c6c6572206973206e6f742074686520636f6e60008201527f7472616374206f776e6572000000000000000000000000000000000000000000602082015250565b6000610d4a602b83610ae2565b9150610d5582610cee565b604082019050919050565b60006020820190508181036000830152610d7981610d3d565b905091905056fea264697066735822122039ace57d4a4e2c8d067b99d5d6cefcfa0537997c7e61e2d3a4dbb9838d47a65c64736f6c634300080a0033",
  "linkReferences": {},
  "deployedLinkReferences": {}
}