{
  "contractName": "Registry",
  "abi": [
    {
      "anonymous": false,
      "inputs": [
        {
          "indexed": true,
          "internalType": "address",
          "name": "market",
          "type": "address"
        }
      ],
      "name": "MarketAdded",
      "type": "event"
    },
    {
      "anonymous": false,
      "inputs": [
        {
          "indexed": true,
          "internalType": "address",
          "name": "vault",
          "type": "address"
        }
      ],
      "name": "VaultAdded",
      "type": "event"
    },
    {
      "inputs": [
        {
          "internalType": "uint256",
          "name": "",
          "type": "uint256"
        }
      ],
      "name": "markets",
      "outputs": [
        {
          "internalType": "address",
          "name": "",
          "type": "address"
        }
      ],
      "stateMutability": "view",
      "type": "function"
    },
    {
      "inputs": [
        {
          "internalType": "address",
          "name": "",
          "type": "address"
        }
      ],
      "name": "underlying",
      "outputs": [
        {
          "internalType": "address",
          "name": "",
          "type": "address"
        }
      ],
      "stateMutability": "view",
      "type": "function"
    },
    {
      "inputs": [
        {
          "internalType": "uint256",
          "name": "",
          "type": "uint256"
        }
      ],
      "name": "vaults",
      "outputs": [
        {
          "internalType": "address",
          "name": "",
          "type": "address"
        }
      ],
      "stateMutability": "view",
      "type": "function"
    },
    {
      "inputs": [],
      "name": "marketCount",
      "outputs": [
        {
          "internalType": "uint256",
          "name": "",
          "type": "uint256"
        }
      ],
      "stateMutability": "view",
      "type": "function"
    },
    {
      "inputs": [],
      "name": "vaultCount",
      "outputs": [
        {
          "internalType": "uint256",
          "name": "",
          "type": "uint256"
        }
      ],
      "stateMutability": "view",
      "type": "function"
    },
    {
      "inputs": [
        {
          "internalType": "address",
          "name": "vault",
          "type": "address"
        }
      ],
      "name": "addVault",
      "outputs": [],
      "stateMutability": "nonpayable",
      "type": "function"
    },
    {
      "inputs": [
        {
          "internalType": "address",
          "name": "market",
          "type": "address"
        }
      ],
      "name": "addMarket",
      "outputs": [],
      "stateMutability": "nonpayable",
      "type": "function"
    }
  ],
  "bytecode": "0x608060405234801561001057600080fd5b50610839806100206000396000f3fe608060405234801561001057600080fd5b506004361061007d5760003560e01c8063a7c6a1001161005b578063a7c6a100146100ea578063b1283e7714610108578063e6919c8214610138578063ec979082146101685761007d565b8063256b5a02146100825780638c64ea4a1461009e57806393e30633146100ce575b600080fd5b61009c600480360381019061009791906105db565b610186565b005b6100b860048036038101906100b3919061063e565b6103ed565b6040516100c5919061067a565b60405180910390f35b6100e860048036038101906100e391906105db565b61042c565b005b6100f26104d5565b6040516100ff91906106a4565b60405180910390f35b610122600480360381019061011d919061063e565b6104ee565b60405161012f919061067a565b60405180910390f35b610152600480360381019061014d91906105db565b61052d565b60405161015f919061067a565b60405180910390f35b610170610560565b60405161017d91906106a4565b60405180910390f35b60008173ffffffffffffffffffffffffffffffffffffffff166338d52e0f6040518163ffffffff1660e01b8152600401602060405180830381865afa1580156101d3573d6000803e3d6000fd5b505050506040513d601f19601f820116820180604052508101906101f791906106d4565b9050600073ffffffffffffffffffffffffffffffffffffffff166000808373ffffffffffffffffffffffffffffffffffffffff1673ffffffffffffffffffffffffffffffffffffffff16815260200190815260200160002060009054906101000a900473ffffffffffffffffffffffffffffffffffffffff1673ffffffffffffffffffffffffffffffffffffffff16146102c6576040517f08c379a00000000000000000000000000000000000000000000000000000000081526004016102bd9061075e565b60405180910390fd5b6002829080600181540180825580915050600190039060005260206000200160009091909190916101000a81548173ffffffffffffffffffffffffffffffffffffffff021916908373ffffffffffffffffffffffffffffffffffffffff160217905550816000808373ffffffffffffffffffffffffffffffffffffffff1673ffffffffffffffffffffffffffffffffffffffff16815260200190815260200160002060006101000a81548173ffffffffffffffffffffffffffffffffffffffff021916908373ffffffffffffffffffffffffffffffffffffffff1602179055508173ffffffffffffffffffffffffffffffffffffffff167f7b7ef7a864d96a85497a1ed846adb39940dd6ccef678ff6ac8d55505e09b8cc460405160405180910390a25050565b600281815481106103fd57600080fd5b906000526020600020016000915054906101000a900473ffffffffffffffffffffffffffffffffffffffff1681565b6001819080600181540180825580915050600190039060005260206000200160009091909190916101000a81548173ffffffffffffffffffffffffffffffffffffffff021916908373ffffffffffffffffffffffffffffffffffffffff1602179055508073ffffffffffffffffffffffffffffffffffffffff167fbc600b1f03d316c479b49930c28e328809316458d5b5dacbb7419df5f6f8964760405160405180910390a250565b600060016002805490506104e991906107ad565b905090565b600181815481106104fe57600080fd5b906000526020600020016000915054906101000a900473ffffffffffffffffffffffffffffffffffffffff1681565b60006020528060005260406000206000915054906101000a900473ffffffffffffffffffffffffffffffffffffffff1681565b60006001808054905061057391906107ad565b905090565b600080fd5b600073ffffffffffffffffffffffffffffffffffffffff82169050919050565b60006105a88261057d565b9050919050565b6105b88161059d565b81146105c357600080fd5b50565b6000813590506105d5816105af565b92915050565b6000602082840312156105f1576105f0610578565b5b60006105ff848285016105c6565b91505092915050565b6000819050919050565b61061b81610608565b811461062657600080fd5b50565b60008135905061063881610612565b92915050565b60006020828403121561065457610653610578565b5b600061066284828501610629565b91505092915050565b6106748161059d565b82525050565b600060208201905061068f600083018461066b565b92915050565b61069e81610608565b82525050565b60006020820190506106b96000830184610695565b92915050565b6000815190506106ce816105af565b92915050565b6000602082840312156106ea576106e9610578565b5b60006106f8848285016106bf565b91505092915050565b600082825260208201905092915050565b7f5661756c7420616c726561647920616464656400000000000000000000000000600082015250565b6000610748601383610701565b915061075382610712565b602082019050919050565b600060208201905081810360008301526107778161073b565b9050919050565b7f4e487b7100000000000000000000000000000000000000000000000000000000600052601160045260246000fd5b60006107b882610608565b91506107c383610608565b9250827fffffffffffffffffffffffffffffffffffffffffffffffffffffffffffffffff038211156107f8576107f761077e565b5b82820190509291505056fea26469706673582212209e233784cf96491745a94db2c83a1b609a42d655b6f1451d9c8eb321dd55740664736f6c634300080a0033",
  "immutableReferences": {},
  "source": "// SPDX-License-Identifier: MIT\r\npragma solidity =0.8.10;\r\n\r\nimport \"./IMarket.sol\";\r\nimport \"./IVault.sol\";\r\n\r\ncontract Registry {\r\n\r\n    mapping(address => address) public underlying;\r\n    address[] public markets;\r\n    address[] public vaults;\r\n\r\n    function marketCount() external view returns (uint256) {\r\n        return markets.length + 1;\r\n    }\r\n\r\n    function vaultCount() external view returns (uint256) {\r\n        return vaults.length + 1;\r\n    }\r\n\r\n    function addVault(address vault) external {\r\n        address _underlying = IVault(vault).asset();\r\n        require(underlying[_underlying] == address(0), \"Vault already added\");\r\n\r\n        vaults.push(vault);\r\n        underlying[_underlying] = vault; // underlying to vault\r\n\r\n        emit VaultAdded(vault);\r\n    }\r\n\r\n    function addMarket(address market) external {\r\n        markets.push(market);\r\n        emit MarketAdded(market);\r\n    }\r\n\r\n    event MarketAdded(address indexed market);\r\n    event VaultAdded(address indexed vault);\r\n}\r\n",
  "sourcePath": "C:\\git\\horselink\\horse.link\\contracts\\Registry.sol",
  "compiler": {
    "name": "solc",
    "version": "0.8.10+commit.fc410830.Emscripten.clang"
  },
  "schemaVersion": "3.4.10",
  "updatedAt": "2022-09-19T05:06:17.255Z",
  "devdoc": {
    "kind": "dev",
    "methods": {},
    "version": 1
  },
  "userdoc": {
    "kind": "user",
    "methods": {},
    "version": 1
  }
}