{
  "contractName": "Vault",
  "abi": [
    {
      "inputs": [
        {
          "internalType": "address",
          "name": "underlying",
          "type": "address"
        }
      ],
      "stateMutability": "nonpayable",
      "type": "constructor"
    },
    {
      "anonymous": false,
      "inputs": [
        {
          "indexed": true,
          "internalType": "address",
          "name": "owner",
          "type": "address"
        },
        {
          "indexed": true,
          "internalType": "address",
          "name": "spender",
          "type": "address"
        },
        {
          "indexed": false,
          "internalType": "uint256",
          "name": "value",
          "type": "uint256"
        }
      ],
      "name": "Approval",
      "type": "event"
    },
    {
      "anonymous": false,
      "inputs": [
        {
          "indexed": true,
          "internalType": "address",
          "name": "who",
          "type": "address"
        },
        {
          "indexed": false,
          "internalType": "uint256",
          "name": "value",
          "type": "uint256"
        }
      ],
      "name": "Deposit",
      "type": "event"
    },
    {
      "anonymous": false,
      "inputs": [
        {
          "indexed": true,
          "internalType": "address",
          "name": "previousOwner",
          "type": "address"
        },
        {
          "indexed": true,
          "internalType": "address",
          "name": "newOwner",
          "type": "address"
        }
      ],
      "name": "OwnershipTransferred",
      "type": "event"
    },
    {
      "anonymous": false,
      "inputs": [
        {
          "indexed": true,
          "internalType": "address",
          "name": "from",
          "type": "address"
        },
        {
          "indexed": true,
          "internalType": "address",
          "name": "to",
          "type": "address"
        },
        {
          "indexed": false,
          "internalType": "uint256",
          "name": "value",
          "type": "uint256"
        }
      ],
      "name": "Transfer",
      "type": "event"
    },
    {
      "anonymous": false,
      "inputs": [
        {
          "indexed": true,
          "internalType": "address",
          "name": "who",
          "type": "address"
        },
        {
          "indexed": false,
          "internalType": "uint256",
          "name": "value",
          "type": "uint256"
        }
      ],
      "name": "Withdraw",
      "type": "event"
    },
    {
      "inputs": [],
      "name": "owner",
      "outputs": [
        {
          "internalType": "address",
          "name": "",
          "type": "address"
        }
      ],
      "stateMutability": "view",
      "type": "function"
    },
    {
      "inputs": [],
      "name": "renounceOwnership",
      "outputs": [],
      "stateMutability": "nonpayable",
      "type": "function"
    },
    {
      "inputs": [
        {
          "internalType": "address",
          "name": "newOwner",
          "type": "address"
        }
      ],
      "name": "transferOwnership",
      "outputs": [],
      "stateMutability": "nonpayable",
      "type": "function"
    },
    {
      "inputs": [],
      "name": "name",
      "outputs": [
        {
          "internalType": "string",
          "name": "",
          "type": "string"
        }
      ],
      "stateMutability": "view",
      "type": "function"
    },
    {
      "inputs": [],
      "name": "symbol",
      "outputs": [
        {
          "internalType": "string",
          "name": "",
          "type": "string"
        }
      ],
      "stateMutability": "view",
      "type": "function"
    },
    {
      "inputs": [],
      "name": "decimals",
      "outputs": [
        {
          "internalType": "uint8",
          "name": "",
          "type": "uint8"
        }
      ],
      "stateMutability": "view",
      "type": "function"
    },
    {
      "inputs": [],
      "name": "totalSupply",
      "outputs": [
        {
          "internalType": "uint256",
          "name": "",
          "type": "uint256"
        }
      ],
      "stateMutability": "view",
      "type": "function"
    },
    {
      "inputs": [
        {
          "internalType": "address",
          "name": "account",
          "type": "address"
        }
      ],
      "name": "balanceOf",
      "outputs": [
        {
          "internalType": "uint256",
          "name": "",
          "type": "uint256"
        }
      ],
      "stateMutability": "view",
      "type": "function"
    },
    {
      "inputs": [],
      "name": "getMarket",
      "outputs": [
        {
          "internalType": "address",
          "name": "",
          "type": "address"
        }
      ],
      "stateMutability": "view",
      "type": "function"
    },
    {
      "inputs": [
        {
          "internalType": "address",
          "name": "market",
          "type": "address"
        }
      ],
      "name": "setMarket",
      "outputs": [],
      "stateMutability": "nonpayable",
      "type": "function"
    },
    {
      "inputs": [],
      "name": "getPerformance",
      "outputs": [
        {
          "internalType": "uint256",
          "name": "",
          "type": "uint256"
        }
      ],
      "stateMutability": "view",
      "type": "function"
    },
    {
      "inputs": [
        {
          "internalType": "address",
          "name": "to",
          "type": "address"
        },
        {
          "internalType": "uint256",
          "name": "amount",
          "type": "uint256"
        }
      ],
      "name": "transfer",
      "outputs": [
        {
          "internalType": "bool",
          "name": "",
          "type": "bool"
        }
      ],
      "stateMutability": "nonpayable",
      "type": "function"
    },
    {
      "inputs": [
        {
          "internalType": "address",
          "name": "owner",
          "type": "address"
        },
        {
          "internalType": "address",
          "name": "spender",
          "type": "address"
        }
      ],
      "name": "allowance",
      "outputs": [
        {
          "internalType": "uint256",
          "name": "",
          "type": "uint256"
        }
      ],
      "stateMutability": "view",
      "type": "function"
    },
    {
      "inputs": [
        {
          "internalType": "address",
          "name": "spender",
          "type": "address"
        },
        {
          "internalType": "uint256",
          "name": "amount",
          "type": "uint256"
        }
      ],
      "name": "approve",
      "outputs": [
        {
          "internalType": "bool",
          "name": "",
          "type": "bool"
        }
      ],
      "stateMutability": "nonpayable",
      "type": "function"
    },
    {
      "inputs": [
        {
          "internalType": "address",
          "name": "from",
          "type": "address"
        },
        {
          "internalType": "address",
          "name": "to",
          "type": "address"
        },
        {
          "internalType": "uint256",
          "name": "amount",
          "type": "uint256"
        }
      ],
      "name": "transferFrom",
      "outputs": [
        {
          "internalType": "bool",
          "name": "",
          "type": "bool"
        }
      ],
      "stateMutability": "nonpayable",
      "type": "function"
    },
    {
      "inputs": [
        {
          "internalType": "address",
          "name": "spender",
          "type": "address"
        },
        {
          "internalType": "uint256",
          "name": "addedValue",
          "type": "uint256"
        }
      ],
      "name": "increaseAllowance",
      "outputs": [
        {
          "internalType": "bool",
          "name": "",
          "type": "bool"
        }
      ],
      "stateMutability": "nonpayable",
      "type": "function"
    },
    {
      "inputs": [
        {
          "internalType": "address",
          "name": "spender",
          "type": "address"
        },
        {
          "internalType": "uint256",
          "name": "subtractedValue",
          "type": "uint256"
        }
      ],
      "name": "decreaseAllowance",
      "outputs": [
        {
          "internalType": "bool",
          "name": "",
          "type": "bool"
        }
      ],
      "stateMutability": "nonpayable",
      "type": "function"
    },
    {
      "inputs": [],
      "name": "asset",
      "outputs": [
        {
          "internalType": "address",
          "name": "assetTokenAddress",
          "type": "address"
        }
      ],
      "stateMutability": "view",
      "type": "function"
    },
    {
      "inputs": [],
      "name": "totalAssets",
      "outputs": [
        {
          "internalType": "uint256",
          "name": "",
          "type": "uint256"
        }
      ],
      "stateMutability": "view",
      "type": "function"
    },
    {
      "inputs": [
        {
          "internalType": "uint256",
          "name": "assets",
          "type": "uint256"
        },
        {
          "internalType": "address",
          "name": "receiver",
          "type": "address"
        }
      ],
      "name": "deposit",
      "outputs": [
        {
          "internalType": "uint256",
          "name": "shares",
          "type": "uint256"
        }
      ],
      "stateMutability": "nonpayable",
      "type": "function"
    },
    {
      "inputs": [
        {
          "internalType": "address",
          "name": "owner",
          "type": "address"
        }
      ],
      "name": "maxWithdraw",
      "outputs": [
        {
          "internalType": "uint256",
          "name": "maxAssets",
          "type": "uint256"
        }
      ],
      "stateMutability": "view",
      "type": "function"
    },
    {
      "inputs": [
        {
          "internalType": "uint256",
          "name": "assets",
          "type": "uint256"
        }
      ],
      "name": "previewWithdraw",
      "outputs": [
        {
          "internalType": "uint256",
          "name": "shares",
          "type": "uint256"
        }
      ],
      "stateMutability": "view",
      "type": "function"
    },
    {
      "inputs": [],
      "name": "withdraw",
      "outputs": [],
      "stateMutability": "nonpayable",
      "type": "function"
    }
  ],
  "bytecode": "0x60c06040523480156200001157600080fd5b50604051620035243803806200352483398181016040528101906200003791906200051a565b620000576200004b6200032560201b60201c565b6200032d60201b60201c565b600073ffffffffffffffffffffffffffffffffffffffff168173ffffffffffffffffffffffffffffffffffffffff161415620000ca576040517f08c379a0000000000000000000000000000000000000000000000000000000008152600401620000c190620005ad565b60405180910390fd5b3073ffffffffffffffffffffffffffffffffffffffff1660a08173ffffffffffffffffffffffffffffffffffffffff16815250508073ffffffffffffffffffffffffffffffffffffffff1660808173ffffffffffffffffffffffffffffffffffffffff16815250508073ffffffffffffffffffffffffffffffffffffffff166395d89b416040518163ffffffff1660e01b8152600401600060405180830381865afa1580156200017e573d6000803e3d6000fd5b505050506040513d6000823e3d601f19601f82011682018060405250810190620001a9919062000758565b604051602001620001bb919062000846565b60405160208183030381529060405260069080519060200190620001e1929190620003f1565b508073ffffffffffffffffffffffffffffffffffffffff166306fdde036040518163ffffffff1660e01b8152600401600060405180830381865afa1580156200022e573d6000803e3d6000fd5b505050506040513d6000823e3d601f19601f8201168201806040525081019062000259919062000758565b6040516020016200026b9190620008bc565b6040516020818303038152906040526005908051906020019062000291929190620003f1565b508073ffffffffffffffffffffffffffffffffffffffff1663313ce5676040518163ffffffff1660e01b8152600401602060405180830381865afa158015620002de573d6000803e3d6000fd5b505050506040513d601f19601f8201168201806040525081019062000304919062000920565b600760006101000a81548160ff021916908360ff16021790555050620009b7565b600033905090565b60008060009054906101000a900473ffffffffffffffffffffffffffffffffffffffff169050816000806101000a81548173ffffffffffffffffffffffffffffffffffffffff021916908373ffffffffffffffffffffffffffffffffffffffff1602179055508173ffffffffffffffffffffffffffffffffffffffff168173ffffffffffffffffffffffffffffffffffffffff167f8be0079c531659141344cd1fd0a4f28419497f9722a3daafe3b4186f6b6457e060405160405180910390a35050565b828054620003ff9062000981565b90600052602060002090601f0160209004810192826200042357600085556200046f565b82601f106200043e57805160ff19168380011785556200046f565b828001600101855582156200046f579182015b828111156200046e57825182559160200191906001019062000451565b5b5090506200047e919062000482565b5090565b5b808211156200049d57600081600090555060010162000483565b5090565b6000604051905090565b600080fd5b600080fd5b600073ffffffffffffffffffffffffffffffffffffffff82169050919050565b6000620004e282620004b5565b9050919050565b620004f481620004d5565b81146200050057600080fd5b50565b6000815190506200051481620004e9565b92915050565b600060208284031215620005335762000532620004ab565b5b6000620005438482850162000503565b91505092915050565b600082825260208201905092915050565b7f556e6465726c79696e67206164647265737320697320696e76616c6964000000600082015250565b600062000595601d836200054c565b9150620005a2826200055d565b602082019050919050565b60006020820190508181036000830152620005c88162000586565b9050919050565b600080fd5b600080fd5b6000601f19601f8301169050919050565b7f4e487b7100000000000000000000000000000000000000000000000000000000600052604160045260246000fd5b6200062482620005d9565b810181811067ffffffffffffffff82111715620006465762000645620005ea565b5b80604052505050565b60006200065b620004a1565b905062000669828262000619565b919050565b600067ffffffffffffffff8211156200068c576200068b620005ea565b5b6200069782620005d9565b9050602081019050919050565b60005b83811015620006c4578082015181840152602081019050620006a7565b83811115620006d4576000848401525b50505050565b6000620006f1620006eb846200066e565b6200064f565b90508281526020810184848401111562000710576200070f620005d4565b5b6200071d848285620006a4565b509392505050565b600082601f8301126200073d576200073c620005cf565b5b81516200074f848260208601620006da565b91505092915050565b600060208284031215620007715762000770620004ab565b5b600082015167ffffffffffffffff811115620007925762000791620004b0565b5b620007a08482850162000725565b91505092915050565b600081905092915050565b7f484c000000000000000000000000000000000000000000000000000000000000600082015250565b6000620007ec600283620007a9565b9150620007f982620007b4565b600282019050919050565b600081519050919050565b60006200081c8262000804565b620008288185620007a9565b93506200083a818560208601620006a4565b80840191505092915050565b60006200085382620007dd565b91506200086182846200080f565b915081905092915050565b7f484c200000000000000000000000000000000000000000000000000000000000600082015250565b6000620008a4600383620007a9565b9150620008b1826200086c565b600382019050919050565b6000620008c98262000895565b9150620008d782846200080f565b915081905092915050565b600060ff82169050919050565b620008fa81620008e2565b81146200090657600080fd5b50565b6000815190506200091a81620008ef565b92915050565b600060208284031215620009395762000938620004ab565b5b6000620009498482850162000909565b91505092915050565b7f4e487b7100000000000000000000000000000000000000000000000000000000600052602260045260246000fd5b600060028204905060018216806200099a57607f821691505b60208210811415620009b157620009b062000952565b5b50919050565b60805160a051612ae562000a3f600039600081816104cc01528181610cbe015281816119f80152611c32015260008181610490015281816106680152818161082a015281816108ed01528181610ac701528181610c8101528181610db101528181611538015281816115d6015281816119bc01528181611bf60152611cb40152612ae56000f3fe608060405234801561001057600080fd5b506004361061014d5760003560e01c80636dcea85f116100c3578063a457c2d71161007c578063a457c2d714610392578063a9059cbb146103c2578063ce96cb77146103f2578063dd62ed3e14610422578063f1be167914610452578063f2fde38b146104705761014d565b80636dcea85f146102d05780636e553f65146102ec57806370a082311461031c578063715018a61461034c5780638da5cb5b1461035657806395d89b41146103745761014d565b806323b872dd1161011557806323b872dd1461020c578063313ce5671461023c57806338d52e0f1461025a57806339509351146102785780633ccfd60b146102a857806342de4e9c146102b25761014d565b806301e1d1141461015257806306fdde0314610170578063095ea7b31461018e5780630a28a477146101be57806318160ddd146101ee575b600080fd5b61015a61048c565b6040516101679190611d9c565b60405180910390f35b61017861054d565b6040516101859190611e50565b60405180910390f35b6101a860048036038101906101a39190611f01565b6105df565b6040516101b59190611f5c565b60405180910390f35b6101d860048036038101906101d39190611f77565b610602565b6040516101e59190611d9c565b60405180910390f35b6101f6610614565b6040516102039190611d9c565b60405180910390f35b61022660048036038101906102219190611fa4565b61061e565b6040516102339190611f5c565b60405180910390f35b61024461064d565b6040516102519190612013565b60405180910390f35b610262610664565b60405161026f919061203d565b60405180910390f35b610292600480360381019061028d9190611f01565b61068c565b60405161029f9190611f5c565b60405180910390f35b6102b0610736565b005b6102ba6109dc565b6040516102c79190611d9c565b60405180910390f35b6102ea60048036038101906102e59190612058565b6109eb565b005b61030660048036038101906103019190612085565b610ba9565b6040516103139190611d9c565b60405180910390f35b61033660048036038101906103319190612058565b610f5e565b6040516103439190611d9c565b60405180910390f35b610354610fa7565b005b61035e610fbb565b60405161036b919061203d565b60405180910390f35b61037c610fe4565b6040516103899190611e50565b60405180910390f35b6103ac60048036038101906103a79190611f01565b611076565b6040516103b99190611f5c565b60405180910390f35b6103dc60048036038101906103d79190611f01565b611160565b6040516103e99190611f5c565b60405180910390f35b61040c60048036038101906104079190612058565b611183565b6040516104199190611d9c565b60405180910390f35b61043c600480360381019061043791906120c5565b6111cc565b6040516104499190611d9c565b60405180910390f35b61045a611253565b604051610467919061203d565b60405180910390f35b61048a60048036038101906104859190612058565b6112dc565b005b60007f000000000000000000000000000000000000000000000000000000000000000073ffffffffffffffffffffffffffffffffffffffff166370a082317f00000000000000000000000000000000000000000000000000000000000000006040518263ffffffff1660e01b8152600401610507919061203d565b602060405180830381865afa158015610524573d6000803e3d6000fd5b505050506040513d601f19601f82011682018060405250810190610548919061211a565b905090565b60606005805461055c90612176565b80601f016020809104026020016040519081016040528092919081815260200182805461058890612176565b80156105d55780601f106105aa576101008083540402835291602001916105d5565b820191906000526020600020905b8154815290600101906020018083116105b857829003601f168201915b5050505050905090565b6000806105ea611360565b90506105f7818585611368565b600191505092915050565b600061060d82611533565b9050919050565b6000600454905090565b600080610629611360565b90506106368582856116bd565b610641858585611749565b60019150509392505050565b6000600760009054906101000a900460ff16905090565b60007f0000000000000000000000000000000000000000000000000000000000000000905090565b600080610697611360565b905061072b818585600260008673ffffffffffffffffffffffffffffffffffffffff1673ffffffffffffffffffffffffffffffffffffffff16815260200190815260200160002060008973ffffffffffffffffffffffffffffffffffffffff1673ffffffffffffffffffffffffffffffffffffffff1681526020019081526020016000205461072691906121d7565b611368565b600191505092915050565b6000600160003373ffffffffffffffffffffffffffffffffffffffff1673ffffffffffffffffffffffffffffffffffffffff168152602001908152602001600020549050600081116107bd576040517f08c379a00000000000000000000000000000000000000000000000000000000081526004016107b490612279565b60405180910390fd5b60006107c882611533565b905081600460008282546107dc9190612299565b925050819055506000600160003373ffffffffffffffffffffffffffffffffffffffff1673ffffffffffffffffffffffffffffffffffffffff168152602001908152602001600020819055507f000000000000000000000000000000000000000000000000000000000000000073ffffffffffffffffffffffffffffffffffffffff1663095ea7b3600760019054906101000a900473ffffffffffffffffffffffffffffffffffffffff166004546040518363ffffffff1660e01b81526004016108a79291906122cd565b6020604051808303816000875af11580156108c6573d6000803e3d6000fd5b505050506040513d601f19601f820116820180604052508101906108ea9190612322565b507f000000000000000000000000000000000000000000000000000000000000000073ffffffffffffffffffffffffffffffffffffffff1663a9059cbb33836040518363ffffffff1660e01b81526004016109469291906122cd565b6020604051808303816000875af1158015610965573d6000803e3d6000fd5b505050506040513d601f19601f820116820180604052508101906109899190612322565b503373ffffffffffffffffffffffffffffffffffffffff167f884edad9ce6fa2440d8a54cc123490eb96d2768479d49ff9c7366125a9424364836040516109d09190611d9c565b60405180910390a25050565b60006109e66119b7565b905090565b6109f3611aaf565b600073ffffffffffffffffffffffffffffffffffffffff16600760019054906101000a900473ffffffffffffffffffffffffffffffffffffffff1673ffffffffffffffffffffffffffffffffffffffff1614610a84576040517f08c379a0000000000000000000000000000000000000000000000000000000008152600401610a7b9061239b565b60405180910390fd5b80600760016101000a81548173ffffffffffffffffffffffffffffffffffffffff021916908373ffffffffffffffffffffffffffffffffffffffff1602179055507f000000000000000000000000000000000000000000000000000000000000000073ffffffffffffffffffffffffffffffffffffffff1663095ea7b3600760019054906101000a900473ffffffffffffffffffffffffffffffffffffffff167fffffffffffffffffffffffffffffffffffffffffffffffffffffffffffffffff6040518363ffffffff1660e01b8152600401610b629291906122cd565b6020604051808303816000875af1158015610b81573d6000803e3d6000fd5b505050506040513d601f19601f82011682018060405250810190610ba59190612322565b5050565b6000808311610bed576040517f08c379a0000000000000000000000000000000000000000000000000000000008152600401610be490612407565b60405180910390fd5b600073ffffffffffffffffffffffffffffffffffffffff16600760019054906101000a900473ffffffffffffffffffffffffffffffffffffffff1673ffffffffffffffffffffffffffffffffffffffff161415610c7f576040517f08c379a0000000000000000000000000000000000000000000000000000000008152600401610c7690612499565b60405180910390fd5b7f000000000000000000000000000000000000000000000000000000000000000073ffffffffffffffffffffffffffffffffffffffff166323b872dd337f0000000000000000000000000000000000000000000000000000000000000000866040518463ffffffff1660e01b8152600401610cfc939291906124b9565b6020604051808303816000875af1158015610d1b573d6000803e3d6000fd5b505050506040513d601f19601f82011682018060405250810190610d3f9190612322565b5082600160008473ffffffffffffffffffffffffffffffffffffffff1673ffffffffffffffffffffffffffffffffffffffff1681526020019081526020016000206000828254610d8f91906121d7565b925050819055508260046000828254610da891906121d7565b925050819055507f000000000000000000000000000000000000000000000000000000000000000073ffffffffffffffffffffffffffffffffffffffff1663095ea7b3600760019054906101000a900473ffffffffffffffffffffffffffffffffffffffff166004546040518363ffffffff1660e01b8152600401610e2e9291906122cd565b6020604051808303816000875af1158015610e4d573d6000803e3d6000fd5b505050506040513d601f19601f82011682018060405250810190610e719190612322565b5082600360008473ffffffffffffffffffffffffffffffffffffffff1673ffffffffffffffffffffffffffffffffffffffff1681526020019081526020016000206000828254610ec191906121d7565b925050819055508173ffffffffffffffffffffffffffffffffffffffff167fe1fffcc4923d04b559f4d29a8bfc6cda04eb5b0d3c460751c2402c5c5cc9109c84604051610f0e9190611d9c565b60405180910390a2600160008373ffffffffffffffffffffffffffffffffffffffff1673ffffffffffffffffffffffffffffffffffffffff16815260200190815260200160002054905092915050565b6000600160008373ffffffffffffffffffffffffffffffffffffffff1673ffffffffffffffffffffffffffffffffffffffff168152602001908152602001600020549050919050565b610faf611aaf565b610fb96000611b2d565b565b60008060009054906101000a900473ffffffffffffffffffffffffffffffffffffffff16905090565b606060068054610ff390612176565b80601f016020809104026020016040519081016040528092919081815260200182805461101f90612176565b801561106c5780601f106110415761010080835404028352916020019161106c565b820191906000526020600020905b81548152906001019060200180831161104f57829003601f168201915b5050505050905090565b600080611081611360565b90506000600260008373ffffffffffffffffffffffffffffffffffffffff1673ffffffffffffffffffffffffffffffffffffffff16815260200190815260200160002060008673ffffffffffffffffffffffffffffffffffffffff1673ffffffffffffffffffffffffffffffffffffffff16815260200190815260200160002054905083811015611147576040517f08c379a000000000000000000000000000000000000000000000000000000000815260040161113e90612562565b60405180910390fd5b6111548286868403611368565b60019250505092915050565b60008061116b611360565b9050611178818585611749565b600191505092915050565b6000600160008373ffffffffffffffffffffffffffffffffffffffff1673ffffffffffffffffffffffffffffffffffffffff168152602001908152602001600020549050919050565b6000600260008473ffffffffffffffffffffffffffffffffffffffff1673ffffffffffffffffffffffffffffffffffffffff16815260200190815260200160002060008373ffffffffffffffffffffffffffffffffffffffff1673ffffffffffffffffffffffffffffffffffffffff16815260200190815260200160002054905092915050565b60008073ffffffffffffffffffffffffffffffffffffffff16600760019054906101000a900473ffffffffffffffffffffffffffffffffffffffff1673ffffffffffffffffffffffffffffffffffffffff1614156112b4576112b3612582565b5b600760019054906101000a900473ffffffffffffffffffffffffffffffffffffffff16905090565b6112e4611aaf565b600073ffffffffffffffffffffffffffffffffffffffff168173ffffffffffffffffffffffffffffffffffffffff161415611354576040517f08c379a000000000000000000000000000000000000000000000000000000000815260040161134b90612623565b60405180910390fd5b61135d81611b2d565b50565b600033905090565b600073ffffffffffffffffffffffffffffffffffffffff168373ffffffffffffffffffffffffffffffffffffffff1614156113d8576040517f08c379a00000000000000000000000000000000000000000000000000000000081526004016113cf906126b5565b60405180910390fd5b600073ffffffffffffffffffffffffffffffffffffffff168273ffffffffffffffffffffffffffffffffffffffff161415611448576040517f08c379a000000000000000000000000000000000000000000000000000000000815260040161143f90612747565b60405180910390fd5b80600260008573ffffffffffffffffffffffffffffffffffffffff1673ffffffffffffffffffffffffffffffffffffffff16815260200190815260200160002060008473ffffffffffffffffffffffffffffffffffffffff1673ffffffffffffffffffffffffffffffffffffffff168152602001908152602001600020819055508173ffffffffffffffffffffffffffffffffffffffff168373ffffffffffffffffffffffffffffffffffffffff167f8c5be1e5ebec7d5bd14f71427d1e84f3dd0314c0f7b2291e5b200ac8c7c3b925836040516115269190611d9c565b60405180910390a3505050565b6000807f000000000000000000000000000000000000000000000000000000000000000073ffffffffffffffffffffffffffffffffffffffff166370a08231306040518263ffffffff1660e01b815260040161158f919061203d565b602060405180830381865afa1580156115ac573d6000803e3d6000fd5b505050506040513d601f19601f820116820180604052508101906115d0919061211a565b905060007f000000000000000000000000000000000000000000000000000000000000000073ffffffffffffffffffffffffffffffffffffffff166370a08231600760019054906101000a900473ffffffffffffffffffffffffffffffffffffffff166040518263ffffffff1660e01b815260040161164f919061203d565b602060405180830381865afa15801561166c573d6000803e3d6000fd5b505050506040513d601f19601f82011682018060405250810190611690919061211a565b9050808261169e91906121d7565b82856116aa9190612767565b6116b491906127f0565b92505050919050565b60006116c984846111cc565b90507fffffffffffffffffffffffffffffffffffffffffffffffffffffffffffffffff81146117435781811015611735576040517f08c379a000000000000000000000000000000000000000000000000000000000815260040161172c9061286d565b60405180910390fd5b6117428484848403611368565b5b50505050565b600073ffffffffffffffffffffffffffffffffffffffff168373ffffffffffffffffffffffffffffffffffffffff1614156117b9576040517f08c379a00000000000000000000000000000000000000000000000000000000081526004016117b0906128ff565b60405180910390fd5b600073ffffffffffffffffffffffffffffffffffffffff168273ffffffffffffffffffffffffffffffffffffffff161415611829576040517f08c379a000000000000000000000000000000000000000000000000000000000815260040161182090612991565b60405180910390fd5b6000600160008573ffffffffffffffffffffffffffffffffffffffff1673ffffffffffffffffffffffffffffffffffffffff168152602001908152602001600020549050818110156118b0576040517f08c379a00000000000000000000000000000000000000000000000000000000081526004016118a790612a23565b60405180910390fd5b818103600160008673ffffffffffffffffffffffffffffffffffffffff1673ffffffffffffffffffffffffffffffffffffffff1681526020019081526020016000208190555081600160008573ffffffffffffffffffffffffffffffffffffffff1673ffffffffffffffffffffffffffffffffffffffff168152602001908152602001600020600082825461194591906121d7565b925050819055508273ffffffffffffffffffffffffffffffffffffffff168473ffffffffffffffffffffffffffffffffffffffff167fddf252ad1be2c89b69c2b068fc378daa952ba7f163c4a11628f55a4df523b3ef846040516119a99190611d9c565b60405180910390a350505050565b6000807f000000000000000000000000000000000000000000000000000000000000000073ffffffffffffffffffffffffffffffffffffffff166370a082317f00000000000000000000000000000000000000000000000000000000000000006040518263ffffffff1660e01b8152600401611a33919061203d565b602060405180830381865afa158015611a50573d6000803e3d6000fd5b505050506040513d601f19601f82011682018060405250810190611a74919061211a565b90506000811115611aa657606481611a8a611bf1565b611a9491906127f0565b611a9e9190612767565b915050611aac565b60009150505b90565b611ab7611360565b73ffffffffffffffffffffffffffffffffffffffff16611ad5610fbb565b73ffffffffffffffffffffffffffffffffffffffff1614611b2b576040517f08c379a0000000000000000000000000000000000000000000000000000000008152600401611b2290612a8f565b60405180910390fd5b565b60008060009054906101000a900473ffffffffffffffffffffffffffffffffffffffff169050816000806101000a81548173ffffffffffffffffffffffffffffffffffffffff021916908373ffffffffffffffffffffffffffffffffffffffff1602179055508173ffffffffffffffffffffffffffffffffffffffff168173ffffffffffffffffffffffffffffffffffffffff167f8be0079c531659141344cd1fd0a4f28419497f9722a3daafe3b4186f6b6457e060405160405180910390a35050565b6000807f000000000000000000000000000000000000000000000000000000000000000073ffffffffffffffffffffffffffffffffffffffff166370a082317f00000000000000000000000000000000000000000000000000000000000000006040518263ffffffff1660e01b8152600401611c6d919061203d565b602060405180830381865afa158015611c8a573d6000803e3d6000fd5b505050506040513d601f19601f82011682018060405250810190611cae919061211a565b905060007f000000000000000000000000000000000000000000000000000000000000000073ffffffffffffffffffffffffffffffffffffffff166370a08231600760019054906101000a900473ffffffffffffffffffffffffffffffffffffffff166040518263ffffffff1660e01b8152600401611d2d919061203d565b602060405180830381865afa158015611d4a573d6000803e3d6000fd5b505050506040513d601f19601f82011682018060405250810190611d6e919061211a565b90508082611d7c9190612299565b9250505090565b6000819050919050565b611d9681611d83565b82525050565b6000602082019050611db16000830184611d8d565b92915050565b600081519050919050565b600082825260208201905092915050565b60005b83811015611df1578082015181840152602081019050611dd6565b83811115611e00576000848401525b50505050565b6000601f19601f8301169050919050565b6000611e2282611db7565b611e2c8185611dc2565b9350611e3c818560208601611dd3565b611e4581611e06565b840191505092915050565b60006020820190508181036000830152611e6a8184611e17565b905092915050565b600080fd5b600073ffffffffffffffffffffffffffffffffffffffff82169050919050565b6000611ea282611e77565b9050919050565b611eb281611e97565b8114611ebd57600080fd5b50565b600081359050611ecf81611ea9565b92915050565b611ede81611d83565b8114611ee957600080fd5b50565b600081359050611efb81611ed5565b92915050565b60008060408385031215611f1857611f17611e72565b5b6000611f2685828601611ec0565b9250506020611f3785828601611eec565b9150509250929050565b60008115159050919050565b611f5681611f41565b82525050565b6000602082019050611f716000830184611f4d565b92915050565b600060208284031215611f8d57611f8c611e72565b5b6000611f9b84828501611eec565b91505092915050565b600080600060608486031215611fbd57611fbc611e72565b5b6000611fcb86828701611ec0565b9350506020611fdc86828701611ec0565b9250506040611fed86828701611eec565b9150509250925092565b600060ff82169050919050565b61200d81611ff7565b82525050565b60006020820190506120286000830184612004565b92915050565b61203781611e97565b82525050565b6000602082019050612052600083018461202e565b92915050565b60006020828403121561206e5761206d611e72565b5b600061207c84828501611ec0565b91505092915050565b6000806040838503121561209c5761209b611e72565b5b60006120aa85828601611eec565b92505060206120bb85828601611ec0565b9150509250929050565b600080604083850312156120dc576120db611e72565b5b60006120ea85828601611ec0565b92505060206120fb85828601611ec0565b9150509250929050565b60008151905061211481611ed5565b92915050565b6000602082840312156121305761212f611e72565b5b600061213e84828501612105565b91505092915050565b7f4e487b7100000000000000000000000000000000000000000000000000000000600052602260045260246000fd5b6000600282049050600182168061218e57607f821691505b602082108114156121a2576121a1612147565b5b50919050565b7f4e487b7100000000000000000000000000000000000000000000000000000000600052601160045260246000fd5b60006121e282611d83565b91506121ed83611d83565b9250827fffffffffffffffffffffffffffffffffffffffffffffffffffffffffffffffff03821115612222576122216121a8565b5b828201905092915050565b7f596f752068617665206e6f20706f736974696f6e20746f206578697400000000600082015250565b6000612263601c83611dc2565b915061226e8261222d565b602082019050919050565b6000602082019050818103600083015261229281612256565b9050919050565b60006122a482611d83565b91506122af83611d83565b9250828210156122c2576122c16121a8565b5b828203905092915050565b60006040820190506122e2600083018561202e565b6122ef6020830184611d8d565b9392505050565b6122ff81611f41565b811461230a57600080fd5b50565b60008151905061231c816122f6565b92915050565b60006020828403121561233857612337611e72565b5b60006123468482850161230d565b91505092915050565b7f4d61726b657420616c7265616479207365740000000000000000000000000000600082015250565b6000612385601283611dc2565b91506123908261234f565b602082019050919050565b600060208201905081810360008301526123b481612378565b9050919050565b7f56616c7565206d7573742062652067726561746572207468616e203000000000600082015250565b60006123f1601c83611dc2565b91506123fc826123bb565b602082019050919050565b60006020820190508181036000830152612420816123e4565b9050919050565b7f4465706f73697473206e6f7420616c6c6f77656420756e74696c206d61726b6560008201527f7420697320736574000000000000000000000000000000000000000000000000602082015250565b6000612483602883611dc2565b915061248e82612427565b604082019050919050565b600060208201905081810360008301526124b281612476565b9050919050565b60006060820190506124ce600083018661202e565b6124db602083018561202e565b6124e86040830184611d8d565b949350505050565b7f45524332303a2064656372656173656420616c6c6f77616e63652062656c6f7760008201527f207a65726f000000000000000000000000000000000000000000000000000000602082015250565b600061254c602583611dc2565b9150612557826124f0565b604082019050919050565b6000602082019050818103600083015261257b8161253f565b9050919050565b7f4e487b7100000000000000000000000000000000000000000000000000000000600052600160045260246000fd5b7f4f776e61626c653a206e6577206f776e657220697320746865207a65726f206160008201527f6464726573730000000000000000000000000000000000000000000000000000602082015250565b600061260d602683611dc2565b9150612618826125b1565b604082019050919050565b6000602082019050818103600083015261263c81612600565b9050919050565b7f45524332303a20617070726f76652066726f6d20746865207a65726f2061646460008201527f7265737300000000000000000000000000000000000000000000000000000000602082015250565b600061269f602483611dc2565b91506126aa82612643565b604082019050919050565b600060208201905081810360008301526126ce81612692565b9050919050565b7f45524332303a20617070726f766520746f20746865207a65726f20616464726560008201527f7373000000000000000000000000000000000000000000000000000000000000602082015250565b6000612731602283611dc2565b915061273c826126d5565b604082019050919050565b6000602082019050818103600083015261276081612724565b9050919050565b600061277282611d83565b915061277d83611d83565b9250817fffffffffffffffffffffffffffffffffffffffffffffffffffffffffffffffff04831182151516156127b6576127b56121a8565b5b828202905092915050565b7f4e487b7100000000000000000000000000000000000000000000000000000000600052601260045260246000fd5b60006127fb82611d83565b915061280683611d83565b925082612816576128156127c1565b5b828204905092915050565b7f45524332303a20696e73756666696369656e7420616c6c6f77616e6365000000600082015250565b6000612857601d83611dc2565b915061286282612821565b602082019050919050565b600060208201905081810360008301526128868161284a565b9050919050565b7f45524332303a207472616e736665722066726f6d20746865207a65726f20616460008201527f6472657373000000000000000000000000000000000000000000000000000000602082015250565b60006128e9602583611dc2565b91506128f48261288d565b604082019050919050565b60006020820190508181036000830152612918816128dc565b9050919050565b7f45524332303a207472616e7366657220746f20746865207a65726f206164647260008201527f6573730000000000000000000000000000000000000000000000000000000000602082015250565b600061297b602383611dc2565b91506129868261291f565b604082019050919050565b600060208201905081810360008301526129aa8161296e565b9050919050565b7f45524332303a207472616e7366657220616d6f756e742065786365656473206260008201527f616c616e63650000000000000000000000000000000000000000000000000000602082015250565b6000612a0d602683611dc2565b9150612a18826129b1565b604082019050919050565b60006020820190508181036000830152612a3c81612a00565b9050919050565b7f4f776e61626c653a2063616c6c6572206973206e6f7420746865206f776e6572600082015250565b6000612a79602083611dc2565b9150612a8482612a43565b602082019050919050565b60006020820190508181036000830152612aa881612a6c565b905091905056fea2646970667358221220aa22d7c317b4c6022ad3d056e403ee09fefd97c070690cc08004594df2b25bbb64736f6c634300080a0033",
  "immutableReferences": {
    "8616": [
      {
        "length": 32,
        "start": 1168
      },
      {
        "length": 32,
        "start": 1640
      },
      {
        "length": 32,
        "start": 2090
      },
      {
        "length": 32,
        "start": 2285
      },
      {
        "length": 32,
        "start": 2759
      },
      {
        "length": 32,
        "start": 3201
      },
      {
        "length": 32,
        "start": 3505
      },
      {
        "length": 32,
        "start": 5432
      },
      {
        "length": 32,
        "start": 5590
      },
      {
        "length": 32,
        "start": 6588
      },
      {
        "length": 32,
        "start": 7158
      },
      {
        "length": 32,
        "start": 7348
      }
    ],
    "8618": [
      {
        "length": 32,
        "start": 1228
      },
      {
        "length": 32,
        "start": 3262
      },
      {
        "length": 32,
        "start": 6648
      },
      {
        "length": 32,
        "start": 7218
      }
    ]
  },
  "source": "// SPDX-License-Identifier: MIT\r\npragma solidity =0.8.10;\r\n\r\nimport \"@openzeppelin/contracts/access/Ownable.sol\";\r\nimport \"@openzeppelin/contracts/token/ERC20/ERC20.sol\";\r\nimport \"@openzeppelin/contracts/token/ERC20/IERC20.sol\";\r\nimport \"./IBurnable.sol\";\r\nimport \"./IMarket.sol\";\r\nimport \"./IMintable.sol\";\r\nimport \"./IVault.sol\";\r\n\r\nstruct Reward {\r\n    uint256 balance;\r\n    uint256 start;\r\n}\r\n\r\ncontract Vault is Ownable, IERC20, IVault {\r\n    // ERC20\r\n    mapping(address => uint256) private _balances;\r\n    mapping(address => mapping(address => uint256)) private _allowances;\r\n\r\n    mapping(address => uint256) private _shares;\r\n\r\n    uint256 private _totalSupply;\r\n    string private _name;\r\n    string private _symbol;\r\n    uint8 private _decimals;\r\n\r\n    address private immutable _underlying;\r\n    address private immutable _self;\r\n\r\n    uint256 private constant PRECISSION = 1_000;\r\n    address private _market;\r\n\r\n    function name() public view returns (string memory) {\r\n        return _name;\r\n    }\r\n\r\n    function symbol() public view returns (string memory) {\r\n        return _symbol;\r\n    }\r\n\r\n    function decimals() public view returns (uint8) {\r\n        return _decimals;\r\n    }\r\n\r\n    function totalSupply() public view returns (uint256) {\r\n        return _totalSupply;\r\n    }\r\n\r\n    function balanceOf(address account) public view returns (uint256) {\r\n        return _balances[account];\r\n    }\r\n\r\n    function getMarket() external view returns (address) {\r\n        assert(_market != address(0));\r\n        return _market;\r\n    }\r\n\r\n    function setMarket(address market) public onlyOwner() {\r\n        require(_market == address(0), \"Market already set\");\r\n\r\n        // could do some checks here\r\n        // require(IMarket(_market).getTarget() < 200, \"Market target is too high\");\r\n        _market = market;\r\n\r\n        IERC20(_underlying).approve(_market, type(uint256).max);\r\n    }\r\n\r\n    function getPerformance() external view returns (uint256) {\r\n        return _getPerformance();\r\n    }\r\n\r\n    function _getPerformance() private view returns (uint256) {\r\n        uint256 underlyingBalance = IERC20(_underlying).balanceOf(_self);\r\n\r\n        if (underlyingBalance > 0)\r\n            return (_totalAssets() / underlyingBalance) * 100;\r\n\r\n        return 0;\r\n    }\r\n\r\n    // function getInPlay() external view returns (uint256) {\r\n    //     return _getInPlay();\r\n    // }\r\n\r\n    // function _getInPlay() private view returns (uint256) {        \r\n    //     return IERC20(_underlying).balanceOf(_market);\r\n    // }\r\n\r\n    function _totalAssets() private view returns (uint256) {\r\n        uint256 underlyingBalance = IERC20(_underlying).balanceOf(_self);\r\n        uint256 inPlay = IERC20(_underlying).balanceOf(_market);\r\n\r\n        return underlyingBalance - inPlay;\r\n    }\r\n\r\n    constructor(address underlying) {\r\n        require(underlying != address(0), \"Underlying address is invalid\");\r\n\r\n        _self = address(this);\r\n        _underlying = underlying;\r\n        \r\n        _symbol = string(abi.encodePacked(\"HL\", ERC20(underlying).symbol()));\r\n        _name = string(abi.encodePacked(\"HL \", ERC20(underlying).name()));\r\n        _decimals = ERC20(underlying).decimals();\r\n    }\r\n\r\n    function transfer(address to, uint256 amount) public returns (bool) {\r\n        address owner = _msgSender();\r\n        _transfer(owner, to, amount);\r\n        return true;\r\n    }\r\n\r\n    function allowance(address owner, address spender) public view returns (uint256) {\r\n        return _allowances[owner][spender];\r\n    }\r\n\r\n    function approve(address spender, uint256 amount) public returns (bool) {\r\n        address owner = _msgSender();\r\n        _approve(owner, spender, amount);\r\n        return true;\r\n    }\r\n\r\n    function transferFrom(address from, address to, uint256 amount) public returns (bool) {\r\n        address spender = _msgSender();\r\n        _spendAllowance(from, spender, amount);\r\n        _transfer(from, to, amount);\r\n        return true;\r\n    }\r\n\r\n    function increaseAllowance(address spender, uint256 addedValue) public virtual returns (bool) {\r\n        address owner = _msgSender();\r\n        _approve(owner, spender, _allowances[owner][spender] + addedValue);\r\n        return true;\r\n    }\r\n\r\n    function decreaseAllowance(address spender, uint256 subtractedValue) public virtual returns (bool) {\r\n        address owner = _msgSender();\r\n        uint256 currentAllowance = _allowances[owner][spender];\r\n        require(currentAllowance >= subtractedValue, \"ERC20: decreased allowance below zero\");\r\n        unchecked {\r\n            _approve(owner, spender, currentAllowance - subtractedValue);\r\n        }\r\n\r\n        return true;\r\n    }\r\n\r\n    // IERC4626\r\n    function asset() external view returns (address assetTokenAddress) {\r\n        return _underlying;\r\n    }\r\n\r\n    function totalAssets() external view returns (uint256) {\r\n        return IERC20(_underlying).balanceOf(_self);\r\n    }\r\n\r\n    // Add underlying tokens to the pool\r\n    function deposit(uint256 assets, address receiver) external returns (uint256 shares) {\r\n        require(assets > 0, \"Value must be greater than 0\");\r\n        require(_market != address(0), \"Deposits not allowed until market is set\"); // make this a modifier\r\n\r\n        IERC20(_underlying).transferFrom(msg.sender, _self, assets);\r\n\r\n        _balances[receiver] += assets;\r\n        _totalSupply += assets;\r\n\r\n        IERC20(_underlying).approve(_market, _totalSupply);\r\n\r\n        // todo: mint LP token\r\n        _shares[receiver] += assets;\r\n\r\n        emit Deposit(receiver, assets);\r\n        shares = _balances[receiver];\r\n    }\r\n\r\n    function maxWithdraw(address owner) external view returns (uint256 maxAssets) {\r\n        maxAssets = _balances[owner];\r\n    }\r\n\r\n    function previewWithdraw(uint256 assets) external view returns (uint256 shares) {\r\n        shares = _previewWithdraw(assets);\r\n    }\r\n\r\n    function _previewWithdraw(uint256 assets) private view returns (uint256) {\r\n        uint256 underlyingBalance = IERC20(_underlying).balanceOf(address(this));\r\n        uint256 inPlay = IERC20(_underlying).balanceOf(_market);\r\n\r\n        return assets * underlyingBalance / (underlyingBalance + inPlay);\r\n    }\r\n\r\n    // Exit your position\r\n    function withdraw() external {\r\n        uint256 balance = _balances[msg.sender];\r\n        require(balance > 0, \"You have no position to exit\");\r\n\r\n        uint256 amount = _previewWithdraw(balance);\r\n        _totalSupply -= balance;\r\n        _balances[msg.sender] = 0;\r\n        \r\n        IERC20(_underlying).approve(_market, _totalSupply);\r\n        IERC20(_underlying).transfer(msg.sender, amount);\r\n        // decreaseAllowance(_market, amount);\r\n\r\n        emit Withdraw(msg.sender, balance);\r\n    }\r\n\r\n    function _transfer(address from, address to,uint256 amount) internal {\r\n        require(from != address(0), \"ERC20: transfer from the zero address\");\r\n        require(to != address(0), \"ERC20: transfer to the zero address\");\r\n\r\n        uint256 fromBalance = _balances[from];\r\n        require(fromBalance >= amount, \"ERC20: transfer amount exceeds balance\");\r\n        unchecked {\r\n            _balances[from] = fromBalance - amount;\r\n        }\r\n        _balances[to] += amount;\r\n\r\n        emit Transfer(from, to, amount);\r\n    }\r\n\r\n    function _approve(address owner, address spender, uint256 amount) internal {\r\n        require(owner != address(0), \"ERC20: approve from the zero address\");\r\n        require(spender != address(0), \"ERC20: approve to the zero address\");\r\n\r\n        _allowances[owner][spender] = amount;\r\n        emit Approval(owner, spender, amount);\r\n    }\r\n\r\n    function _spendAllowance(address owner, address spender, uint256 amount) internal {\r\n        uint256 currentAllowance = allowance(owner, spender);\r\n        if (currentAllowance != type(uint256).max) {\r\n            require(currentAllowance >= amount, \"ERC20: insufficient allowance\");\r\n            unchecked {\r\n                _approve(owner, spender, currentAllowance - amount);\r\n            }\r\n        }\r\n    }\r\n\r\n    modifier onlyMarket() {\r\n        require(_market != address(0), \"Market not set\");\r\n        require(msg.sender == _market, \"Only the market can call this function\");\r\n        _;\r\n    }\r\n}",
  "sourcePath": "C:\\git\\horselink\\horse.link\\contracts\\Vault.sol",
  "compiler": {
    "name": "solc",
    "version": "0.8.10+commit.fc410830.Emscripten.clang"
  },
  "schemaVersion": "3.4.10",
  "updatedAt": "2022-09-19T05:06:48.141Z",
  "devdoc": {
    "kind": "dev",
    "methods": {
      "allowance(address,address)": {
        "details": "Returns the remaining number of tokens that `spender` will be allowed to spend on behalf of `owner` through {transferFrom}. This is zero by default. This value changes when {approve} or {transferFrom} are called."
      },
      "approve(address,uint256)": {
        "details": "Sets `amount` as the allowance of `spender` over the caller's tokens. Returns a boolean value indicating whether the operation succeeded. IMPORTANT: Beware that changing an allowance with this method brings the risk that someone may use both the old and the new allowance by unfortunate transaction ordering. One possible solution to mitigate this race condition is to first reduce the spender's allowance to 0 and set the desired value afterwards: https://github.com/ethereum/EIPs/issues/20#issuecomment-263524729 Emits an {Approval} event."
      },
      "balanceOf(address)": {
        "details": "Returns the amount of tokens owned by `account`."
      },
      "owner()": {
        "details": "Returns the address of the current owner."
      },
      "renounceOwnership()": {
        "details": "Leaves the contract without owner. It will not be possible to call `onlyOwner` functions anymore. Can only be called by the current owner. NOTE: Renouncing ownership will leave the contract without an owner, thereby removing any functionality that is only available to the owner."
      },
      "totalSupply()": {
        "details": "Returns the amount of tokens in existence."
      },
      "transfer(address,uint256)": {
        "details": "Moves `amount` tokens from the caller's account to `to`. Returns a boolean value indicating whether the operation succeeded. Emits a {Transfer} event."
      },
      "transferFrom(address,address,uint256)": {
        "details": "Moves `amount` tokens from `from` to `to` using the allowance mechanism. `amount` is then deducted from the caller's allowance. Returns a boolean value indicating whether the operation succeeded. Emits a {Transfer} event."
      },
      "transferOwnership(address)": {
        "details": "Transfers ownership of the contract to a new account (`newOwner`). Can only be called by the current owner."
      }
    },
    "version": 1
  },
  "userdoc": {
    "kind": "user",
    "methods": {},
    "version": 1
  }
}