{
  "contractName": "ERC721",
  "abi": [
    {
      "inputs": [],
      "stateMutability": "nonpayable",
      "type": "constructor"
    },
    {
      "anonymous": false,
      "inputs": [
        {
          "indexed": true,
          "internalType": "address",
          "name": "owner",
          "type": "address"
        },
        {
          "indexed": true,
          "internalType": "address",
          "name": "approved",
          "type": "address"
        },
        {
          "indexed": true,
          "internalType": "uint256",
          "name": "tokenId",
          "type": "uint256"
        }
      ],
      "name": "Approval",
      "type": "event"
    },
    {
      "anonymous": false,
      "inputs": [
        {
          "indexed": true,
          "internalType": "address",
          "name": "owner",
          "type": "address"
        },
        {
          "indexed": true,
          "internalType": "address",
          "name": "operator",
          "type": "address"
        },
        {
          "indexed": false,
          "internalType": "bool",
          "name": "approved",
          "type": "bool"
        }
      ],
      "name": "ApprovalForAll",
      "type": "event"
    },
    {
      "anonymous": false,
      "inputs": [
        {
          "indexed": true,
          "internalType": "address",
          "name": "previousOwner",
          "type": "address"
        },
        {
          "indexed": true,
          "internalType": "address",
          "name": "newOwner",
          "type": "address"
        }
      ],
      "name": "OwnershipTransferred",
      "type": "event"
    },
    {
      "anonymous": false,
      "inputs": [
        {
          "indexed": true,
          "internalType": "address",
          "name": "from",
          "type": "address"
        },
        {
          "indexed": true,
          "internalType": "address",
          "name": "to",
          "type": "address"
        },
        {
          "indexed": true,
          "internalType": "uint256",
          "name": "tokenId",
          "type": "uint256"
        }
      ],
      "name": "Transfer",
      "type": "event"
    },
    {
      "inputs": [],
      "name": "owner",
      "outputs": [
        {
          "internalType": "address",
          "name": "",
          "type": "address"
        }
      ],
      "stateMutability": "view",
      "type": "function"
    },
    {
      "inputs": [],
      "name": "renounceOwnership",
      "outputs": [],
      "stateMutability": "nonpayable",
      "type": "function"
    },
    {
      "inputs": [
        {
          "internalType": "address",
          "name": "newOwner",
          "type": "address"
        }
      ],
      "name": "transferOwnership",
      "outputs": [],
      "stateMutability": "nonpayable",
      "type": "function"
    },
    {
      "inputs": [
        {
          "internalType": "bytes32",
          "name": "name",
          "type": "bytes32"
        }
      ],
      "name": "mint",
      "outputs": [
        {
          "internalType": "uint256",
          "name": "",
          "type": "uint256"
        }
      ],
      "stateMutability": "nonpayable",
      "type": "function"
    },
    {
      "inputs": [
        {
          "internalType": "bytes32",
          "name": "name",
          "type": "bytes32"
        },
        {
          "internalType": "address",
          "name": "owner",
          "type": "address"
        }
      ],
      "name": "mintTo",
      "outputs": [
        {
          "internalType": "uint256",
          "name": "",
          "type": "uint256"
        }
      ],
      "stateMutability": "nonpayable",
      "type": "function"
    },
    {
      "inputs": [
        {
          "internalType": "bytes4",
          "name": "interfaceId",
          "type": "bytes4"
        }
      ],
      "name": "supportsInterface",
      "outputs": [
        {
          "internalType": "bool",
          "name": "",
          "type": "bool"
        }
      ],
      "stateMutability": "view",
      "type": "function"
    },
    {
      "inputs": [
        {
          "internalType": "address",
          "name": "owner",
          "type": "address"
        }
      ],
      "name": "balanceOf",
      "outputs": [
        {
          "internalType": "uint256",
          "name": "",
          "type": "uint256"
        }
      ],
      "stateMutability": "view",
      "type": "function"
    },
    {
      "inputs": [
        {
          "internalType": "uint256",
          "name": "tokenId",
          "type": "uint256"
        }
      ],
      "name": "ownerOf",
      "outputs": [
        {
          "internalType": "address",
          "name": "",
          "type": "address"
        }
      ],
      "stateMutability": "view",
      "type": "function"
    },
    {
      "inputs": [
        {
          "internalType": "bytes32",
          "name": "_name",
          "type": "bytes32"
        }
      ],
      "name": "ownerOfByName",
      "outputs": [
        {
          "internalType": "address",
          "name": "",
          "type": "address"
        }
      ],
      "stateMutability": "view",
      "type": "function"
    },
    {
      "inputs": [],
      "name": "name",
      "outputs": [
        {
          "internalType": "string",
          "name": "",
          "type": "string"
        }
      ],
      "stateMutability": "pure",
      "type": "function"
    },
    {
      "inputs": [],
      "name": "symbol",
      "outputs": [
        {
          "internalType": "string",
          "name": "",
          "type": "string"
        }
      ],
      "stateMutability": "pure",
      "type": "function"
    },
    {
      "inputs": [
        {
          "internalType": "uint256",
          "name": "tokenId",
          "type": "uint256"
        }
      ],
      "name": "tokenURI",
      "outputs": [
        {
          "internalType": "string",
          "name": "",
          "type": "string"
        }
      ],
      "stateMutability": "view",
      "type": "function"
    },
    {
      "inputs": [
        {
          "internalType": "address",
          "name": "to",
          "type": "address"
        },
        {
          "internalType": "uint256",
          "name": "tokenId",
          "type": "uint256"
        }
      ],
      "name": "approve",
      "outputs": [],
      "stateMutability": "nonpayable",
      "type": "function"
    },
    {
      "inputs": [
        {
          "internalType": "uint256",
          "name": "tokenId",
          "type": "uint256"
        }
      ],
      "name": "getApproved",
      "outputs": [
        {
          "internalType": "address",
          "name": "",
          "type": "address"
        }
      ],
      "stateMutability": "view",
      "type": "function"
    },
    {
      "inputs": [
        {
          "internalType": "address",
          "name": "operator",
          "type": "address"
        },
        {
          "internalType": "bool",
          "name": "approved",
          "type": "bool"
        }
      ],
      "name": "setApprovalForAll",
      "outputs": [],
      "stateMutability": "nonpayable",
      "type": "function"
    },
    {
      "inputs": [
        {
          "internalType": "address",
          "name": "owner",
          "type": "address"
        },
        {
          "internalType": "address",
          "name": "operator",
          "type": "address"
        }
      ],
      "name": "isApprovedForAll",
      "outputs": [
        {
          "internalType": "bool",
          "name": "",
          "type": "bool"
        }
      ],
      "stateMutability": "view",
      "type": "function"
    },
    {
      "inputs": [
        {
          "internalType": "address",
          "name": "from",
          "type": "address"
        },
        {
          "internalType": "address",
          "name": "to",
          "type": "address"
        },
        {
          "internalType": "uint256",
          "name": "tokenId",
          "type": "uint256"
        }
      ],
      "name": "transferFrom",
      "outputs": [],
      "stateMutability": "nonpayable",
      "type": "function"
    },
    {
      "inputs": [
        {
          "internalType": "address",
          "name": "from",
          "type": "address"
        },
        {
          "internalType": "address",
          "name": "to",
          "type": "address"
        },
        {
          "internalType": "uint256",
          "name": "tokenId",
          "type": "uint256"
        }
      ],
      "name": "safeTransferFrom",
      "outputs": [],
      "stateMutability": "nonpayable",
      "type": "function"
    },
    {
      "inputs": [
        {
          "internalType": "address",
          "name": "from",
          "type": "address"
        },
        {
          "internalType": "address",
          "name": "to",
          "type": "address"
        },
        {
          "internalType": "uint256",
          "name": "tokenId",
          "type": "uint256"
        },
        {
          "internalType": "bytes",
          "name": "_data",
          "type": "bytes"
        }
      ],
      "name": "safeTransferFrom",
      "outputs": [],
      "stateMutability": "nonpayable",
      "type": "function"
    }
  ],
  "bytecode": "0x60806040523480156200001157600080fd5b5062000032620000266200003860201b60201c565b6200004060201b60201c565b62000104565b600033905090565b60008060009054906101000a900473ffffffffffffffffffffffffffffffffffffffff169050816000806101000a81548173ffffffffffffffffffffffffffffffffffffffff021916908373ffffffffffffffffffffffffffffffffffffffff1602179055508173ffffffffffffffffffffffffffffffffffffffff168173ffffffffffffffffffffffffffffffffffffffff167f8be0079c531659141344cd1fd0a4f28419497f9722a3daafe3b4186f6b6457e060405160405180910390a35050565b61297080620001146000396000f3fe608060405234801561001057600080fd5b50600436106101215760003560e01c8063715018a6116100ad578063b88d4fde11610071578063b88d4fde1461031a578063c87b56dd14610336578063df447e9414610366578063e985e9c514610396578063f2fde38b146103c657610121565b8063715018a6146102885780638da5cb5b1461029257806395d89b41146102b0578063a22cb465146102ce578063adf2cead146102ea57610121565b806323b872dd116100f457806323b872dd146101c057806342842e0e146101dc57806357cbf692146101f85780636352211e1461022857806370a082311461025857610121565b806301ffc9a71461012657806306fdde0314610156578063081812fc14610174578063095ea7b3146101a4575b600080fd5b610140600480360381019061013b919061188b565b6103e2565b60405161014d91906118d3565b60405180910390f35b61015e6104c4565b60405161016b9190611987565b60405180910390f35b61018e600480360381019061018991906119df565b610501565b60405161019b9190611a4d565b60405180910390f35b6101be60048036038101906101b99190611a94565b610586565b005b6101da60048036038101906101d59190611ad4565b61069e565b005b6101f660048036038101906101f19190611ad4565b6106fe565b005b610212600480360381019061020d9190611b5d565b61071e565b60405161021f9190611bac565b60405180910390f35b610242600480360381019061023d91906119df565b6107bb565b60405161024f9190611a4d565b60405180910390f35b610272600480360381019061026d9190611bc7565b61086d565b60405161027f9190611bac565b60405180910390f35b610290610925565b005b61029a6109ad565b6040516102a79190611a4d565b60405180910390f35b6102b86109d6565b6040516102c59190611987565b60405180910390f35b6102e860048036038101906102e39190611c20565b610a13565b005b61030460048036038101906102ff9190611c60565b610b94565b6040516103119190611bac565b60405180910390f35b610334600480360381019061032f9190611dc2565b610c30565b005b610350600480360381019061034b91906119df565b610c92565b60405161035d9190611987565b60405180910390f35b610380600480360381019061037b9190611c60565b610d67565b60405161038d9190611a4d565b60405180910390f35b6103b060048036038101906103ab9190611e45565b610d91565b6040516103bd91906118d3565b60405180910390f35b6103e060048036038101906103db9190611bc7565b610e25565b005b60007f80ac58cd000000000000000000000000000000000000000000000000000000007bffffffffffffffffffffffffffffffffffffffffffffffffffffffff1916827bffffffffffffffffffffffffffffffffffffffffffffffffffffffff191614806104ad57507f5b5e139f000000000000000000000000000000000000000000000000000000007bffffffffffffffffffffffffffffffffffffffffffffffffffffffff1916827bffffffffffffffffffffffffffffffffffffffffffffffffffffffff1916145b806104bd57506104bc82610f1d565b5b9050919050565b60606040518060400160405280601181526020017f486f727365204c696e6b20547261636b73000000000000000000000000000000815250905090565b600061050c82610f87565b61054b576040517f08c379a000000000000000000000000000000000000000000000000000000000815260040161054290611ef7565b60405180910390fd5b6003600083815260200190815260200160002060009054906101000a900473ffffffffffffffffffffffffffffffffffffffff169050919050565b6000610591826107bb565b90508073ffffffffffffffffffffffffffffffffffffffff168373ffffffffffffffffffffffffffffffffffffffff161415610602576040517f08c379a00000000000000000000000000000000000000000000000000000000081526004016105f990611f89565b60405180910390fd5b8073ffffffffffffffffffffffffffffffffffffffff16610621610ff3565b73ffffffffffffffffffffffffffffffffffffffff161480610650575061064f8161064a610ff3565b610d91565b5b61068f576040517f08c379a00000000000000000000000000000000000000000000000000000000081526004016106869061201b565b60405180910390fd5b6106998383610ffb565b505050565b6106af6106a9610ff3565b826110b4565b6106ee576040517f08c379a00000000000000000000000000000000000000000000000000000000081526004016106e5906120ad565b60405180910390fd5b6106f9838383611192565b505050565b61071983838360405180602001604052806000815250610c30565b505050565b6000610728610ff3565b73ffffffffffffffffffffffffffffffffffffffff166107466109ad565b73ffffffffffffffffffffffffffffffffffffffff161461079c576040517f08c379a000000000000000000000000000000000000000000000000000000000815260040161079390612119565b60405180910390fd5b6000600560008581526020019081526020016000205490505092915050565b6000806001600084815260200190815260200160002060009054906101000a900473ffffffffffffffffffffffffffffffffffffffff169050600073ffffffffffffffffffffffffffffffffffffffff168173ffffffffffffffffffffffffffffffffffffffff161415610864576040517f08c379a000000000000000000000000000000000000000000000000000000000815260040161085b906121ab565b60405180910390fd5b80915050919050565b60008073ffffffffffffffffffffffffffffffffffffffff168273ffffffffffffffffffffffffffffffffffffffff1614156108de576040517f08c379a00000000000000000000000000000000000000000000000000000000081526004016108d59061223d565b60405180910390fd5b600260008373ffffffffffffffffffffffffffffffffffffffff1673ffffffffffffffffffffffffffffffffffffffff168152602001908152602001600020549050919050565b61092d610ff3565b73ffffffffffffffffffffffffffffffffffffffff1661094b6109ad565b73ffffffffffffffffffffffffffffffffffffffff16146109a1576040517f08c379a000000000000000000000000000000000000000000000000000000000815260040161099890612119565b60405180910390fd5b6109ab60006113ee565b565b60008060009054906101000a900473ffffffffffffffffffffffffffffffffffffffff16905090565b60606040518060400160405280600381526020017f48544c0000000000000000000000000000000000000000000000000000000000815250905090565b610a1b610ff3565b73ffffffffffffffffffffffffffffffffffffffff168273ffffffffffffffffffffffffffffffffffffffff161415610a89576040517f08c379a0000000000000000000000000000000000000000000000000000000008152600401610a80906122a9565b60405180910390fd5b8060046000610a96610ff3565b73ffffffffffffffffffffffffffffffffffffffff1673ffffffffffffffffffffffffffffffffffffffff16815260200190815260200160002060008473ffffffffffffffffffffffffffffffffffffffff1673ffffffffffffffffffffffffffffffffffffffff16815260200190815260200160002060006101000a81548160ff0219169083151502179055508173ffffffffffffffffffffffffffffffffffffffff16610b43610ff3565b73ffffffffffffffffffffffffffffffffffffffff167f17307eab39ab6107e8899845ad3d59bd9653f200f220920489ca2b5937696c3183604051610b8891906118d3565b60405180910390a35050565b6000610b9e610ff3565b73ffffffffffffffffffffffffffffffffffffffff16610bbc6109ad565b73ffffffffffffffffffffffffffffffffffffffff1614610c12576040517f08c379a0000000000000000000000000000000000000000000000000000000008152600401610c0990612119565b60405180910390fd5b60006005600084815260200190815260200160002054905050919050565b610c41610c3b610ff3565b836110b4565b610c80576040517f08c379a0000000000000000000000000000000000000000000000000000000008152600401610c77906120ad565b60405180910390fd5b610c8c848484846114b2565b50505050565b6060610c9d82610f87565b610cdc576040517f08c379a0000000000000000000000000000000000000000000000000000000008152600401610cd39061233b565b60405180910390fd5b60006040518060400160405280601a81526020017f68747470733a2f2f686f7273652e6c696e6b2f747261636b732f00000000000081525090506000815111610d345760405180602001604052806000815250610d5f565b80610d3e8461150e565b604051602001610d4f929190612397565b6040516020818303038152906040525b915050919050565b60008060056000848152602001908152602001600020549050610d89816107bb565b915050919050565b6000600460008473ffffffffffffffffffffffffffffffffffffffff1673ffffffffffffffffffffffffffffffffffffffff16815260200190815260200160002060008373ffffffffffffffffffffffffffffffffffffffff1673ffffffffffffffffffffffffffffffffffffffff16815260200190815260200160002060009054906101000a900460ff16905092915050565b610e2d610ff3565b73ffffffffffffffffffffffffffffffffffffffff16610e4b6109ad565b73ffffffffffffffffffffffffffffffffffffffff1614610ea1576040517f08c379a0000000000000000000000000000000000000000000000000000000008152600401610e9890612119565b60405180910390fd5b600073ffffffffffffffffffffffffffffffffffffffff168173ffffffffffffffffffffffffffffffffffffffff161415610f11576040517f08c379a0000000000000000000000000000000000000000000000000000000008152600401610f089061242d565b60405180910390fd5b610f1a816113ee565b50565b60007f01ffc9a7000000000000000000000000000000000000000000000000000000007bffffffffffffffffffffffffffffffffffffffffffffffffffffffff1916827bffffffffffffffffffffffffffffffffffffffffffffffffffffffff1916149050919050565b60008073ffffffffffffffffffffffffffffffffffffffff166001600084815260200190815260200160002060009054906101000a900473ffffffffffffffffffffffffffffffffffffffff1673ffffffffffffffffffffffffffffffffffffffff1614159050919050565b600033905090565b816003600083815260200190815260200160002060006101000a81548173ffffffffffffffffffffffffffffffffffffffff021916908373ffffffffffffffffffffffffffffffffffffffff160217905550808273ffffffffffffffffffffffffffffffffffffffff1661106e836107bb565b73ffffffffffffffffffffffffffffffffffffffff167f8c5be1e5ebec7d5bd14f71427d1e84f3dd0314c0f7b2291e5b200ac8c7c3b92560405160405180910390a45050565b60006110bf82610f87565b6110fe576040517f08c379a00000000000000000000000000000000000000000000000000000000081526004016110f5906124bf565b60405180910390fd5b6000611109836107bb565b90508073ffffffffffffffffffffffffffffffffffffffff168473ffffffffffffffffffffffffffffffffffffffff16148061117857508373ffffffffffffffffffffffffffffffffffffffff1661116084610501565b73ffffffffffffffffffffffffffffffffffffffff16145b8061118957506111888185610d91565b5b91505092915050565b8273ffffffffffffffffffffffffffffffffffffffff166111b2826107bb565b73ffffffffffffffffffffffffffffffffffffffff1614611208576040517f08c379a00000000000000000000000000000000000000000000000000000000081526004016111ff90612551565b60405180910390fd5b600073ffffffffffffffffffffffffffffffffffffffff168273ffffffffffffffffffffffffffffffffffffffff161415611278576040517f08c379a000000000000000000000000000000000000000000000000000000000815260040161126f906125e3565b60405180910390fd5b61128383838361166f565b61128e600082610ffb565b6001600260008573ffffffffffffffffffffffffffffffffffffffff1673ffffffffffffffffffffffffffffffffffffffff16815260200190815260200160002060008282546112de9190612632565b925050819055506001600260008473ffffffffffffffffffffffffffffffffffffffff1673ffffffffffffffffffffffffffffffffffffffff16815260200190815260200160002060008282546113359190612666565b92505081905550816001600083815260200190815260200160002060006101000a81548173ffffffffffffffffffffffffffffffffffffffff021916908373ffffffffffffffffffffffffffffffffffffffff160217905550808273ffffffffffffffffffffffffffffffffffffffff168473ffffffffffffffffffffffffffffffffffffffff167fddf252ad1be2c89b69c2b068fc378daa952ba7f163c4a11628f55a4df523b3ef60405160405180910390a4505050565b60008060009054906101000a900473ffffffffffffffffffffffffffffffffffffffff169050816000806101000a81548173ffffffffffffffffffffffffffffffffffffffff021916908373ffffffffffffffffffffffffffffffffffffffff1602179055508173ffffffffffffffffffffffffffffffffffffffff168173ffffffffffffffffffffffffffffffffffffffff167f8be0079c531659141344cd1fd0a4f28419497f9722a3daafe3b4186f6b6457e060405160405180910390a35050565b6114bd848484611192565b6114c984848484611674565b611508576040517f08c379a00000000000000000000000000000000000000000000000000000000081526004016114ff9061272e565b60405180910390fd5b50505050565b60606000821415611556576040518060400160405280600181526020017f3000000000000000000000000000000000000000000000000000000000000000815250905061166a565b600082905060005b600082146115885780806115719061274e565b915050600a8261158191906127c6565b915061155e565b60008167ffffffffffffffff8111156115a4576115a3611c97565b5b6040519080825280601f01601f1916602001820160405280156115d65781602001600182028036833780820191505090505b5090505b60008514611663576001826115ef9190612632565b9150600a856115fe91906127f7565b603061160a9190612666565b60f81b8183815181106116205761161f612828565b5b60200101907effffffffffffffffffffffffffffffffffffffffffffffffffffffffffffff1916908160001a905350600a8561165c91906127c6565b94506115da565b8093505050505b919050565b505050565b60006116958473ffffffffffffffffffffffffffffffffffffffff166117fc565b156117ef578373ffffffffffffffffffffffffffffffffffffffff1663150b7a026116be610ff3565b8786866040518563ffffffff1660e01b81526004016116e094939291906128ac565b6020604051808303816000875af192505050801561171c57506040513d601f19601f82011682018060405250810190611719919061290d565b60015b61179f573d806000811461174c576040519150601f19603f3d011682016040523d82523d6000602084013e611751565b606091505b50600081511415611797576040517f08c379a000000000000000000000000000000000000000000000000000000000815260040161178e9061272e565b60405180910390fd5b805181602001fd5b63150b7a0260e01b7bffffffffffffffffffffffffffffffffffffffffffffffffffffffff1916817bffffffffffffffffffffffffffffffffffffffffffffffffffffffff1916149150506117f4565b600190505b949350505050565b6000808273ffffffffffffffffffffffffffffffffffffffff163b119050919050565b6000604051905090565b600080fd5b600080fd5b60007fffffffff0000000000000000000000000000000000000000000000000000000082169050919050565b61186881611833565b811461187357600080fd5b50565b6000813590506118858161185f565b92915050565b6000602082840312156118a1576118a0611829565b5b60006118af84828501611876565b91505092915050565b60008115159050919050565b6118cd816118b8565b82525050565b60006020820190506118e860008301846118c4565b92915050565b600081519050919050565b600082825260208201905092915050565b60005b8381101561192857808201518184015260208101905061190d565b83811115611937576000848401525b50505050565b6000601f19601f8301169050919050565b6000611959826118ee565b61196381856118f9565b935061197381856020860161190a565b61197c8161193d565b840191505092915050565b600060208201905081810360008301526119a1818461194e565b905092915050565b6000819050919050565b6119bc816119a9565b81146119c757600080fd5b50565b6000813590506119d9816119b3565b92915050565b6000602082840312156119f5576119f4611829565b5b6000611a03848285016119ca565b91505092915050565b600073ffffffffffffffffffffffffffffffffffffffff82169050919050565b6000611a3782611a0c565b9050919050565b611a4781611a2c565b82525050565b6000602082019050611a626000830184611a3e565b92915050565b611a7181611a2c565b8114611a7c57600080fd5b50565b600081359050611a8e81611a68565b92915050565b60008060408385031215611aab57611aaa611829565b5b6000611ab985828601611a7f565b9250506020611aca858286016119ca565b9150509250929050565b600080600060608486031215611aed57611aec611829565b5b6000611afb86828701611a7f565b9350506020611b0c86828701611a7f565b9250506040611b1d868287016119ca565b9150509250925092565b6000819050919050565b611b3a81611b27565b8114611b4557600080fd5b50565b600081359050611b5781611b31565b92915050565b60008060408385031215611b7457611b73611829565b5b6000611b8285828601611b48565b9250506020611b9385828601611a7f565b9150509250929050565b611ba6816119a9565b82525050565b6000602082019050611bc16000830184611b9d565b92915050565b600060208284031215611bdd57611bdc611829565b5b6000611beb84828501611a7f565b91505092915050565b611bfd816118b8565b8114611c0857600080fd5b50565b600081359050611c1a81611bf4565b92915050565b60008060408385031215611c3757611c36611829565b5b6000611c4585828601611a7f565b9250506020611c5685828601611c0b565b9150509250929050565b600060208284031215611c7657611c75611829565b5b6000611c8484828501611b48565b91505092915050565b600080fd5b600080fd5b7f4e487b7100000000000000000000000000000000000000000000000000000000600052604160045260246000fd5b611ccf8261193d565b810181811067ffffffffffffffff82111715611cee57611ced611c97565b5b80604052505050565b6000611d0161181f565b9050611d0d8282611cc6565b919050565b600067ffffffffffffffff821115611d2d57611d2c611c97565b5b611d368261193d565b9050602081019050919050565b82818337600083830152505050565b6000611d65611d6084611d12565b611cf7565b905082815260208101848484011115611d8157611d80611c92565b5b611d8c848285611d43565b509392505050565b600082601f830112611da957611da8611c8d565b5b8135611db9848260208601611d52565b91505092915050565b60008060008060808587031215611ddc57611ddb611829565b5b6000611dea87828801611a7f565b9450506020611dfb87828801611a7f565b9350506040611e0c878288016119ca565b925050606085013567ffffffffffffffff811115611e2d57611e2c61182e565b5b611e3987828801611d94565b91505092959194509250565b60008060408385031215611e5c57611e5b611829565b5b6000611e6a85828601611a7f565b9250506020611e7b85828601611a7f565b9150509250929050565b7f4552433732313a20617070726f76656420717565727920666f72206e6f6e657860008201527f697374656e7420746f6b656e0000000000000000000000000000000000000000602082015250565b6000611ee1602c836118f9565b9150611eec82611e85565b604082019050919050565b60006020820190508181036000830152611f1081611ed4565b9050919050565b7f4552433732313a20617070726f76616c20746f2063757272656e74206f776e6560008201527f7200000000000000000000000000000000000000000000000000000000000000602082015250565b6000611f736021836118f9565b9150611f7e82611f17565b604082019050919050565b60006020820190508181036000830152611fa281611f66565b9050919050565b7f4552433732313a20617070726f76652063616c6c6572206973206e6f74206f7760008201527f6e6572206e6f7220617070726f76656420666f7220616c6c0000000000000000602082015250565b60006120056038836118f9565b915061201082611fa9565b604082019050919050565b6000602082019050818103600083015261203481611ff8565b9050919050565b7f4552433732313a207472616e736665722063616c6c6572206973206e6f74206f60008201527f776e6572206e6f7220617070726f766564000000000000000000000000000000602082015250565b60006120976031836118f9565b91506120a28261203b565b604082019050919050565b600060208201905081810360008301526120c68161208a565b9050919050565b7f4f776e61626c653a2063616c6c6572206973206e6f7420746865206f776e6572600082015250565b60006121036020836118f9565b915061210e826120cd565b602082019050919050565b60006020820190508181036000830152612132816120f6565b9050919050565b7f4552433732313a206f776e657220717565727920666f72206e6f6e657869737460008201527f656e7420746f6b656e0000000000000000000000000000000000000000000000602082015250565b60006121956029836118f9565b91506121a082612139565b604082019050919050565b600060208201905081810360008301526121c481612188565b9050919050565b7f4552433732313a2062616c616e636520717565727920666f7220746865207a6560008201527f726f206164647265737300000000000000000000000000000000000000000000602082015250565b6000612227602a836118f9565b9150612232826121cb565b604082019050919050565b600060208201905081810360008301526122568161221a565b9050919050565b7f4552433732313a20617070726f766520746f2063616c6c657200000000000000600082015250565b60006122936019836118f9565b915061229e8261225d565b602082019050919050565b600060208201905081810360008301526122c281612286565b9050919050565b7f4552433732314d657461646174613a2055524920717565727920666f72206e6f60008201527f6e6578697374656e7420746f6b656e0000000000000000000000000000000000602082015250565b6000612325602f836118f9565b9150612330826122c9565b604082019050919050565b6000602082019050818103600083015261235481612318565b9050919050565b600081905092915050565b6000612371826118ee565b61237b818561235b565b935061238b81856020860161190a565b80840191505092915050565b60006123a38285612366565b91506123af8284612366565b91508190509392505050565b7f4f776e61626c653a206e6577206f776e657220697320746865207a65726f206160008201527f6464726573730000000000000000000000000000000000000000000000000000602082015250565b60006124176026836118f9565b9150612422826123bb565b604082019050919050565b600060208201905081810360008301526124468161240a565b9050919050565b7f4552433732313a206f70657261746f7220717565727920666f72206e6f6e657860008201527f697374656e7420746f6b656e0000000000000000000000000000000000000000602082015250565b60006124a9602c836118f9565b91506124b48261244d565b604082019050919050565b600060208201905081810360008301526124d88161249c565b9050919050565b7f4552433732313a207472616e73666572206f6620746f6b656e2074686174206960008201527f73206e6f74206f776e0000000000000000000000000000000000000000000000602082015250565b600061253b6029836118f9565b9150612546826124df565b604082019050919050565b6000602082019050818103600083015261256a8161252e565b9050919050565b7f4552433732313a207472616e7366657220746f20746865207a65726f2061646460008201527f7265737300000000000000000000000000000000000000000000000000000000602082015250565b60006125cd6024836118f9565b91506125d882612571565b604082019050919050565b600060208201905081810360008301526125fc816125c0565b9050919050565b7f4e487b7100000000000000000000000000000000000000000000000000000000600052601160045260246000fd5b600061263d826119a9565b9150612648836119a9565b92508282101561265b5761265a612603565b5b828203905092915050565b6000612671826119a9565b915061267c836119a9565b9250827fffffffffffffffffffffffffffffffffffffffffffffffffffffffffffffffff038211156126b1576126b0612603565b5b828201905092915050565b7f4552433732313a207472616e7366657220746f206e6f6e20455243373231526560008201527f63656976657220696d706c656d656e7465720000000000000000000000000000602082015250565b60006127186032836118f9565b9150612723826126bc565b604082019050919050565b600060208201905081810360008301526127478161270b565b9050919050565b6000612759826119a9565b91507fffffffffffffffffffffffffffffffffffffffffffffffffffffffffffffffff82141561278c5761278b612603565b5b600182019050919050565b7f4e487b7100000000000000000000000000000000000000000000000000000000600052601260045260246000fd5b60006127d1826119a9565b91506127dc836119a9565b9250826127ec576127eb612797565b5b828204905092915050565b6000612802826119a9565b915061280d836119a9565b92508261281d5761281c612797565b5b828206905092915050565b7f4e487b7100000000000000000000000000000000000000000000000000000000600052603260045260246000fd5b600081519050919050565b600082825260208201905092915050565b600061287e82612857565b6128888185612862565b935061289881856020860161190a565b6128a18161193d565b840191505092915050565b60006080820190506128c16000830187611a3e565b6128ce6020830186611a3e565b6128db6040830185611b9d565b81810360608301526128ed8184612873565b905095945050505050565b6000815190506129078161185f565b92915050565b60006020828403121561292357612922611829565b5b6000612931848285016128f8565b9150509291505056fea26469706673582212208692a867c9b3e9df3395eecd66a2c5d52de6b1059f690dbdd0f443cbc96e27ed64736f6c634300080a0033",
  "immutableReferences": {},
  "source": "// SPDX-License-Identifier: MIT\npragma solidity =0.8.10;\n\nimport { Ownable } from \"@openzeppelin/contracts/access/Ownable.sol\";\nimport {IERC721} from \"@openzeppelin/contracts/token/ERC721/IERC721.sol\";\nimport {IERC721Receiver} from \"@openzeppelin/contracts/token/ERC721/IERC721Receiver.sol\";\nimport {IERC721Metadata} from \"@openzeppelin/contracts/token/ERC721/extensions/IERC721Metadata.sol\";\nimport \"@openzeppelin/contracts/utils/Address.sol\";\nimport \"@openzeppelin/contracts/utils/Context.sol\";\nimport \"@openzeppelin/contracts/utils/Strings.sol\";\nimport \"@openzeppelin/contracts/utils/introspection/ERC165.sol\";\n\ncontract ERC721 is Context, ERC165, IERC721, IERC721Metadata, Ownable {\n    using Address for address;\n    using Strings for uint256;\n\n    // string private _name;\n    // string private _symbol;\n\n    mapping(uint256 => address) private _owners;\n    mapping(address => uint256) private _balances;\n    mapping(uint256 => address) private _tokenApprovals;\n    mapping(address => mapping(address => bool)) private _operatorApprovals;\n    mapping(bytes32 => uint256) private _tracksToId;\n\n    constructor() {\n        // _name = \"Horse Link Tracks\";\n        // _symbol = \"HLT\";\n    }\n\n    function mint(bytes32 name) public onlyOwner returns (uint256) {\n        uint256 tokenId = _tracksToId[name];\n    }\n\n    function mintTo(bytes32 name, address owner) public onlyOwner returns (uint256) {\n        uint256 tokenId = _tracksToId[name];\n    }\n\n    function supportsInterface(bytes4 interfaceId) public view override(ERC165, IERC165) returns (bool) {\n        return\n            interfaceId == type(IERC721).interfaceId ||\n            interfaceId == type(IERC721Metadata).interfaceId ||\n            super.supportsInterface(interfaceId);\n    }\n\n    function balanceOf(address owner) public view override returns (uint256) {\n        require(owner != address(0), \"ERC721: balance query for the zero address\");\n        return _balances[owner];\n    }\n\n    function ownerOf(uint256 tokenId) public view override returns (address) {\n        address owner = _owners[tokenId];\n        require(owner != address(0), \"ERC721: owner query for nonexistent token\");\n        return owner;\n    }\n\n    function ownerOfByName(bytes32 _name) public view returns (address) {\n        uint256 tokenId = _tracksToId[_name];\n        return ownerOf(tokenId);\n    }\n\n    function name() public pure override returns (string memory) {\n        return \"Horse Link Tracks\";\n    }\n\n    function symbol() public pure override returns (string memory) {\n        return \"HTL\";\n    }\n\n    function tokenURI(uint256 tokenId) public view override returns (string memory) {\n        require(_exists(tokenId), \"ERC721Metadata: URI query for nonexistent token\");\n\n        string memory baseURI = \"https://horse.link/tracks/\";\n        return bytes(baseURI).length > 0 ? string(abi.encodePacked(baseURI, tokenId.toString())) : \"\";\n    }\n\n    function approve(address to, uint256 tokenId) public override {\n        address owner = ERC721.ownerOf(tokenId);\n        require(to != owner, \"ERC721: approval to current owner\");\n\n        require(\n            _msgSender() == owner || isApprovedForAll(owner, _msgSender()),\n            \"ERC721: approve caller is not owner nor approved for all\"\n        );\n\n        _approve(to, tokenId);\n    }\n\n    function getApproved(uint256 tokenId) public view virtual override returns (address) {\n        require(_exists(tokenId), \"ERC721: approved query for nonexistent token\");\n\n        return _tokenApprovals[tokenId];\n    }\n\n    function setApprovalForAll(address operator, bool approved) public virtual override {\n        require(operator != _msgSender(), \"ERC721: approve to caller\");\n\n        _operatorApprovals[_msgSender()][operator] = approved;\n        emit ApprovalForAll(_msgSender(), operator, approved);\n    }\n\n    function isApprovedForAll(address owner, address operator) public view virtual override returns (bool) {\n        return _operatorApprovals[owner][operator];\n    }\n\n    function transferFrom(\n        address from,\n        address to,\n        uint256 tokenId\n    ) public virtual override {\n        //solhint-disable-next-line max-line-length\n        require(_isApprovedOrOwner(_msgSender(), tokenId), \"ERC721: transfer caller is not owner nor approved\");\n\n        _transfer(from, to, tokenId);\n    }\n\n    function safeTransferFrom(\n        address from,\n        address to,\n        uint256 tokenId\n    ) public virtual override {\n        safeTransferFrom(from, to, tokenId, \"\");\n    }\n\n    function safeTransferFrom(\n        address from,\n        address to,\n        uint256 tokenId,\n        bytes memory _data\n    ) public virtual override {\n        require(_isApprovedOrOwner(_msgSender(), tokenId), \"ERC721: transfer caller is not owner nor approved\");\n        _safeTransfer(from, to, tokenId, _data);\n    }\n\n    function _safeTransfer(\n        address from,\n        address to,\n        uint256 tokenId,\n        bytes memory _data\n    ) internal virtual {\n        _transfer(from, to, tokenId);\n        require(_checkOnERC721Received(from, to, tokenId, _data), \"ERC721: transfer to non ERC721Receiver implementer\");\n    }\n\n    function _exists(uint256 tokenId) internal view virtual returns (bool) {\n        return _owners[tokenId] != address(0);\n    }\n\n    function _isApprovedOrOwner(address spender, uint256 tokenId) internal view virtual returns (bool) {\n        require(_exists(tokenId), \"ERC721: operator query for nonexistent token\");\n        address owner = ERC721.ownerOf(tokenId);\n        return (spender == owner || getApproved(tokenId) == spender || isApprovedForAll(owner, spender));\n    }\n\n    function _safeMint(address to, uint256 tokenId) internal virtual {\n        _safeMint(to, tokenId, \"\");\n    }\n\n    function _safeMint(\n        address to,\n        uint256 tokenId,\n        bytes memory _data\n    ) internal virtual {\n        _mint(to, tokenId);\n        require(\n            _checkOnERC721Received(address(0), to, tokenId, _data),\n            \"ERC721: transfer to non ERC721Receiver implementer\"\n        );\n    }\n\n    function _mint(address to, uint256 tokenId) internal virtual {\n        require(to != address(0), \"ERC721: mint to the zero address\");\n        require(!_exists(tokenId), \"ERC721: token already minted\");\n\n        _beforeTokenTransfer(address(0), to, tokenId);\n\n        _balances[to] += 1;\n        _owners[tokenId] = to;\n\n        emit Transfer(address(0), to, tokenId);\n    }\n\n    function _burn(uint256 tokenId) internal virtual {\n        address owner = ERC721.ownerOf(tokenId);\n\n        _beforeTokenTransfer(owner, address(0), tokenId);\n\n        // Clear approvals\n        _approve(address(0), tokenId);\n\n        _balances[owner] -= 1;\n        delete _owners[tokenId];\n\n        emit Transfer(owner, address(0), tokenId);\n    }\n\n    function _transfer(\n        address from,\n        address to,\n        uint256 tokenId\n    ) internal virtual {\n        require(ERC721.ownerOf(tokenId) == from, \"ERC721: transfer of token that is not own\");\n        require(to != address(0), \"ERC721: transfer to the zero address\");\n\n        _beforeTokenTransfer(from, to, tokenId);\n\n        // Clear approvals from the previous owner\n        _approve(address(0), tokenId);\n\n        _balances[from] -= 1;\n        _balances[to] += 1;\n        _owners[tokenId] = to;\n\n        emit Transfer(from, to, tokenId);\n    }\n\n    function _approve(address to, uint256 tokenId) internal virtual {\n        _tokenApprovals[tokenId] = to;\n        emit Approval(ERC721.ownerOf(tokenId), to, tokenId);\n    }\n\n    function _checkOnERC721Received(\n        address from,\n        address to,\n        uint256 tokenId,\n        bytes memory _data\n    ) private returns (bool) {\n        if (to.isContract()) {\n            try IERC721Receiver(to).onERC721Received(_msgSender(), from, tokenId, _data) returns (bytes4 retval) {\n                return retval == IERC721Receiver(to).onERC721Received.selector;\n            } catch (bytes memory reason) {\n                if (reason.length == 0) {\n                    revert(\"ERC721: transfer to non ERC721Receiver implementer\");\n                } else {\n                    assembly {\n                        revert(add(32, reason), mload(reason))\n                    }\n                }\n            }\n        } else {\n            return true;\n        }\n    }\n\n    function _beforeTokenTransfer(\n        address from,\n        address to,\n        uint256 tokenId\n    ) internal virtual {}\n}\n",
  "sourcePath": "/Users/lucascullen/GitHub/HorseLink/horse.link/contracts/Track.sol",
  "compiler": {
    "name": "solc",
    "version": "0.8.10+commit.fc410830.Emscripten.clang"
  },
  "schemaVersion": "3.4.4",
  "updatedAt": "2022-04-09T02:36:57.193Z",
  "devdoc": {
    "kind": "dev",
    "methods": {
      "approve(address,uint256)": {
        "details": "Gives permission to `to` to transfer `tokenId` token to another account. The approval is cleared when the token is transferred. Only a single account can be approved at a time, so approving the zero address clears previous approvals. Requirements: - The caller must own the token or be an approved operator. - `tokenId` must exist. Emits an {Approval} event."
      },
      "balanceOf(address)": {
        "details": "Returns the number of tokens in ``owner``'s account."
      },
      "getApproved(uint256)": {
        "details": "Returns the account approved for `tokenId` token. Requirements: - `tokenId` must exist."
      },
      "isApprovedForAll(address,address)": {
        "details": "Returns if the `operator` is allowed to manage all of the assets of `owner`. See {setApprovalForAll}"
      },
      "name()": {
        "details": "Returns the token collection name."
      },
      "owner()": {
        "details": "Returns the address of the current owner."
      },
      "ownerOf(uint256)": {
        "details": "Returns the owner of the `tokenId` token. Requirements: - `tokenId` must exist."
      },
      "renounceOwnership()": {
        "details": "Leaves the contract without owner. It will not be possible to call `onlyOwner` functions anymore. Can only be called by the current owner. NOTE: Renouncing ownership will leave the contract without an owner, thereby removing any functionality that is only available to the owner."
      },
      "safeTransferFrom(address,address,uint256)": {
        "details": "Safely transfers `tokenId` token from `from` to `to`, checking first that contract recipients are aware of the ERC721 protocol to prevent tokens from being forever locked. Requirements: - `from` cannot be the zero address. - `to` cannot be the zero address. - `tokenId` token must exist and be owned by `from`. - If the caller is not `from`, it must be have been allowed to move this token by either {approve} or {setApprovalForAll}. - If `to` refers to a smart contract, it must implement {IERC721Receiver-onERC721Received}, which is called upon a safe transfer. Emits a {Transfer} event."
      },
      "symbol()": {
        "details": "Returns the token collection symbol."
      },
      "tokenURI(uint256)": {
        "details": "Returns the Uniform Resource Identifier (URI) for `tokenId` token."
      },
      "transferFrom(address,address,uint256)": {
        "details": "Transfers `tokenId` token from `from` to `to`. WARNING: Usage of this method is discouraged, use {safeTransferFrom} whenever possible. Requirements: - `from` cannot be the zero address. - `to` cannot be the zero address. - `tokenId` token must be owned by `from`. - If the caller is not `from`, it must be approved to move this token by either {approve} or {setApprovalForAll}. Emits a {Transfer} event."
      },
      "transferOwnership(address)": {
        "details": "Transfers ownership of the contract to a new account (`newOwner`). Can only be called by the current owner."
      }
    },
    "version": 1
  },
  "userdoc": {
    "kind": "user",
    "methods": {},
    "version": 1
  }
}