{
  "contractName": "HorseLink",
  "abi": [
    {
      "inputs": [
        {
          "internalType": "address",
          "name": "_token",
          "type": "address"
        }
      ],
      "stateMutability": "nonpayable",
      "type": "constructor"
    },
    {
      "anonymous": false,
      "inputs": [
        {
          "indexed": true,
          "internalType": "address",
          "name": "previousOwner",
          "type": "address"
        },
        {
          "indexed": true,
          "internalType": "address",
          "name": "newOwner",
          "type": "address"
        }
      ],
      "name": "OwnershipTransferred",
      "type": "event"
    },
    {
      "anonymous": false,
      "inputs": [
        {
          "indexed": true,
          "internalType": "address",
          "name": "who",
          "type": "address"
        },
        {
          "indexed": false,
          "internalType": "uint256",
          "name": "timestamp",
          "type": "uint256"
        },
        {
          "indexed": false,
          "internalType": "bytes32",
          "name": "mnemonic",
          "type": "bytes32"
        },
        {
          "indexed": false,
          "internalType": "uint256",
          "name": "year",
          "type": "uint256"
        },
        {
          "indexed": false,
          "internalType": "uint256",
          "name": "month",
          "type": "uint256"
        },
        {
          "indexed": false,
          "internalType": "uint256",
          "name": "day",
          "type": "uint256"
        },
        {
          "indexed": false,
          "internalType": "uint256",
          "name": "race",
          "type": "uint256"
        },
        {
          "indexed": false,
          "internalType": "uint256",
          "name": "total",
          "type": "uint256"
        }
      ],
      "name": "ResultAdded",
      "type": "event"
    },
    {
      "inputs": [],
      "name": "count",
      "outputs": [
        {
          "internalType": "uint256",
          "name": "",
          "type": "uint256"
        }
      ],
      "stateMutability": "view",
      "type": "function"
    },
    {
      "inputs": [],
      "name": "owner",
      "outputs": [
        {
          "internalType": "address",
          "name": "",
          "type": "address"
        }
      ],
      "stateMutability": "view",
      "type": "function"
    },
    {
      "inputs": [],
      "name": "renounceOwnership",
      "outputs": [],
      "stateMutability": "nonpayable",
      "type": "function"
    },
    {
      "inputs": [
        {
          "internalType": "bytes32",
          "name": "",
          "type": "bytes32"
        },
        {
          "internalType": "uint8",
          "name": "",
          "type": "uint8"
        },
        {
          "internalType": "uint8",
          "name": "",
          "type": "uint8"
        },
        {
          "internalType": "uint8",
          "name": "",
          "type": "uint8"
        },
        {
          "internalType": "uint8",
          "name": "",
          "type": "uint8"
        }
      ],
      "name": "results",
      "outputs": [
        {
          "internalType": "uint256",
          "name": "timestamp",
          "type": "uint256"
        }
      ],
      "stateMutability": "view",
      "type": "function"
    },
    {
      "inputs": [
        {
          "internalType": "address",
          "name": "",
          "type": "address"
        }
      ],
      "name": "rewards",
      "outputs": [
        {
          "internalType": "uint256",
          "name": "",
          "type": "uint256"
        }
      ],
      "stateMutability": "view",
      "type": "function"
    },
    {
      "inputs": [],
      "name": "token",
      "outputs": [
        {
          "internalType": "address",
          "name": "",
          "type": "address"
        }
      ],
      "stateMutability": "view",
      "type": "function"
    },
    {
      "inputs": [
        {
          "internalType": "address",
          "name": "newOwner",
          "type": "address"
        }
      ],
      "name": "transferOwnership",
      "outputs": [],
      "stateMutability": "nonpayable",
      "type": "function"
    },
    {
      "inputs": [
        {
          "internalType": "bytes32",
          "name": "track",
          "type": "bytes32"
        },
        {
          "internalType": "uint8",
          "name": "year",
          "type": "uint8"
        },
        {
          "internalType": "uint8",
          "name": "month",
          "type": "uint8"
        },
        {
          "internalType": "uint8",
          "name": "day",
          "type": "uint8"
        },
        {
          "internalType": "uint8",
          "name": "race",
          "type": "uint8"
        },
        {
          "internalType": "uint8",
          "name": "position",
          "type": "uint8"
        }
      ],
      "name": "getResult",
      "outputs": [
        {
          "internalType": "uint8",
          "name": "",
          "type": "uint8"
        }
      ],
      "stateMutability": "view",
      "type": "function"
    },
    {
      "inputs": [
        {
          "internalType": "bytes32",
          "name": "mnemonic",
          "type": "bytes32"
        },
        {
          "internalType": "uint8",
          "name": "year",
          "type": "uint8"
        },
        {
          "internalType": "uint8",
          "name": "month",
          "type": "uint8"
        },
        {
          "internalType": "uint8",
          "name": "day",
          "type": "uint8"
        },
        {
          "internalType": "uint8",
          "name": "race",
          "type": "uint8"
        },
        {
          "internalType": "uint8[]",
          "name": "_results",
          "type": "uint8[]"
        }
      ],
      "name": "addResult",
      "outputs": [],
      "stateMutability": "nonpayable",
      "type": "function"
    },
    {
      "inputs": [],
      "name": "claim",
      "outputs": [],
      "stateMutability": "nonpayable",
      "type": "function"
    }
  ],
  "bytecode": "0x60806040523480156200001157600080fd5b506040516200201b3803806200201b8339818101604052810190620000379190620001d5565b620000576200004b6200009f60201b60201c565b620000a760201b60201c565b80600260006101000a81548173ffffffffffffffffffffffffffffffffffffffff021916908373ffffffffffffffffffffffffffffffffffffffff1602179055505062000207565b600033905090565b60008060009054906101000a900473ffffffffffffffffffffffffffffffffffffffff169050816000806101000a81548173ffffffffffffffffffffffffffffffffffffffff021916908373ffffffffffffffffffffffffffffffffffffffff1602179055508173ffffffffffffffffffffffffffffffffffffffff168173ffffffffffffffffffffffffffffffffffffffff167f8be0079c531659141344cd1fd0a4f28419497f9722a3daafe3b4186f6b6457e060405160405180910390a35050565b600080fd5b600073ffffffffffffffffffffffffffffffffffffffff82169050919050565b60006200019d8262000170565b9050919050565b620001af8162000190565b8114620001bb57600080fd5b50565b600081519050620001cf81620001a4565b92915050565b600060208284031215620001ee57620001ed6200016b565b5b6000620001fe84828501620001be565b91505092915050565b611e0480620002176000396000f3fe608060405234801561001057600080fd5b506004361061009e5760003560e01c8063715018a611610066578063715018a6146101475780638da5cb5b14610151578063b92c87af1461016f578063f2fde38b1461019f578063fc0c546a146101bb5761009e565b806306661abd146100a35780630700037d146100c1578063417ea8a7146100f15780634e71d92d146101215780636b6003851461012b575b600080fd5b6100ab6101d9565b6040516100b89190610f49565b60405180910390f35b6100db60048036038101906100d69190610fd6565b6101df565b6040516100e89190610f49565b60405180910390f35b61010b60048036038101906101069190611072565b6101f7565b6040516101189190610f49565b60405180910390f35b610129610249565b005b61014560048036038101906101409190611246565b6103f4565b005b61014f61075c565b005b6101596107e4565b60405161016691906112fe565b60405180910390f35b61018960048036038101906101849190611319565b61080d565b60405161019691906113b5565b60405180910390f35b6101b960048036038101906101b49190610fd6565b6109d4565b005b6101c3610acc565b6040516101d091906112fe565b60405180910390f35b60015481565b60036020528060005260406000206000915090505481565b6004602052846000526040600020602052836000526040600020602052826000526040600020602052816000526040600020602052806000526040600020600094509450505050508060010154905081565b6000600360003373ffffffffffffffffffffffffffffffffffffffff1673ffffffffffffffffffffffffffffffffffffffff16815260200190815260200160002054116102cb576040517f08c379a00000000000000000000000000000000000000000000000000000000081526004016102c29061142d565b60405180910390fd5b600260009054906101000a900473ffffffffffffffffffffffffffffffffffffffff1673ffffffffffffffffffffffffffffffffffffffff166323b872dd3033600360003373ffffffffffffffffffffffffffffffffffffffff1673ffffffffffffffffffffffffffffffffffffffff168152602001908152602001600020546040518463ffffffff1660e01b81526004016103699392919061144d565b6020604051808303816000875af1158015610388573d6000803e3d6000fd5b505050506040513d601f19601f820116820180604052508101906103ac91906114bc565b506000600360003373ffffffffffffffffffffffffffffffffffffffff1673ffffffffffffffffffffffffffffffffffffffff16815260200190815260200160002081905550565b6107b28560ff16101561043c576040517f08c379a000000000000000000000000000000000000000000000000000000000815260040161043390611535565b60405180910390fd5b6104508560ff168560ff168560ff16610af2565b61048f576040517f08c379a0000000000000000000000000000000000000000000000000000000008152600401610486906115a1565b60405180910390fd5b426104a48660ff168660ff168660ff16610b49565b106104e4576040517f08c379a00000000000000000000000000000000000000000000000000000000081526004016104db90611633565b60405180910390fd5b60006004600088815260200190815260200160002060008760ff1660ff16815260200190815260200160002060008660ff1660ff16815260200190815260200160002060008560ff1660ff16815260200190815260200160002060008460ff1660ff1681526020019081526020016000206001015414610599576040517f08c379a00000000000000000000000000000000000000000000000000000000081526004016105909061169f565b60405180910390fd5b6004815111156105de576040517f08c379a00000000000000000000000000000000000000000000000000000000081526004016105d59061170b565b60405180910390fd5b6040518060400160405280828152602001428152506004600088815260200190815260200160002060008760ff1660ff16815260200190815260200160002060008660ff1660ff16815260200190815260200160002060008560ff1660ff16815260200190815260200160002060008460ff1660ff168152602001908152602001600020600082015181600001908051906020019061067e929190610e6c565b50602082015181600101559050506001600081548092919061069f9061175a565b9190505550600360003373ffffffffffffffffffffffffffffffffffffffff1673ffffffffffffffffffffffffffffffffffffffff16815260200190815260200160002060008154809291906106f49061175a565b91905055503373ffffffffffffffffffffffffffffffffffffffff167fdf940bf3abcbab6050c73499cb20d2ddce8df82103c35917241044cd03e56d93428888888888885160405161074c97969594939291906117ed565b60405180910390a2505050505050565b610764610b6d565b73ffffffffffffffffffffffffffffffffffffffff166107826107e4565b73ffffffffffffffffffffffffffffffffffffffff16146107d8576040517f08c379a00000000000000000000000000000000000000000000000000000000081526004016107cf906118a8565b60405180910390fd5b6107e26000610b75565b565b60008060009054906101000a900473ffffffffffffffffffffffffffffffffffffffff16905090565b6000806004600089815260200190815260200160002060008860ff1660ff16815260200190815260200160002060008760ff1660ff16815260200190815260200160002060008660ff1660ff16815260200190815260200160002060008560ff1660ff168152602001908152602001600020604051806040016040529081600082018054806020026020016040519081016040528092919081815260200182805480156108ff57602002820191906000526020600020906000905b82829054906101000a900460ff1660ff16815260200190600101906020826000010492830192600103820291508084116108c85790505b505050505081526020016001820154815250509050600081602001511161095b576040517f08c379a000000000000000000000000000000000000000000000000000000000815260040161095290611914565b60405180910390fd5b8260ff16816000015151106109a5576040517f08c379a000000000000000000000000000000000000000000000000000000000815260040161099c90611980565b60405180910390fd5b80600001518360ff16815181106109bf576109be6119a0565b5b60200260200101519150509695505050505050565b6109dc610b6d565b73ffffffffffffffffffffffffffffffffffffffff166109fa6107e4565b73ffffffffffffffffffffffffffffffffffffffff1614610a50576040517f08c379a0000000000000000000000000000000000000000000000000000000008152600401610a47906118a8565b60405180910390fd5b600073ffffffffffffffffffffffffffffffffffffffff168173ffffffffffffffffffffffffffffffffffffffff161415610ac0576040517f08c379a0000000000000000000000000000000000000000000000000000000008152600401610ab790611a41565b60405180910390fd5b610ac981610b75565b50565b600260009054906101000a900473ffffffffffffffffffffffffffffffffffffffff1681565b60006107b28410158015610b065750600083115b8015610b135750600c8311155b15610b42576000610b248585610c39565b9050600083118015610b365750808311155b15610b4057600191505b505b9392505050565b600062015180610b5a858585610cc4565b610b649190611a61565b90509392505050565b600033905090565b60008060009054906101000a900473ffffffffffffffffffffffffffffffffffffffff169050816000806101000a81548173ffffffffffffffffffffffffffffffffffffffff021916908373ffffffffffffffffffffffffffffffffffffffff1602179055508173ffffffffffffffffffffffffffffffffffffffff168173ffffffffffffffffffffffffffffffffffffffff167f8be0079c531659141344cd1fd0a4f28419497f9722a3daafe3b4186f6b6457e060405160405180910390a35050565b60006001821480610c4a5750600382145b80610c555750600582145b80610c605750600782145b80610c6b5750600882145b80610c765750600a82145b80610c815750600c82145b15610c8f57601f9050610cbe565b60028214610ca057601e9050610cbd565b610ca983610e23565b610cb457601c610cb7565b601d5b60ff1690505b5b92915050565b60006107b2841015610cd557600080fd5b600084905060008490506000849050600062253d8c60046064600c600e87610cfd9190611ac5565b610d079190611b88565b61132488610d159190611bf2565b610d1f9190611bf2565b610d299190611b88565b6003610d359190611c86565b610d3f9190611b88565b600c80600c600e88610d519190611ac5565b610d5b9190611b88565b610d659190611c86565b600287610d729190611ac5565b610d7c9190611ac5565b61016f610d899190611c86565b610d939190611b88565b6004600c600e88610da49190611ac5565b610dae9190611b88565b6112c089610dbc9190611bf2565b610dc69190611bf2565b6105b5610dd39190611c86565b610ddd9190611b88565b617d4b86610deb9190611ac5565b610df59190611bf2565b610dff9190611bf2565b610e099190611ac5565b610e139190611ac5565b9050809450505050509392505050565b600080600483610e339190611d9d565b148015610e4d57506000606483610e4a9190611d9d565b14155b80610e655750600061019083610e639190611d9d565b145b9050919050565b82805482825590600052602060002090601f01602090048101928215610f025791602002820160005b83821115610ed357835183826101000a81548160ff021916908360ff1602179055509260200192600101602081600001049283019260010302610e95565b8015610f005782816101000a81549060ff0219169055600101602081600001049283019260010302610ed3565b505b509050610f0f9190610f13565b5090565b5b80821115610f2c576000816000905550600101610f14565b5090565b6000819050919050565b610f4381610f30565b82525050565b6000602082019050610f5e6000830184610f3a565b92915050565b6000604051905090565b600080fd5b600080fd5b600073ffffffffffffffffffffffffffffffffffffffff82169050919050565b6000610fa382610f78565b9050919050565b610fb381610f98565b8114610fbe57600080fd5b50565b600081359050610fd081610faa565b92915050565b600060208284031215610fec57610feb610f6e565b5b6000610ffa84828501610fc1565b91505092915050565b6000819050919050565b61101681611003565b811461102157600080fd5b50565b6000813590506110338161100d565b92915050565b600060ff82169050919050565b61104f81611039565b811461105a57600080fd5b50565b60008135905061106c81611046565b92915050565b600080600080600060a0868803121561108e5761108d610f6e565b5b600061109c88828901611024565b95505060206110ad8882890161105d565b94505060406110be8882890161105d565b93505060606110cf8882890161105d565b92505060806110e08882890161105d565b9150509295509295909350565b600080fd5b6000601f19601f8301169050919050565b7f4e487b7100000000000000000000000000000000000000000000000000000000600052604160045260246000fd5b61113b826110f2565b810181811067ffffffffffffffff8211171561115a57611159611103565b5b80604052505050565b600061116d610f64565b90506111798282611132565b919050565b600067ffffffffffffffff82111561119957611198611103565b5b602082029050602081019050919050565b600080fd5b60006111c26111bd8461117e565b611163565b905080838252602082019050602084028301858111156111e5576111e46111aa565b5b835b8181101561120e57806111fa888261105d565b8452602084019350506020810190506111e7565b5050509392505050565b600082601f83011261122d5761122c6110ed565b5b813561123d8482602086016111af565b91505092915050565b60008060008060008060c0878903121561126357611262610f6e565b5b600061127189828a01611024565b965050602061128289828a0161105d565b955050604061129389828a0161105d565b94505060606112a489828a0161105d565b93505060806112b589828a0161105d565b92505060a087013567ffffffffffffffff8111156112d6576112d5610f73565b5b6112e289828a01611218565b9150509295509295509295565b6112f881610f98565b82525050565b600060208201905061131360008301846112ef565b92915050565b60008060008060008060c0878903121561133657611335610f6e565b5b600061134489828a01611024565b965050602061135589828a0161105d565b955050604061136689828a0161105d565b945050606061137789828a0161105d565b935050608061138889828a0161105d565b92505060a061139989828a0161105d565b9150509295509295509295565b6113af81611039565b82525050565b60006020820190506113ca60008301846113a6565b92915050565b600082825260208201905092915050565b7f4e6f2072657761726473206561726e6564000000000000000000000000000000600082015250565b60006114176011836113d0565b9150611422826113e1565b602082019050919050565b600060208201905081810360008301526114468161140a565b9050919050565b600060608201905061146260008301866112ef565b61146f60208301856112ef565b61147c6040830184610f3a565b949350505050565b60008115159050919050565b61149981611484565b81146114a457600080fd5b50565b6000815190506114b681611490565b92915050565b6000602082840312156114d2576114d1610f6e565b5b60006114e0848285016114a7565b91505092915050565b7f546f6f2066617220696e20746865207061737400000000000000000000000000600082015250565b600061151f6013836113d0565b915061152a826114e9565b602082019050919050565b6000602082019050818103600083015261154e81611512565b9050919050565b7f496e76616c696420646174650000000000000000000000000000000000000000600082015250565b600061158b600c836113d0565b915061159682611555565b602082019050919050565b600060208201905081810360008301526115ba8161157e565b9050919050565b7f43616e6e6f742061646420726573756c7473206f66206675747572652065766560008201527f6e74730000000000000000000000000000000000000000000000000000000000602082015250565b600061161d6023836113d0565b9150611628826115c1565b604082019050919050565b6000602082019050818103600083015261164c81611610565b9050919050565b7f526573756c7473206861766520616c7265616479206164646564000000000000600082015250565b6000611689601a836113d0565b915061169482611653565b602082019050919050565b600060208201905081810360008301526116b88161167c565b9050919050565b7f546f6f206d616e7920726573756c747300000000000000000000000000000000600082015250565b60006116f56010836113d0565b9150611700826116bf565b602082019050919050565b60006020820190508181036000830152611724816116e8565b9050919050565b7f4e487b7100000000000000000000000000000000000000000000000000000000600052601160045260246000fd5b600061176582610f30565b91507fffffffffffffffffffffffffffffffffffffffffffffffffffffffffffffffff8214156117985761179761172b565b5b600182019050919050565b6117ac81611003565b82525050565b6000819050919050565b60006117d76117d26117cd84611039565b6117b2565b610f30565b9050919050565b6117e7816117bc565b82525050565b600060e082019050611802600083018a610f3a565b61180f60208301896117a3565b61181c60408301886117de565b61182960608301876117de565b61183660808301866117de565b61184360a08301856117de565b61185060c0830184610f3a565b98975050505050505050565b7f4f776e61626c653a2063616c6c6572206973206e6f7420746865206f776e6572600082015250565b60006118926020836113d0565b915061189d8261185c565b602082019050919050565b600060208201905081810360008301526118c181611885565b9050919050565b7f496e76616c696420726571756573740000000000000000000000000000000000600082015250565b60006118fe600f836113d0565b9150611909826118c8565b602082019050919050565b6000602082019050818103600083015261192d816118f1565b9050919050565b7f496e76616c696420706f736974696f6e00000000000000000000000000000000600082015250565b600061196a6010836113d0565b915061197582611934565b602082019050919050565b600060208201905081810360008301526119998161195d565b9050919050565b7f4e487b7100000000000000000000000000000000000000000000000000000000600052603260045260246000fd5b7f4f776e61626c653a206e6577206f776e657220697320746865207a65726f206160008201527f6464726573730000000000000000000000000000000000000000000000000000602082015250565b6000611a2b6026836113d0565b9150611a36826119cf565b604082019050919050565b60006020820190508181036000830152611a5a81611a1e565b9050919050565b6000611a6c82610f30565b9150611a7783610f30565b9250817fffffffffffffffffffffffffffffffffffffffffffffffffffffffffffffffff0483118215151615611ab057611aaf61172b565b5b828202905092915050565b6000819050919050565b6000611ad082611abb565b9150611adb83611abb565b9250827f800000000000000000000000000000000000000000000000000000000000000001821260008412151615611b1657611b1561172b565b5b827f7fffffffffffffffffffffffffffffffffffffffffffffffffffffffffffffff018213600084121615611b4e57611b4d61172b565b5b828203905092915050565b7f4e487b7100000000000000000000000000000000000000000000000000000000600052601260045260246000fd5b6000611b9382611abb565b9150611b9e83611abb565b925082611bae57611bad611b59565b5b600160000383147f800000000000000000000000000000000000000000000000000000000000000083141615611be757611be661172b565b5b828205905092915050565b6000611bfd82611abb565b9150611c0883611abb565b9250817f7fffffffffffffffffffffffffffffffffffffffffffffffffffffffffffffff03831360008312151615611c4357611c4261172b565b5b817f8000000000000000000000000000000000000000000000000000000000000000038312600083121615611c7b57611c7a61172b565b5b828201905092915050565b6000611c9182611abb565b9150611c9c83611abb565b9250827f7fffffffffffffffffffffffffffffffffffffffffffffffffffffffffffffff0482116000841360008413161615611cdb57611cda61172b565b5b817f80000000000000000000000000000000000000000000000000000000000000000583126000841260008413161615611d1857611d1761172b565b5b827f80000000000000000000000000000000000000000000000000000000000000000582126000841360008412161615611d5557611d5461172b565b5b827f7fffffffffffffffffffffffffffffffffffffffffffffffffffffffffffffff0582126000841260008412161615611d9257611d9161172b565b5b828202905092915050565b6000611da882610f30565b9150611db383610f30565b925082611dc357611dc2611b59565b5b82820690509291505056fea2646970667358221220082cb5f0b4f4b3c705275f0b046474724a0183cef17a5b1caa811af64236e13864736f6c634300080a0033",
  "immutableReferences": {},
  "source": "// SPDX-License-Identifier: MIT\npragma solidity =0.8.10;\n\nimport { Ownable } from \"@openzeppelin/contracts/access/Ownable.sol\";\nimport \"./BokkyPooBahsDateTimeLibrary.sol\";\nimport \"@openzeppelin/contracts/token/ERC20/ERC20.sol\";\n\nstruct Result {\n    uint8[] results;\n    uint256 timestamp;\n}\n\nstruct Track {\n    bytes32 name;\n    bytes32 mnemonic;\n    int8 timezone;\n    address owner;\n}\n\ncontract HorseLink is Ownable {\n    using BokkyPooBahsDateTimeLibrary for uint;\n    uint256 public count;\n    address public token;\n\n    mapping(address => uint256) public rewards;\n\n    // mapping(bytes32 => mapping(uint256 => mapping(uint256 => mapping(uint256 => mapping(uint256 => uint256[]))))) public results;\n    // track mnemonic, year, month, day, race number\n    mapping(bytes32 => mapping(uint8 => mapping(uint8 => mapping(uint8 => mapping(uint8 => Result))))) public results;\n\n    function getResult(bytes32 track, uint8 year, uint8 month, uint8 day, uint8 race, uint8 position) external view returns (uint8) {\n        Result memory result = results[track][year][month][day][race];\n\n        require(result.timestamp > 0, \"Invalid request\");\n        require(result.results.length < position, \"Invalid position\");\n        \n        return result.results[position];\n    }\n\n    constructor(address _token) {\n        token = _token;\n    }\n\n    function addResult(bytes32 mnemonic, uint8 year, uint8 month, uint8 day, uint8 race, uint8[] memory _results) public {\n        require(year >= 1970, \"Too far in the past\");\n        require(BokkyPooBahsDateTimeLibrary.isValidDate(year, month, day), \"Invalid date\");\n        require(BokkyPooBahsDateTimeLibrary.timestampFromDate(year, month, day) < block.timestamp, \"Cannot add results of future events\");\n        require(results[mnemonic][year][month][day][race].timestamp == 0, \"Results have already added\");\n        require(_results.length <= 4, \"Too many results\");\n        \n        results[mnemonic][year][month][day][race] = Result(_results, block.timestamp);\n        count++;\n        rewards[msg.sender]++;\n\n        emit ResultAdded(msg.sender, block.timestamp, mnemonic, year, month, day, race, _results.length);\n    }\n\n    function claim() public {\n        require(rewards[msg.sender] > 0, \"No rewards earned\");\n        IERC20(token).transferFrom(address(this), msg.sender, rewards[msg.sender]);\n        rewards[msg.sender] = 0;\n    }\n\n    event ResultAdded(address indexed who, uint256 timestamp, bytes32 mnemonic, uint256 year, uint256 month, uint256 day, uint256 race, uint256 total);\n}",
  "sourcePath": "/Users/lucascullen/GitHub/HorseLink/horse.link/contracts/HorseLink.sol",
  "compiler": {
    "name": "solc",
    "version": "0.8.10+commit.fc410830.Emscripten.clang"
  },
  "schemaVersion": "3.4.4",
  "updatedAt": "2022-04-09T02:36:57.202Z",
  "devdoc": {
    "kind": "dev",
    "methods": {
      "owner()": {
        "details": "Returns the address of the current owner."
      },
      "renounceOwnership()": {
        "details": "Leaves the contract without owner. It will not be possible to call `onlyOwner` functions anymore. Can only be called by the current owner. NOTE: Renouncing ownership will leave the contract without an owner, thereby removing any functionality that is only available to the owner."
      },
      "transferOwnership(address)": {
        "details": "Transfers ownership of the contract to a new account (`newOwner`). Can only be called by the current owner."
      }
    },
    "version": 1
  },
  "userdoc": {
    "kind": "user",
    "methods": {},
    "version": 1
  }
}