{
  "contractName": "LPToken",
  "abi": [
    {
      "inputs": [],
      "stateMutability": "nonpayable",
      "type": "constructor"
    },
    {
      "anonymous": false,
      "inputs": [
        {
          "indexed": true,
          "internalType": "address",
          "name": "owner",
          "type": "address"
        },
        {
          "indexed": true,
          "internalType": "address",
          "name": "spender",
          "type": "address"
        },
        {
          "indexed": false,
          "internalType": "uint256",
          "name": "value",
          "type": "uint256"
        }
      ],
      "name": "Approval",
      "type": "event"
    },
    {
      "anonymous": false,
      "inputs": [
        {
          "indexed": true,
          "internalType": "address",
          "name": "previousOwner",
          "type": "address"
        },
        {
          "indexed": true,
          "internalType": "address",
          "name": "newOwner",
          "type": "address"
        }
      ],
      "name": "OwnershipTransferred",
      "type": "event"
    },
    {
      "anonymous": false,
      "inputs": [
        {
          "indexed": true,
          "internalType": "address",
          "name": "from",
          "type": "address"
        },
        {
          "indexed": true,
          "internalType": "address",
          "name": "to",
          "type": "address"
        },
        {
          "indexed": false,
          "internalType": "uint256",
          "name": "value",
          "type": "uint256"
        }
      ],
      "name": "Transfer",
      "type": "event"
    },
    {
      "inputs": [
        {
          "internalType": "address",
          "name": "owner",
          "type": "address"
        },
        {
          "internalType": "address",
          "name": "spender",
          "type": "address"
        }
      ],
      "name": "allowance",
      "outputs": [
        {
          "internalType": "uint256",
          "name": "",
          "type": "uint256"
        }
      ],
      "stateMutability": "view",
      "type": "function"
    },
    {
      "inputs": [
        {
          "internalType": "address",
          "name": "spender",
          "type": "address"
        },
        {
          "internalType": "uint256",
          "name": "amount",
          "type": "uint256"
        }
      ],
      "name": "approve",
      "outputs": [
        {
          "internalType": "bool",
          "name": "",
          "type": "bool"
        }
      ],
      "stateMutability": "nonpayable",
      "type": "function"
    },
    {
      "inputs": [
        {
          "internalType": "address",
          "name": "account",
          "type": "address"
        }
      ],
      "name": "balanceOf",
      "outputs": [
        {
          "internalType": "uint256",
          "name": "",
          "type": "uint256"
        }
      ],
      "stateMutability": "view",
      "type": "function"
    },
    {
      "inputs": [],
      "name": "decimals",
      "outputs": [
        {
          "internalType": "uint8",
          "name": "",
          "type": "uint8"
        }
      ],
      "stateMutability": "view",
      "type": "function"
    },
    {
      "inputs": [
        {
          "internalType": "address",
          "name": "spender",
          "type": "address"
        },
        {
          "internalType": "uint256",
          "name": "subtractedValue",
          "type": "uint256"
        }
      ],
      "name": "decreaseAllowance",
      "outputs": [
        {
          "internalType": "bool",
          "name": "",
          "type": "bool"
        }
      ],
      "stateMutability": "nonpayable",
      "type": "function"
    },
    {
      "inputs": [
        {
          "internalType": "address",
          "name": "spender",
          "type": "address"
        },
        {
          "internalType": "uint256",
          "name": "addedValue",
          "type": "uint256"
        }
      ],
      "name": "increaseAllowance",
      "outputs": [
        {
          "internalType": "bool",
          "name": "",
          "type": "bool"
        }
      ],
      "stateMutability": "nonpayable",
      "type": "function"
    },
    {
      "inputs": [],
      "name": "name",
      "outputs": [
        {
          "internalType": "string",
          "name": "",
          "type": "string"
        }
      ],
      "stateMutability": "view",
      "type": "function"
    },
    {
      "inputs": [],
      "name": "owner",
      "outputs": [
        {
          "internalType": "address",
          "name": "",
          "type": "address"
        }
      ],
      "stateMutability": "view",
      "type": "function"
    },
    {
      "inputs": [],
      "name": "renounceOwnership",
      "outputs": [],
      "stateMutability": "nonpayable",
      "type": "function"
    },
    {
      "inputs": [],
      "name": "symbol",
      "outputs": [
        {
          "internalType": "string",
          "name": "",
          "type": "string"
        }
      ],
      "stateMutability": "view",
      "type": "function"
    },
    {
      "inputs": [],
      "name": "totalSupply",
      "outputs": [
        {
          "internalType": "uint256",
          "name": "",
          "type": "uint256"
        }
      ],
      "stateMutability": "view",
      "type": "function"
    },
    {
      "inputs": [
        {
          "internalType": "address",
          "name": "to",
          "type": "address"
        },
        {
          "internalType": "uint256",
          "name": "amount",
          "type": "uint256"
        }
      ],
      "name": "transfer",
      "outputs": [
        {
          "internalType": "bool",
          "name": "",
          "type": "bool"
        }
      ],
      "stateMutability": "nonpayable",
      "type": "function"
    },
    {
      "inputs": [
        {
          "internalType": "address",
          "name": "from",
          "type": "address"
        },
        {
          "internalType": "address",
          "name": "to",
          "type": "address"
        },
        {
          "internalType": "uint256",
          "name": "amount",
          "type": "uint256"
        }
      ],
      "name": "transferFrom",
      "outputs": [
        {
          "internalType": "bool",
          "name": "",
          "type": "bool"
        }
      ],
      "stateMutability": "nonpayable",
      "type": "function"
    },
    {
      "inputs": [
        {
          "internalType": "address",
          "name": "newOwner",
          "type": "address"
        }
      ],
      "name": "transferOwnership",
      "outputs": [],
      "stateMutability": "nonpayable",
      "type": "function"
    },
    {
      "inputs": [
        {
          "internalType": "address",
          "name": "to",
          "type": "address"
        },
        {
          "internalType": "uint256",
          "name": "amount",
          "type": "uint256"
        }
      ],
      "name": "mintTo",
      "outputs": [],
      "stateMutability": "nonpayable",
      "type": "function"
    },
    {
      "inputs": [
        {
          "internalType": "address",
          "name": "from",
          "type": "address"
        },
        {
          "internalType": "uint256",
          "name": "amount",
          "type": "uint256"
        }
      ],
      "name": "burnFrom",
      "outputs": [],
      "stateMutability": "nonpayable",
      "type": "function"
    }
  ],
  "bytecode": "0x60806040523480156200001157600080fd5b506040518060400160405280601481526020017f486f727365204c696e6b204c5020546f6b656e730000000000000000000000008152506040518060400160405280600581526020017f484f525345000000000000000000000000000000000000000000000000000000815250816003908051906020019062000096929190620001a6565b508060049080519060200190620000af929190620001a6565b505050620000d2620000c6620000d860201b60201c565b620000e060201b60201c565b620002bb565b600033905090565b6000600560009054906101000a900473ffffffffffffffffffffffffffffffffffffffff16905081600560006101000a81548173ffffffffffffffffffffffffffffffffffffffff021916908373ffffffffffffffffffffffffffffffffffffffff1602179055508173ffffffffffffffffffffffffffffffffffffffff168173ffffffffffffffffffffffffffffffffffffffff167f8be0079c531659141344cd1fd0a4f28419497f9722a3daafe3b4186f6b6457e060405160405180910390a35050565b828054620001b49062000285565b90600052602060002090601f016020900481019282620001d8576000855562000224565b82601f10620001f357805160ff191683800117855562000224565b8280016001018555821562000224579182015b828111156200022357825182559160200191906001019062000206565b5b50905062000233919062000237565b5090565b5b808211156200025257600081600090555060010162000238565b5090565b7f4e487b7100000000000000000000000000000000000000000000000000000000600052602260045260246000fd5b600060028204905060018216806200029e57607f821691505b60208210811415620002b557620002b462000256565b5b50919050565b611dc880620002cb6000396000f3fe608060405234801561001057600080fd5b50600436106101005760003560e01c8063715018a611610097578063a457c2d711610066578063a457c2d71461029d578063a9059cbb146102cd578063dd62ed3e146102fd578063f2fde38b1461032d57610100565b8063715018a61461023b57806379cc6790146102455780638da5cb5b1461026157806395d89b411461027f57610100565b8063313ce567116100d3578063313ce567146101a157806339509351146101bf578063449a52f8146101ef57806370a082311461020b57610100565b806306fdde0314610105578063095ea7b31461012357806318160ddd1461015357806323b872dd14610171575b600080fd5b61010d610349565b60405161011a9190611396565b60405180910390f35b61013d60048036038101906101389190611451565b6103db565b60405161014a91906114ac565b60405180910390f35b61015b6103fe565b60405161016891906114d6565b60405180910390f35b61018b600480360381019061018691906114f1565b610408565b60405161019891906114ac565b60405180910390f35b6101a9610437565b6040516101b69190611560565b60405180910390f35b6101d960048036038101906101d49190611451565b610440565b6040516101e691906114ac565b60405180910390f35b61020960048036038101906102049190611451565b6104ea565b005b6102256004803603810190610220919061157b565b610574565b60405161023291906114d6565b60405180910390f35b6102436105bc565b005b61025f600480360381019061025a9190611451565b610644565b005b6102696106ce565b60405161027691906115b7565b60405180910390f35b6102876106f8565b6040516102949190611396565b60405180910390f35b6102b760048036038101906102b29190611451565b61078a565b6040516102c491906114ac565b60405180910390f35b6102e760048036038101906102e29190611451565b610874565b6040516102f491906114ac565b60405180910390f35b610317600480360381019061031291906115d2565b610897565b60405161032491906114d6565b60405180910390f35b6103476004803603810190610342919061157b565b61091e565b005b60606003805461035890611641565b80601f016020809104026020016040519081016040528092919081815260200182805461038490611641565b80156103d15780601f106103a6576101008083540402835291602001916103d1565b820191906000526020600020905b8154815290600101906020018083116103b457829003601f168201915b5050505050905090565b6000806103e6610a16565b90506103f3818585610a1e565b600191505092915050565b6000600254905090565b600080610413610a16565b9050610420858285610be9565b61042b858585610c75565b60019150509392505050565b60006012905090565b60008061044b610a16565b90506104df818585600160008673ffffffffffffffffffffffffffffffffffffffff1673ffffffffffffffffffffffffffffffffffffffff16815260200190815260200160002060008973ffffffffffffffffffffffffffffffffffffffff1673ffffffffffffffffffffffffffffffffffffffff168152602001908152602001600020546104da91906116a2565b610a1e565b600191505092915050565b6104f2610a16565b73ffffffffffffffffffffffffffffffffffffffff166105106106ce565b73ffffffffffffffffffffffffffffffffffffffff1614610566576040517f08c379a000000000000000000000000000000000000000000000000000000000815260040161055d90611744565b60405180910390fd5b6105708282610ef6565b5050565b60008060008373ffffffffffffffffffffffffffffffffffffffff1673ffffffffffffffffffffffffffffffffffffffff168152602001908152602001600020549050919050565b6105c4610a16565b73ffffffffffffffffffffffffffffffffffffffff166105e26106ce565b73ffffffffffffffffffffffffffffffffffffffff1614610638576040517f08c379a000000000000000000000000000000000000000000000000000000000815260040161062f90611744565b60405180910390fd5b6106426000611056565b565b61064c610a16565b73ffffffffffffffffffffffffffffffffffffffff1661066a6106ce565b73ffffffffffffffffffffffffffffffffffffffff16146106c0576040517f08c379a00000000000000000000000000000000000000000000000000000000081526004016106b790611744565b60405180910390fd5b6106ca828261111c565b5050565b6000600560009054906101000a900473ffffffffffffffffffffffffffffffffffffffff16905090565b60606004805461070790611641565b80601f016020809104026020016040519081016040528092919081815260200182805461073390611641565b80156107805780601f1061075557610100808354040283529160200191610780565b820191906000526020600020905b81548152906001019060200180831161076357829003601f168201915b5050505050905090565b600080610795610a16565b90506000600160008373ffffffffffffffffffffffffffffffffffffffff1673ffffffffffffffffffffffffffffffffffffffff16815260200190815260200160002060008673ffffffffffffffffffffffffffffffffffffffff1673ffffffffffffffffffffffffffffffffffffffff1681526020019081526020016000205490508381101561085b576040517f08c379a0000000000000000000000000000000000000000000000000000000008152600401610852906117d6565b60405180910390fd5b6108688286868403610a1e565b60019250505092915050565b60008061087f610a16565b905061088c818585610c75565b600191505092915050565b6000600160008473ffffffffffffffffffffffffffffffffffffffff1673ffffffffffffffffffffffffffffffffffffffff16815260200190815260200160002060008373ffffffffffffffffffffffffffffffffffffffff1673ffffffffffffffffffffffffffffffffffffffff16815260200190815260200160002054905092915050565b610926610a16565b73ffffffffffffffffffffffffffffffffffffffff166109446106ce565b73ffffffffffffffffffffffffffffffffffffffff161461099a576040517f08c379a000000000000000000000000000000000000000000000000000000000815260040161099190611744565b60405180910390fd5b600073ffffffffffffffffffffffffffffffffffffffff168173ffffffffffffffffffffffffffffffffffffffff161415610a0a576040517f08c379a0000000000000000000000000000000000000000000000000000000008152600401610a0190611868565b60405180910390fd5b610a1381611056565b50565b600033905090565b600073ffffffffffffffffffffffffffffffffffffffff168373ffffffffffffffffffffffffffffffffffffffff161415610a8e576040517f08c379a0000000000000000000000000000000000000000000000000000000008152600401610a85906118fa565b60405180910390fd5b600073ffffffffffffffffffffffffffffffffffffffff168273ffffffffffffffffffffffffffffffffffffffff161415610afe576040517f08c379a0000000000000000000000000000000000000000000000000000000008152600401610af59061198c565b60405180910390fd5b80600160008573ffffffffffffffffffffffffffffffffffffffff1673ffffffffffffffffffffffffffffffffffffffff16815260200190815260200160002060008473ffffffffffffffffffffffffffffffffffffffff1673ffffffffffffffffffffffffffffffffffffffff168152602001908152602001600020819055508173ffffffffffffffffffffffffffffffffffffffff168373ffffffffffffffffffffffffffffffffffffffff167f8c5be1e5ebec7d5bd14f71427d1e84f3dd0314c0f7b2291e5b200ac8c7c3b92583604051610bdc91906114d6565b60405180910390a3505050565b6000610bf58484610897565b90507fffffffffffffffffffffffffffffffffffffffffffffffffffffffffffffffff8114610c6f5781811015610c61576040517f08c379a0000000000000000000000000000000000000000000000000000000008152600401610c58906119f8565b60405180910390fd5b610c6e8484848403610a1e565b5b50505050565b600073ffffffffffffffffffffffffffffffffffffffff168373ffffffffffffffffffffffffffffffffffffffff161415610ce5576040517f08c379a0000000000000000000000000000000000000000000000000000000008152600401610cdc90611a8a565b60405180910390fd5b600073ffffffffffffffffffffffffffffffffffffffff168273ffffffffffffffffffffffffffffffffffffffff161415610d55576040517f08c379a0000000000000000000000000000000000000000000000000000000008152600401610d4c90611b1c565b60405180910390fd5b610d608383836112f3565b60008060008573ffffffffffffffffffffffffffffffffffffffff1673ffffffffffffffffffffffffffffffffffffffff16815260200190815260200160002054905081811015610de6576040517f08c379a0000000000000000000000000000000000000000000000000000000008152600401610ddd90611bae565b60405180910390fd5b8181036000808673ffffffffffffffffffffffffffffffffffffffff1673ffffffffffffffffffffffffffffffffffffffff16815260200190815260200160002081905550816000808573ffffffffffffffffffffffffffffffffffffffff1673ffffffffffffffffffffffffffffffffffffffff1681526020019081526020016000206000828254610e7991906116a2565b925050819055508273ffffffffffffffffffffffffffffffffffffffff168473ffffffffffffffffffffffffffffffffffffffff167fddf252ad1be2c89b69c2b068fc378daa952ba7f163c4a11628f55a4df523b3ef84604051610edd91906114d6565b60405180910390a3610ef08484846112f8565b50505050565b600073ffffffffffffffffffffffffffffffffffffffff168273ffffffffffffffffffffffffffffffffffffffff161415610f66576040517f08c379a0000000000000000000000000000000000000000000000000000000008152600401610f5d90611c1a565b60405180910390fd5b610f72600083836112f3565b8060026000828254610f8491906116a2565b92505081905550806000808473ffffffffffffffffffffffffffffffffffffffff1673ffffffffffffffffffffffffffffffffffffffff1681526020019081526020016000206000828254610fd991906116a2565b925050819055508173ffffffffffffffffffffffffffffffffffffffff16600073ffffffffffffffffffffffffffffffffffffffff167fddf252ad1be2c89b69c2b068fc378daa952ba7f163c4a11628f55a4df523b3ef8360405161103e91906114d6565b60405180910390a3611052600083836112f8565b5050565b6000600560009054906101000a900473ffffffffffffffffffffffffffffffffffffffff16905081600560006101000a81548173ffffffffffffffffffffffffffffffffffffffff021916908373ffffffffffffffffffffffffffffffffffffffff1602179055508173ffffffffffffffffffffffffffffffffffffffff168173ffffffffffffffffffffffffffffffffffffffff167f8be0079c531659141344cd1fd0a4f28419497f9722a3daafe3b4186f6b6457e060405160405180910390a35050565b600073ffffffffffffffffffffffffffffffffffffffff168273ffffffffffffffffffffffffffffffffffffffff16141561118c576040517f08c379a000000000000000000000000000000000000000000000000000000000815260040161118390611cac565b60405180910390fd5b611198826000836112f3565b60008060008473ffffffffffffffffffffffffffffffffffffffff1673ffffffffffffffffffffffffffffffffffffffff1681526020019081526020016000205490508181101561121e576040517f08c379a000000000000000000000000000000000000000000000000000000000815260040161121590611d3e565b60405180910390fd5b8181036000808573ffffffffffffffffffffffffffffffffffffffff1673ffffffffffffffffffffffffffffffffffffffff1681526020019081526020016000208190555081600260008282546112759190611d5e565b92505081905550600073ffffffffffffffffffffffffffffffffffffffff168373ffffffffffffffffffffffffffffffffffffffff167fddf252ad1be2c89b69c2b068fc378daa952ba7f163c4a11628f55a4df523b3ef846040516112da91906114d6565b60405180910390a36112ee836000846112f8565b505050565b505050565b505050565b600081519050919050565b600082825260208201905092915050565b60005b8381101561133757808201518184015260208101905061131c565b83811115611346576000848401525b50505050565b6000601f19601f8301169050919050565b6000611368826112fd565b6113728185611308565b9350611382818560208601611319565b61138b8161134c565b840191505092915050565b600060208201905081810360008301526113b0818461135d565b905092915050565b600080fd5b600073ffffffffffffffffffffffffffffffffffffffff82169050919050565b60006113e8826113bd565b9050919050565b6113f8816113dd565b811461140357600080fd5b50565b600081359050611415816113ef565b92915050565b6000819050919050565b61142e8161141b565b811461143957600080fd5b50565b60008135905061144b81611425565b92915050565b60008060408385031215611468576114676113b8565b5b600061147685828601611406565b92505060206114878582860161143c565b9150509250929050565b60008115159050919050565b6114a681611491565b82525050565b60006020820190506114c1600083018461149d565b92915050565b6114d08161141b565b82525050565b60006020820190506114eb60008301846114c7565b92915050565b60008060006060848603121561150a576115096113b8565b5b600061151886828701611406565b935050602061152986828701611406565b925050604061153a8682870161143c565b9150509250925092565b600060ff82169050919050565b61155a81611544565b82525050565b60006020820190506115756000830184611551565b92915050565b600060208284031215611591576115906113b8565b5b600061159f84828501611406565b91505092915050565b6115b1816113dd565b82525050565b60006020820190506115cc60008301846115a8565b92915050565b600080604083850312156115e9576115e86113b8565b5b60006115f785828601611406565b925050602061160885828601611406565b9150509250929050565b7f4e487b7100000000000000000000000000000000000000000000000000000000600052602260045260246000fd5b6000600282049050600182168061165957607f821691505b6020821081141561166d5761166c611612565b5b50919050565b7f4e487b7100000000000000000000000000000000000000000000000000000000600052601160045260246000fd5b60006116ad8261141b565b91506116b88361141b565b9250827fffffffffffffffffffffffffffffffffffffffffffffffffffffffffffffffff038211156116ed576116ec611673565b5b828201905092915050565b7f4f776e61626c653a2063616c6c6572206973206e6f7420746865206f776e6572600082015250565b600061172e602083611308565b9150611739826116f8565b602082019050919050565b6000602082019050818103600083015261175d81611721565b9050919050565b7f45524332303a2064656372656173656420616c6c6f77616e63652062656c6f7760008201527f207a65726f000000000000000000000000000000000000000000000000000000602082015250565b60006117c0602583611308565b91506117cb82611764565b604082019050919050565b600060208201905081810360008301526117ef816117b3565b9050919050565b7f4f776e61626c653a206e6577206f776e657220697320746865207a65726f206160008201527f6464726573730000000000000000000000000000000000000000000000000000602082015250565b6000611852602683611308565b915061185d826117f6565b604082019050919050565b6000602082019050818103600083015261188181611845565b9050919050565b7f45524332303a20617070726f76652066726f6d20746865207a65726f2061646460008201527f7265737300000000000000000000000000000000000000000000000000000000602082015250565b60006118e4602483611308565b91506118ef82611888565b604082019050919050565b60006020820190508181036000830152611913816118d7565b9050919050565b7f45524332303a20617070726f766520746f20746865207a65726f20616464726560008201527f7373000000000000000000000000000000000000000000000000000000000000602082015250565b6000611976602283611308565b91506119818261191a565b604082019050919050565b600060208201905081810360008301526119a581611969565b9050919050565b7f45524332303a20696e73756666696369656e7420616c6c6f77616e6365000000600082015250565b60006119e2601d83611308565b91506119ed826119ac565b602082019050919050565b60006020820190508181036000830152611a11816119d5565b9050919050565b7f45524332303a207472616e736665722066726f6d20746865207a65726f20616460008201527f6472657373000000000000000000000000000000000000000000000000000000602082015250565b6000611a74602583611308565b9150611a7f82611a18565b604082019050919050565b60006020820190508181036000830152611aa381611a67565b9050919050565b7f45524332303a207472616e7366657220746f20746865207a65726f206164647260008201527f6573730000000000000000000000000000000000000000000000000000000000602082015250565b6000611b06602383611308565b9150611b1182611aaa565b604082019050919050565b60006020820190508181036000830152611b3581611af9565b9050919050565b7f45524332303a207472616e7366657220616d6f756e742065786365656473206260008201527f616c616e63650000000000000000000000000000000000000000000000000000602082015250565b6000611b98602683611308565b9150611ba382611b3c565b604082019050919050565b60006020820190508181036000830152611bc781611b8b565b9050919050565b7f45524332303a206d696e7420746f20746865207a65726f206164647265737300600082015250565b6000611c04601f83611308565b9150611c0f82611bce565b602082019050919050565b60006020820190508181036000830152611c3381611bf7565b9050919050565b7f45524332303a206275726e2066726f6d20746865207a65726f2061646472657360008201527f7300000000000000000000000000000000000000000000000000000000000000602082015250565b6000611c96602183611308565b9150611ca182611c3a565b604082019050919050565b60006020820190508181036000830152611cc581611c89565b9050919050565b7f45524332303a206275726e20616d6f756e7420657863656564732062616c616e60008201527f6365000000000000000000000000000000000000000000000000000000000000602082015250565b6000611d28602283611308565b9150611d3382611ccc565b604082019050919050565b60006020820190508181036000830152611d5781611d1b565b9050919050565b6000611d698261141b565b9150611d748361141b565b925082821015611d8757611d86611673565b5b82820390509291505056fea26469706673582212200720beb884282cbd109c7327836d0803e1e70f122bebeb007b3407231555d82d64736f6c634300080a0033",
  "immutableReferences": {},
  "source": "// SPDX-License-Identifier: MIT\npragma solidity =0.8.10;\n\nimport { Ownable } from \"@openzeppelin/contracts/access/Ownable.sol\";\nimport \"@openzeppelin/contracts/token/ERC20/ERC20.sol\";\nimport \"./IBurnable.sol\";\nimport \"./IMintable.sol\";\n\ncontract LPToken is IMintable, IBurnable, ERC20, Ownable {\n\n    constructor() ERC20(\"Horse Link LP Tokens\", \"HORSE\") {\n    }\n\n    function mintTo(address to, uint256 amount) external onlyOwner {\n        _mint(to, amount);\n    }\n\n    function burnFrom(address from, uint256 amount) external onlyOwner {\n        _burn(from, amount);\n    }\n}",
  "sourcePath": "/Users/lucascullen/GitHub/HorseLink/horse.link/contracts/LPToken.sol",
  "compiler": {
    "name": "solc",
    "version": "0.8.10+commit.fc410830.Emscripten.clang"
  },
  "schemaVersion": "3.4.4",
  "updatedAt": "2022-04-09T02:36:57.209Z",
  "devdoc": {
    "kind": "dev",
    "methods": {
      "allowance(address,address)": {
        "details": "See {IERC20-allowance}."
      },
      "approve(address,uint256)": {
        "details": "See {IERC20-approve}. NOTE: If `amount` is the maximum `uint256`, the allowance is not updated on `transferFrom`. This is semantically equivalent to an infinite approval. Requirements: - `spender` cannot be the zero address."
      },
      "balanceOf(address)": {
        "details": "See {IERC20-balanceOf}."
      },
      "decimals()": {
        "details": "Returns the number of decimals used to get its user representation. For example, if `decimals` equals `2`, a balance of `505` tokens should be displayed to a user as `5.05` (`505 / 10 ** 2`). Tokens usually opt for a value of 18, imitating the relationship between Ether and Wei. This is the value {ERC20} uses, unless this function is overridden; NOTE: This information is only used for _display_ purposes: it in no way affects any of the arithmetic of the contract, including {IERC20-balanceOf} and {IERC20-transfer}."
      },
      "decreaseAllowance(address,uint256)": {
        "details": "Atomically decreases the allowance granted to `spender` by the caller. This is an alternative to {approve} that can be used as a mitigation for problems described in {IERC20-approve}. Emits an {Approval} event indicating the updated allowance. Requirements: - `spender` cannot be the zero address. - `spender` must have allowance for the caller of at least `subtractedValue`."
      },
      "increaseAllowance(address,uint256)": {
        "details": "Atomically increases the allowance granted to `spender` by the caller. This is an alternative to {approve} that can be used as a mitigation for problems described in {IERC20-approve}. Emits an {Approval} event indicating the updated allowance. Requirements: - `spender` cannot be the zero address."
      },
      "name()": {
        "details": "Returns the name of the token."
      },
      "owner()": {
        "details": "Returns the address of the current owner."
      },
      "renounceOwnership()": {
        "details": "Leaves the contract without owner. It will not be possible to call `onlyOwner` functions anymore. Can only be called by the current owner. NOTE: Renouncing ownership will leave the contract without an owner, thereby removing any functionality that is only available to the owner."
      },
      "symbol()": {
        "details": "Returns the symbol of the token, usually a shorter version of the name."
      },
      "totalSupply()": {
        "details": "See {IERC20-totalSupply}."
      },
      "transfer(address,uint256)": {
        "details": "See {IERC20-transfer}. Requirements: - `to` cannot be the zero address. - the caller must have a balance of at least `amount`."
      },
      "transferFrom(address,address,uint256)": {
        "details": "See {IERC20-transferFrom}. Emits an {Approval} event indicating the updated allowance. This is not required by the EIP. See the note at the beginning of {ERC20}. NOTE: Does not update the allowance if the current allowance is the maximum `uint256`. Requirements: - `from` and `to` cannot be the zero address. - `from` must have a balance of at least `amount`. - the caller must have allowance for ``from``'s tokens of at least `amount`."
      },
      "transferOwnership(address)": {
        "details": "Transfers ownership of the contract to a new account (`newOwner`). Can only be called by the current owner."
      }
    },
    "version": 1
  },
  "userdoc": {
    "kind": "user",
    "methods": {},
    "version": 1
  }
}