{
  "contractName": "Market",
  "abi": [
    {
      "inputs": [
        {
          "internalType": "address",
          "name": "pool",
          "type": "address"
        },
        {
          "internalType": "uint256",
          "name": "fee",
          "type": "uint256"
        }
      ],
      "stateMutability": "nonpayable",
      "type": "constructor"
    },
    {
      "anonymous": false,
      "inputs": [
        {
          "indexed": false,
          "internalType": "uint256",
          "name": "index",
          "type": "uint256"
        },
        {
          "indexed": false,
          "internalType": "uint256",
          "name": "amount",
          "type": "uint256"
        },
        {
          "indexed": false,
          "internalType": "uint256",
          "name": "payout",
          "type": "uint256"
        },
        {
          "indexed": true,
          "internalType": "address",
          "name": "owner",
          "type": "address"
        }
      ],
      "name": "BetPlaced",
      "type": "event"
    },
    {
      "anonymous": false,
      "inputs": [
        {
          "indexed": false,
          "internalType": "uint256",
          "name": "index",
          "type": "uint256"
        },
        {
          "indexed": false,
          "internalType": "uint256",
          "name": "amount",
          "type": "uint256"
        },
        {
          "indexed": false,
          "internalType": "uint256",
          "name": "payout",
          "type": "uint256"
        },
        {
          "indexed": true,
          "internalType": "address",
          "name": "owner",
          "type": "address"
        }
      ],
      "name": "Claimed",
      "type": "event"
    },
    {
      "anonymous": false,
      "inputs": [
        {
          "indexed": true,
          "internalType": "address",
          "name": "previousOwner",
          "type": "address"
        },
        {
          "indexed": true,
          "internalType": "address",
          "name": "newOwner",
          "type": "address"
        }
      ],
      "name": "OwnershipTransferred",
      "type": "event"
    },
    {
      "inputs": [],
      "name": "min",
      "outputs": [
        {
          "internalType": "uint256",
          "name": "",
          "type": "uint256"
        }
      ],
      "stateMutability": "view",
      "type": "function"
    },
    {
      "inputs": [],
      "name": "oracle",
      "outputs": [
        {
          "internalType": "address",
          "name": "",
          "type": "address"
        }
      ],
      "stateMutability": "view",
      "type": "function"
    },
    {
      "inputs": [],
      "name": "owner",
      "outputs": [
        {
          "internalType": "address",
          "name": "",
          "type": "address"
        }
      ],
      "stateMutability": "view",
      "type": "function"
    },
    {
      "inputs": [],
      "name": "renounceOwnership",
      "outputs": [],
      "stateMutability": "nonpayable",
      "type": "function"
    },
    {
      "inputs": [],
      "name": "timeout",
      "outputs": [
        {
          "internalType": "uint256",
          "name": "",
          "type": "uint256"
        }
      ],
      "stateMutability": "view",
      "type": "function"
    },
    {
      "inputs": [
        {
          "internalType": "address",
          "name": "newOwner",
          "type": "address"
        }
      ],
      "name": "transferOwnership",
      "outputs": [],
      "stateMutability": "nonpayable",
      "type": "function"
    },
    {
      "inputs": [],
      "name": "getTotalInplay",
      "outputs": [
        {
          "internalType": "uint256",
          "name": "",
          "type": "uint256"
        }
      ],
      "stateMutability": "view",
      "type": "function"
    },
    {
      "inputs": [],
      "name": "getInplayCount",
      "outputs": [
        {
          "internalType": "uint256",
          "name": "",
          "type": "uint256"
        }
      ],
      "stateMutability": "view",
      "type": "function"
    },
    {
      "inputs": [],
      "name": "getPoolAddress",
      "outputs": [
        {
          "internalType": "address",
          "name": "",
          "type": "address"
        }
      ],
      "stateMutability": "view",
      "type": "function"
    },
    {
      "inputs": [
        {
          "internalType": "uint256",
          "name": "index",
          "type": "uint256"
        }
      ],
      "name": "getBet",
      "outputs": [
        {
          "internalType": "uint256",
          "name": "",
          "type": "uint256"
        },
        {
          "internalType": "uint256",
          "name": "",
          "type": "uint256"
        },
        {
          "internalType": "uint256",
          "name": "",
          "type": "uint256"
        },
        {
          "internalType": "bool",
          "name": "",
          "type": "bool"
        },
        {
          "internalType": "address",
          "name": "",
          "type": "address"
        }
      ],
      "stateMutability": "view",
      "type": "function"
    },
    {
      "inputs": [
        {
          "internalType": "bytes32",
          "name": "id",
          "type": "bytes32"
        },
        {
          "internalType": "uint256",
          "name": "amount",
          "type": "uint256"
        },
        {
          "internalType": "uint256",
          "name": "odds",
          "type": "uint256"
        },
        {
          "internalType": "uint256",
          "name": "start",
          "type": "uint256"
        },
        {
          "internalType": "uint256",
          "name": "end",
          "type": "uint256"
        },
        {
          "internalType": "bytes",
          "name": "signature",
          "type": "bytes"
        }
      ],
      "name": "back",
      "outputs": [
        {
          "internalType": "uint256",
          "name": "",
          "type": "uint256"
        }
      ],
      "stateMutability": "nonpayable",
      "type": "function"
    },
    {
      "inputs": [],
      "name": "claimAll",
      "outputs": [],
      "stateMutability": "nonpayable",
      "type": "function"
    },
    {
      "inputs": [
        {
          "internalType": "uint256",
          "name": "index",
          "type": "uint256"
        }
      ],
      "name": "claim",
      "outputs": [],
      "stateMutability": "nonpayable",
      "type": "function"
    }
  ],
  "bytecode": "0x60c06040523480156200001157600080fd5b50604051620017d6380380620017d683398181016040528101906200003791906200021f565b620000576200004b620000ae60201b60201c565b620000b660201b60201c565b8173ffffffffffffffffffffffffffffffffffffffff1660808173ffffffffffffffffffffffffffffffffffffffff16815250508060a0818152505062278d00600581905550610e10600681905550505062000266565b600033905090565b60008060009054906101000a900473ffffffffffffffffffffffffffffffffffffffff169050816000806101000a81548173ffffffffffffffffffffffffffffffffffffffff021916908373ffffffffffffffffffffffffffffffffffffffff1602179055508173ffffffffffffffffffffffffffffffffffffffff168173ffffffffffffffffffffffffffffffffffffffff167f8be0079c531659141344cd1fd0a4f28419497f9722a3daafe3b4186f6b6457e060405160405180910390a35050565b600080fd5b600073ffffffffffffffffffffffffffffffffffffffff82169050919050565b6000620001ac826200017f565b9050919050565b620001be816200019f565b8114620001ca57600080fd5b50565b600081519050620001de81620001b3565b92915050565b6000819050919050565b620001f981620001e4565b81146200020557600080fd5b50565b6000815190506200021981620001ee565b92915050565b600080604083850312156200023957620002386200017a565b5b60006200024985828601620001cd565b92505060206200025c8582860162000208565b9150509250929050565b60805160a05161154662000290600039600050506000818161057001526109c901526115466000f3fe608060405234801561001057600080fd5b50600436106100cf5760003560e01c80637dc0d1d01161008c578063d1058e5911610066578063d1058e59146101f4578063f2fde38b146101fe578063f586c6d91461021a578063f889794514610238576100cf565b80637dc0d1d01461019a5780638da5cb5b146101b85780639bb41f72146101d6576100cf565b8063061e494f146100d457806327f5c8ca14610108578063379607f5146101265780635d7e5d341461014257806370dea79a14610172578063715018a614610190575b600080fd5b6100ee60048036038101906100e99190610bc1565b610256565b6040516100ff959493929190610c59565b60405180910390f35b61011061035c565b60405161011d9190610cac565b60405180910390f35b610140600480360381019061013b9190610bc1565b610366565b005b61015c60048036038101906101579190610e43565b610479565b6040516101699190610cac565b60405180910390f35b61017a6107e1565b6040516101879190610cac565b60405180910390f35b6101986107e7565b005b6101a261086f565b6040516101af9190610eec565b60405180910390f35b6101c0610895565b6040516101cd9190610eec565b60405180910390f35b6101de6108be565b6040516101eb9190610cac565b60405180910390f35b6101fc6108cb565b005b61021860048036038101906102139190610f33565b6108cd565b005b6102226109c5565b60405161022f9190610eec565b60405180910390f35b6102406109ed565b60405161024d9190610cac565b60405180910390f35b60008060008060006001868154811061027257610271610f60565b5b9060005260206000209060050201600101546001878154811061029857610297610f60565b5b906000526020600020906005020160020154600188815481106102be576102bd610f60565b5b906000526020600020906005020160030154600189815481106102e4576102e3610f60565b5b906000526020600020906005020160040160009054906101000a900460ff1660018a8154811061031757610316610f60565b5b906000526020600020906005020160040160019054906101000a900473ffffffffffffffffffffffffffffffffffffffff169450945094509450945091939590929450565b6000615545905090565b600015156001828154811061037e5761037d610f60565b5b906000526020600020906005020160040160009054906101000a900460ff161515146103df576040517f08c379a00000000000000000000000000000000000000000000000000000000081526004016103d690610fec565b60405180910390fd5b600181815481106103f3576103f2610f60565b5b90600052602060002090600502016003015442610410919061103b565b6001828154811061042457610423610f60565b5b90600052602060002090600502016003015410610476576040517f08c379a000000000000000000000000000000000000000000000000000000000815260040161046d906110dd565b60405180910390fd5b50565b60004284106104bd576040517f08c379a00000000000000000000000000000000000000000000000000000000081526004016104b490611149565b60405180910390fd5b600087878787876040516020016104d89594939291906111ab565b60405160208183030381529060405280519060200120905060006104fc82856109f3565b90503373ffffffffffffffffffffffffffffffffffffffff168173ffffffffffffffffffffffffffffffffffffffff161461056c576040517f08c379a000000000000000000000000000000000000000000000000000000000815260040161056390611256565b60405180910390fd5b60007f000000000000000000000000000000000000000000000000000000000000000073ffffffffffffffffffffffffffffffffffffffff16639816f4736040518163ffffffff1660e01b81526004016020604051808303816000875af11580156105db573d6000803e3d6000fd5b505050506040513d601f19601f820116820180604052508101906105ff919061128b565b90508073ffffffffffffffffffffffffffffffffffffffff166323b872dd33308c6040518463ffffffff1660e01b815260040161063e939291906112b8565b6020604051808303816000875af115801561065d573d6000803e3d6000fd5b505050506040513d601f19601f82011682018060405250810190610681919061131b565b5060016040518060c001604052808c81526020018b81526020018a8c6106a79190611348565b81526020018981526020016000151581526020018473ffffffffffffffffffffffffffffffffffffffff1681525090806001815401808255809150506001900390600052602060002090600502016000909190919091506000820151816000015560208201518160010155604082015181600201556060820151816003015560808201518160040160006101000a81548160ff02191690831515021790555060a08201518160040160016101000a81548173ffffffffffffffffffffffffffffffffffffffff021916908373ffffffffffffffffffffffffffffffffffffffff160217905550505088600260008282546107a1919061103b565b9250508190555087896107b49190611348565b600360008282546107c5919061103b565b9250508190555060018054905093505050509695505050505050565b60055481565b6107ef610a68565b73ffffffffffffffffffffffffffffffffffffffff1661080d610895565b73ffffffffffffffffffffffffffffffffffffffff1614610863576040517f08c379a000000000000000000000000000000000000000000000000000000000815260040161085a906113ee565b60405180910390fd5b61086d6000610a70565b565b600460009054906101000a900473ffffffffffffffffffffffffffffffffffffffff1681565b60008060009054906101000a900473ffffffffffffffffffffffffffffffffffffffff16905090565b6000600180549050905090565b565b6108d5610a68565b73ffffffffffffffffffffffffffffffffffffffff166108f3610895565b73ffffffffffffffffffffffffffffffffffffffff1614610949576040517f08c379a0000000000000000000000000000000000000000000000000000000008152600401610940906113ee565b60405180910390fd5b600073ffffffffffffffffffffffffffffffffffffffff168173ffffffffffffffffffffffffffffffffffffffff1614156109b9576040517f08c379a00000000000000000000000000000000000000000000000000000000081526004016109b090611480565b60405180910390fd5b6109c281610a70565b50565b60007f0000000000000000000000000000000000000000000000000000000000000000905090565b60065481565b600080600080610a0285610b34565b80935081945082955050505060018684848460405160008152602001604052604051610a3194939291906114cb565b6020604051602081039080840390855afa158015610a53573d6000803e3d6000fd5b50505060206040510351935050505092915050565b600033905090565b60008060009054906101000a900473ffffffffffffffffffffffffffffffffffffffff169050816000806101000a81548173ffffffffffffffffffffffffffffffffffffffff021916908373ffffffffffffffffffffffffffffffffffffffff1602179055508173ffffffffffffffffffffffffffffffffffffffff168173ffffffffffffffffffffffffffffffffffffffff167f8be0079c531659141344cd1fd0a4f28419497f9722a3daafe3b4186f6b6457e060405160405180910390a35050565b60008060006041845114610b4757600080fd5b60008060006020870151925060408701519150606087015160001a90508083839550955095505050509193909250565b6000604051905090565b600080fd5b600080fd5b6000819050919050565b610b9e81610b8b565b8114610ba957600080fd5b50565b600081359050610bbb81610b95565b92915050565b600060208284031215610bd757610bd6610b81565b5b6000610be584828501610bac565b91505092915050565b610bf781610b8b565b82525050565b60008115159050919050565b610c1281610bfd565b82525050565b600073ffffffffffffffffffffffffffffffffffffffff82169050919050565b6000610c4382610c18565b9050919050565b610c5381610c38565b82525050565b600060a082019050610c6e6000830188610bee565b610c7b6020830187610bee565b610c886040830186610bee565b610c956060830185610c09565b610ca26080830184610c4a565b9695505050505050565b6000602082019050610cc16000830184610bee565b92915050565b6000819050919050565b610cda81610cc7565b8114610ce557600080fd5b50565b600081359050610cf781610cd1565b92915050565b600080fd5b600080fd5b6000601f19601f8301169050919050565b7f4e487b7100000000000000000000000000000000000000000000000000000000600052604160045260246000fd5b610d5082610d07565b810181811067ffffffffffffffff82111715610d6f57610d6e610d18565b5b80604052505050565b6000610d82610b77565b9050610d8e8282610d47565b919050565b600067ffffffffffffffff821115610dae57610dad610d18565b5b610db782610d07565b9050602081019050919050565b82818337600083830152505050565b6000610de6610de184610d93565b610d78565b905082815260208101848484011115610e0257610e01610d02565b5b610e0d848285610dc4565b509392505050565b600082601f830112610e2a57610e29610cfd565b5b8135610e3a848260208601610dd3565b91505092915050565b60008060008060008060c08789031215610e6057610e5f610b81565b5b6000610e6e89828a01610ce8565b9650506020610e7f89828a01610bac565b9550506040610e9089828a01610bac565b9450506060610ea189828a01610bac565b9350506080610eb289828a01610bac565b92505060a087013567ffffffffffffffff811115610ed357610ed2610b86565b5b610edf89828a01610e15565b9150509295509295509295565b6000602082019050610f016000830184610c4a565b92915050565b610f1081610c38565b8114610f1b57600080fd5b50565b600081359050610f2d81610f07565b92915050565b600060208284031215610f4957610f48610b81565b5b6000610f5784828501610f1e565b91505092915050565b7f4e487b7100000000000000000000000000000000000000000000000000000000600052603260045260246000fd5b600082825260208201905092915050565b7f4265742068617320616c7265616479206265656e20636c61696d656400000000600082015250565b6000610fd6601c83610f8f565b9150610fe182610fa0565b602082019050919050565b6000602082019050818103600083015261100581610fc9565b9050919050565b7f4e487b7100000000000000000000000000000000000000000000000000000000600052601160045260246000fd5b600061104682610b8b565b915061105183610b8b565b9250827fffffffffffffffffffffffffffffffffffffffffffffffffffffffffffffffff038211156110865761108561100c565b5b828201905092915050565b7f4d61726b6574206e6f7420636c6f736564000000000000000000000000000000600082015250565b60006110c7601183610f8f565b91506110d282611091565b602082019050919050565b600060208201905081810360008301526110f6816110ba565b9050919050565b7f42657474696e672073746172742074696d652068617320706173736564000000600082015250565b6000611133601d83610f8f565b915061113e826110fd565b602082019050919050565b6000602082019050818103600083015261116281611126565b9050919050565b6000819050919050565b61118461117f82610cc7565b611169565b82525050565b6000819050919050565b6111a56111a082610b8b565b61118a565b82525050565b60006111b78288611173565b6020820191506111c78287611194565b6020820191506111d78286611194565b6020820191506111e78285611194565b6020820191506111f78284611194565b6020820191508190509695505050505050565b7f496e76616c6964207369676e6174757265000000000000000000000000000000600082015250565b6000611240601183610f8f565b915061124b8261120a565b602082019050919050565b6000602082019050818103600083015261126f81611233565b9050919050565b60008151905061128581610f07565b92915050565b6000602082840312156112a1576112a0610b81565b5b60006112af84828501611276565b91505092915050565b60006060820190506112cd6000830186610c4a565b6112da6020830185610c4a565b6112e76040830184610bee565b949350505050565b6112f881610bfd565b811461130357600080fd5b50565b600081519050611315816112ef565b92915050565b60006020828403121561133157611330610b81565b5b600061133f84828501611306565b91505092915050565b600061135382610b8b565b915061135e83610b8b565b9250817fffffffffffffffffffffffffffffffffffffffffffffffffffffffffffffffff04831182151516156113975761139661100c565b5b828202905092915050565b7f4f776e61626c653a2063616c6c6572206973206e6f7420746865206f776e6572600082015250565b60006113d8602083610f8f565b91506113e3826113a2565b602082019050919050565b60006020820190508181036000830152611407816113cb565b9050919050565b7f4f776e61626c653a206e6577206f776e657220697320746865207a65726f206160008201527f6464726573730000000000000000000000000000000000000000000000000000602082015250565b600061146a602683610f8f565b91506114758261140e565b604082019050919050565b600060208201905081810360008301526114998161145d565b9050919050565b6114a981610cc7565b82525050565b600060ff82169050919050565b6114c5816114af565b82525050565b60006080820190506114e060008301876114a0565b6114ed60208301866114bc565b6114fa60408301856114a0565b61150760608301846114a0565b9594505050505056fea2646970667358221220a7aaec65c5f9dec73b1210a3cdf43b1a4cb20c53564c5bc38b4e3f8082b4865d64736f6c634300080a0033",
  "immutableReferences": {
    "6479": [
      {
        "length": 32,
        "start": 1392
      },
      {
        "length": 32,
        "start": 2505
      }
    ]
  },
  "source": "// SPDX-License-Identifier: MIT\npragma solidity =0.8.10;\n\nimport \"@openzeppelin/contracts/access/Ownable.sol\";\nimport \"@openzeppelin/contracts/token/ERC20/IERC20.sol\";\nimport \"./IPool.sol\";\nimport \"./IMarket.sol\";\n\nstruct Bet {\n    bytes32 id;\n    uint256 amount;\n    uint256 payout;\n    uint256 payoutDate;    \n    bool claimed;\n    address owner;\n}\n\ncontract Market is IMarket, Ownable {\n\n    address private immutable _pool;\n    uint256 private immutable _fee;\n\n    // mapping(address => Bet[]) private _bets;\n\n    Bet[] private _bets;\n\n    uint256 private _totalInPlay;\n    uint256 private _totalDebt;\n\n    address public oracle;\n\n    uint256 public timeout;\n    uint256 public min;\n\n    function getTotalInplay() public view returns (uint256) {\n        //return _totalInPlay;\n        // Note: Hardcode this for testing\n        return 21829;\n    }\n\n    function getInplayCount() public view returns (uint256) {\n        return _bets.length;\n    }\n\n    function getPoolAddress() external view returns (address) {\n        return _pool;\n    }\n\n    constructor(address pool, uint256 fee) {\n        _pool = pool;\n        _fee = fee;\n\n        timeout = 30 days;\n        min = 1 hours;\n    }\n\n    function getBet(uint256 index) external view returns (uint256, uint256, uint256, bool, address) {\n        return (_bets[index].amount, _bets[index].payout, _bets[index].payoutDate, _bets[index].claimed, _bets[index].owner);\n    }\n\n    function back(bytes32 id, uint256 amount, uint256 odds, uint256 start, uint256 end, bytes memory signature) external returns (uint256) {\n        require(start < block.timestamp, \"Betting start time has passed\");\n        bytes32 message = keccak256(abi.encodePacked(id, amount, odds, start, end));\n        address owner = recoverSigner(message, signature);\n\n        require(owner == msg.sender, \"Invalid signature\");\n        address underlying = IPool(_pool).getUnderlying();\n\n        IERC20(underlying).transferFrom(msg.sender, address(this), amount);\n        _bets.push(Bet(id, amount, amount * odds, start, false, owner));\n\n        _totalInPlay += amount;\n        _totalDebt += amount * odds;\n\n        // emit BetPlaced(id, amount, odds, start, end, owner);\n\n        return _bets.length;\n    }\n\n    function claimAll() public {\n\n    }\n\n    function claim(uint256 index) external {\n        require(_bets[index].claimed == false, \"Bet has already been claimed\");\n        require(_bets[index].payoutDate < block.timestamp + _bets[index].payoutDate, \"Market not closed\");\n    }\n\n    function recoverSigner(bytes32 message, bytes memory signature)\n        internal\n        pure\n        returns (address)\n    {\n        uint8 v;\n        bytes32 r;\n        bytes32 s;\n\n        (v, r, s) = splitSignature(signature);\n\n        return ecrecover(message, v, r, s);\n    }\n\n    function splitSignature(bytes memory signature)\n        internal\n        pure\n        returns (uint8, bytes32, bytes32)\n    {\n        require(signature.length == 65);\n\n        bytes32 r;\n        bytes32 s;\n        uint8 v;\n\n        assembly {\n            // first 32 bytes, after the length prefix\n            r := mload(add(signature, 32))\n            // second 32 bytes\n            s := mload(add(signature, 64))\n            // final byte (first byte of the next 32 bytes)\n            v := byte(0, mload(add(signature, 96)))\n        }\n\n        return (v, r, s);\n    }\n\n    event BetPlaced(uint256 index, uint256 amount, uint256 payout, address indexed owner);\n    event Claimed(uint256 index, uint256 amount, uint256 payout, address indexed owner);\n}",
  "sourcePath": "/Users/lucascullen/GitHub/HorseLink/horse.link/contracts/Market.sol",
  "compiler": {
    "name": "solc",
    "version": "0.8.10+commit.fc410830.Emscripten.clang"
  },
  "schemaVersion": "3.4.4",
  "updatedAt": "2022-04-09T02:36:57.212Z",
  "devdoc": {
    "kind": "dev",
    "methods": {
      "owner()": {
        "details": "Returns the address of the current owner."
      },
      "renounceOwnership()": {
        "details": "Leaves the contract without owner. It will not be possible to call `onlyOwner` functions anymore. Can only be called by the current owner. NOTE: Renouncing ownership will leave the contract without an owner, thereby removing any functionality that is only available to the owner."
      },
      "transferOwnership(address)": {
        "details": "Transfers ownership of the contract to a new account (`newOwner`). Can only be called by the current owner."
      }
    },
    "version": 1
  },
  "userdoc": {
    "kind": "user",
    "methods": {},
    "version": 1
  }
}