{
  "contractName": "Pool",
  "abi": [
    {
      "inputs": [
        {
          "internalType": "address",
          "name": "underlying",
          "type": "address"
        }
      ],
      "stateMutability": "nonpayable",
      "type": "constructor"
    },
    {
      "anonymous": false,
      "inputs": [
        {
          "indexed": true,
          "internalType": "address",
          "name": "who",
          "type": "address"
        },
        {
          "indexed": false,
          "internalType": "uint256",
          "name": "value",
          "type": "uint256"
        }
      ],
      "name": "Exited",
      "type": "event"
    },
    {
      "anonymous": false,
      "inputs": [
        {
          "indexed": true,
          "internalType": "address",
          "name": "previousOwner",
          "type": "address"
        },
        {
          "indexed": true,
          "internalType": "address",
          "name": "newOwner",
          "type": "address"
        }
      ],
      "name": "OwnershipTransferred",
      "type": "event"
    },
    {
      "anonymous": false,
      "inputs": [
        {
          "indexed": true,
          "internalType": "address",
          "name": "owner",
          "type": "address"
        },
        {
          "indexed": false,
          "internalType": "uint256",
          "name": "value",
          "type": "uint256"
        }
      ],
      "name": "Supplied",
      "type": "event"
    },
    {
      "inputs": [],
      "name": "_market",
      "outputs": [
        {
          "internalType": "address",
          "name": "",
          "type": "address"
        }
      ],
      "stateMutability": "view",
      "type": "function"
    },
    {
      "inputs": [],
      "name": "owner",
      "outputs": [
        {
          "internalType": "address",
          "name": "",
          "type": "address"
        }
      ],
      "stateMutability": "view",
      "type": "function"
    },
    {
      "inputs": [],
      "name": "renounceOwnership",
      "outputs": [],
      "stateMutability": "nonpayable",
      "type": "function"
    },
    {
      "inputs": [
        {
          "internalType": "address",
          "name": "newOwner",
          "type": "address"
        }
      ],
      "name": "transferOwnership",
      "outputs": [],
      "stateMutability": "nonpayable",
      "type": "function"
    },
    {
      "inputs": [
        {
          "internalType": "address",
          "name": "market",
          "type": "address"
        }
      ],
      "name": "getMarket",
      "outputs": [],
      "stateMutability": "nonpayable",
      "type": "function"
    },
    {
      "inputs": [],
      "name": "getUnderlying",
      "outputs": [
        {
          "internalType": "address",
          "name": "",
          "type": "address"
        }
      ],
      "stateMutability": "view",
      "type": "function"
    },
    {
      "inputs": [],
      "name": "getUnderlyingBalance",
      "outputs": [
        {
          "internalType": "uint256",
          "name": "",
          "type": "uint256"
        }
      ],
      "stateMutability": "view",
      "type": "function"
    },
    {
      "inputs": [],
      "name": "getPoolPerformance",
      "outputs": [
        {
          "internalType": "uint256",
          "name": "",
          "type": "uint256"
        }
      ],
      "stateMutability": "nonpayable",
      "type": "function"
    },
    {
      "inputs": [],
      "name": "totalSupplied",
      "outputs": [
        {
          "internalType": "uint256",
          "name": "",
          "type": "uint256"
        }
      ],
      "stateMutability": "view",
      "type": "function"
    },
    {
      "inputs": [],
      "name": "totalReserves",
      "outputs": [
        {
          "internalType": "uint256",
          "name": "",
          "type": "uint256"
        }
      ],
      "stateMutability": "view",
      "type": "function"
    },
    {
      "inputs": [
        {
          "internalType": "address",
          "name": "who",
          "type": "address"
        }
      ],
      "name": "supplied",
      "outputs": [
        {
          "internalType": "uint256",
          "name": "",
          "type": "uint256"
        }
      ],
      "stateMutability": "view",
      "type": "function"
    },
    {
      "inputs": [
        {
          "internalType": "address",
          "name": "who",
          "type": "address"
        }
      ],
      "name": "balanceOf",
      "outputs": [
        {
          "internalType": "uint256",
          "name": "",
          "type": "uint256"
        }
      ],
      "stateMutability": "view",
      "type": "function"
    },
    {
      "inputs": [
        {
          "internalType": "uint256",
          "name": "amount",
          "type": "uint256"
        }
      ],
      "name": "supply",
      "outputs": [],
      "stateMutability": "nonpayable",
      "type": "function"
    },
    {
      "inputs": [
        {
          "internalType": "uint256",
          "name": "amount",
          "type": "uint256"
        }
      ],
      "name": "exit",
      "outputs": [],
      "stateMutability": "nonpayable",
      "type": "function"
    }
  ],
  "bytecode": "0x60c06040523480156200001157600080fd5b5060405162001563380380620015638339818101604052810190620000379190620001fc565b620000576200004b620000c660201b60201c565b620000ce60201b60201c565b8073ffffffffffffffffffffffffffffffffffffffff1660808173ffffffffffffffffffffffffffffffffffffffff16815250503073ffffffffffffffffffffffffffffffffffffffff1660a08173ffffffffffffffffffffffffffffffffffffffff1681525050506200022e565b600033905090565b60008060009054906101000a900473ffffffffffffffffffffffffffffffffffffffff169050816000806101000a81548173ffffffffffffffffffffffffffffffffffffffff021916908373ffffffffffffffffffffffffffffffffffffffff1602179055508173ffffffffffffffffffffffffffffffffffffffff168173ffffffffffffffffffffffffffffffffffffffff167f8be0079c531659141344cd1fd0a4f28419497f9722a3daafe3b4186f6b6457e060405160405180910390a35050565b600080fd5b600073ffffffffffffffffffffffffffffffffffffffff82169050919050565b6000620001c48262000197565b9050919050565b620001d681620001b7565b8114620001e257600080fd5b50565b600081519050620001f681620001cb565b92915050565b60006020828403121562000215576200021462000192565b5b60006200022584828501620001e5565b91505092915050565b60805160a0516112ec6200027760003960006103660152600081816103290152818161059701528181610716015281816108c501528181610af40152610c7201526112ec6000f3fe608060405234801561001057600080fd5b50600436106100ea5760003560e01c80638f840ddd1161008c578063a205664911610066578063a205664914610227578063d4dfadbf14610245578063e2c6743914610261578063f2fde38b1461027f576100ea565b80638f840ddd146101cd5780639816f473146101eb578063988cf80114610209576100ea565b806370a08231116100c857806370a0823114610159578063715018a6146101895780637f8661a1146101935780638da5cb5b146101af576100ea565b8063155a7205146100ef578063354030231461011f578063630fd0ac1461013b575b600080fd5b61010960048036038101906101049190610d88565b61029b565b6040516101169190610dce565b60405180910390f35b61013960048036038101906101349190610e15565b6102e4565b005b6101436104a8565b6040516101509190610dce565b60405180910390f35b610173600480360381019061016e9190610d88565b6104b2565b6040516101809190610dce565b60405180910390f35b61019161050d565b005b6101ad60048036038101906101a89190610e15565b610595565b005b6101b76106da565b6040516101c49190610e51565b60405180910390f35b6101d5610703565b6040516101e29190610dce565b60405180910390f35b6101f3610712565b6040516102009190610e51565b60405180910390f35b61021161073a565b60405161021e9190610e51565b60405180910390f35b61022f610760565b60405161023c9190610dce565b60405180910390f35b61025f600480360381019061025a9190610d88565b61076f565b005b6102696108c1565b6040516102769190610dce565b60405180910390f35b61029960048036038101906102949190610d88565b610962565b005b6000600260008373ffffffffffffffffffffffffffffffffffffffff1673ffffffffffffffffffffffffffffffffffffffff168152602001908152602001600020549050919050565b60008111610327576040517f08c379a000000000000000000000000000000000000000000000000000000000815260040161031e90610ec9565b60405180910390fd5b7f000000000000000000000000000000000000000000000000000000000000000073ffffffffffffffffffffffffffffffffffffffff166323b872dd337f0000000000000000000000000000000000000000000000000000000000000000846040518463ffffffff1660e01b81526004016103a493929190610ee9565b6020604051808303816000875af11580156103c3573d6000803e3d6000fd5b505050506040513d601f19601f820116820180604052508101906103e79190610f58565b5080600260003373ffffffffffffffffffffffffffffffffffffffff1673ffffffffffffffffffffffffffffffffffffffff16815260200190815260200160002060008282546104379190610fb4565b9250508190555080600360008282546104509190610fb4565b925050819055503373ffffffffffffffffffffffffffffffffffffffff167f6473c9f7da8f23a3d810f05b3e8fb3945f0ad17deadcc09e302cdf5d58e48fe78260405161049d9190610dce565b60405180910390a250565b6000600354905090565b60006104bc610a5a565b600260008473ffffffffffffffffffffffffffffffffffffffff1673ffffffffffffffffffffffffffffffffffffffff168152602001908152602001600020546105069190611039565b9050919050565b610515610ba1565b73ffffffffffffffffffffffffffffffffffffffff166105336106da565b73ffffffffffffffffffffffffffffffffffffffff1614610589576040517f08c379a0000000000000000000000000000000000000000000000000000000008152600401610580906110b6565b60405180910390fd5b6105936000610ba9565b565b7f000000000000000000000000000000000000000000000000000000000000000073ffffffffffffffffffffffffffffffffffffffff166370a08231336040518263ffffffff1660e01b81526004016105ee9190610e51565b602060405180830381865afa15801561060b573d6000803e3d6000fd5b505050506040513d601f19601f8201168201806040525081019061062f91906110eb565b8111610670576040517f08c379a000000000000000000000000000000000000000000000000000000000815260040161066790611164565b60405180910390fd5b80600360008282546106829190611184565b925050819055503373ffffffffffffffffffffffffffffffffffffffff167f920bb94eb3842a728db98228c375ff6b00c5bc5a54fac6736155517a0a20a61a826040516106cf9190610dce565b60405180910390a250565b60008060009054906101000a900473ffffffffffffffffffffffffffffffffffffffff16905090565b600061070d610a5a565b905090565b60007f0000000000000000000000000000000000000000000000000000000000000000905090565b600460009054906101000a900473ffffffffffffffffffffffffffffffffffffffff1681565b600061076a610c6d565b905090565b610777610ba1565b73ffffffffffffffffffffffffffffffffffffffff166107956106da565b73ffffffffffffffffffffffffffffffffffffffff16146107eb576040517f08c379a00000000000000000000000000000000000000000000000000000000081526004016107e2906110b6565b60405180910390fd5b600073ffffffffffffffffffffffffffffffffffffffff16600460009054906101000a900473ffffffffffffffffffffffffffffffffffffffff1673ffffffffffffffffffffffffffffffffffffffff16141561087d576040517f08c379a000000000000000000000000000000000000000000000000000000000815260040161087490611204565b60405180910390fd5b80600460006101000a81548173ffffffffffffffffffffffffffffffffffffffff021916908373ffffffffffffffffffffffffffffffffffffffff16021790555050565b60007f000000000000000000000000000000000000000000000000000000000000000073ffffffffffffffffffffffffffffffffffffffff166370a08231306040518263ffffffff1660e01b815260040161091c9190610e51565b602060405180830381865afa158015610939573d6000803e3d6000fd5b505050506040513d601f19601f8201168201806040525081019061095d91906110eb565b905090565b61096a610ba1565b73ffffffffffffffffffffffffffffffffffffffff166109886106da565b73ffffffffffffffffffffffffffffffffffffffff16146109de576040517f08c379a00000000000000000000000000000000000000000000000000000000081526004016109d5906110b6565b60405180910390fd5b600073ffffffffffffffffffffffffffffffffffffffff168173ffffffffffffffffffffffffffffffffffffffff161415610a4e576040517f08c379a0000000000000000000000000000000000000000000000000000000008152600401610a4590611296565b60405180910390fd5b610a5781610ba9565b50565b600080600460009054906101000a900473ffffffffffffffffffffffffffffffffffffffff1673ffffffffffffffffffffffffffffffffffffffff166327f5c8ca6040518163ffffffff1660e01b8152600401602060405180830381865afa158015610aca573d6000803e3d6000fd5b505050506040513d601f19601f82011682018060405250810190610aee91906110eb565b905060007f000000000000000000000000000000000000000000000000000000000000000073ffffffffffffffffffffffffffffffffffffffff166370a08231306040518263ffffffff1660e01b8152600401610b4b9190610e51565b602060405180830381865afa158015610b68573d6000803e3d6000fd5b505050506040513d601f19601f82011682018060405250810190610b8c91906110eb565b90508181610b9a9190611184565b9250505090565b600033905090565b60008060009054906101000a900473ffffffffffffffffffffffffffffffffffffffff169050816000806101000a81548173ffffffffffffffffffffffffffffffffffffffff021916908373ffffffffffffffffffffffffffffffffffffffff1602179055508173ffffffffffffffffffffffffffffffffffffffff168173ffffffffffffffffffffffffffffffffffffffff167f8be0079c531659141344cd1fd0a4f28419497f9722a3daafe3b4186f6b6457e060405160405180910390a35050565b6000807f000000000000000000000000000000000000000000000000000000000000000073ffffffffffffffffffffffffffffffffffffffff166370a08231306040518263ffffffff1660e01b8152600401610cc99190610e51565b602060405180830381865afa158015610ce6573d6000803e3d6000fd5b505050506040513d601f19601f82011682018060405250810190610d0a91906110eb565b905080610d15610a5a565b610d1f9190611039565b91505090565b600080fd5b600073ffffffffffffffffffffffffffffffffffffffff82169050919050565b6000610d5582610d2a565b9050919050565b610d6581610d4a565b8114610d7057600080fd5b50565b600081359050610d8281610d5c565b92915050565b600060208284031215610d9e57610d9d610d25565b5b6000610dac84828501610d73565b91505092915050565b6000819050919050565b610dc881610db5565b82525050565b6000602082019050610de36000830184610dbf565b92915050565b610df281610db5565b8114610dfd57600080fd5b50565b600081359050610e0f81610de9565b92915050565b600060208284031215610e2b57610e2a610d25565b5b6000610e3984828501610e00565b91505092915050565b610e4b81610d4a565b82525050565b6000602082019050610e666000830184610e42565b92915050565b600082825260208201905092915050565b7f56616c7565206d7573742062652067726561746572207468616e203000000000600082015250565b6000610eb3601c83610e6c565b9150610ebe82610e7d565b602082019050919050565b60006020820190508181036000830152610ee281610ea6565b9050919050565b6000606082019050610efe6000830186610e42565b610f0b6020830185610e42565b610f186040830184610dbf565b949350505050565b60008115159050919050565b610f3581610f20565b8114610f4057600080fd5b50565b600081519050610f5281610f2c565b92915050565b600060208284031215610f6e57610f6d610d25565b5b6000610f7c84828501610f43565b91505092915050565b7f4e487b7100000000000000000000000000000000000000000000000000000000600052601160045260246000fd5b6000610fbf82610db5565b9150610fca83610db5565b9250827fffffffffffffffffffffffffffffffffffffffffffffffffffffffffffffffff03821115610fff57610ffe610f85565b5b828201905092915050565b7f4e487b7100000000000000000000000000000000000000000000000000000000600052601260045260246000fd5b600061104482610db5565b915061104f83610db5565b92508261105f5761105e61100a565b5b828204905092915050565b7f4f776e61626c653a2063616c6c6572206973206e6f7420746865206f776e6572600082015250565b60006110a0602083610e6c565b91506110ab8261106a565b602082019050919050565b600060208201905081810360008301526110cf81611093565b9050919050565b6000815190506110e581610de9565b92915050565b60006020828403121561110157611100610d25565b5b600061110f848285016110d6565b91505092915050565b7f596f75206d757374206861766520612062616c616e636520746f206578697400600082015250565b600061114e601f83610e6c565b915061115982611118565b602082019050919050565b6000602082019050818103600083015261117d81611141565b9050919050565b600061118f82610db5565b915061119a83610db5565b9250828210156111ad576111ac610f85565b5b828203905092915050565b7f4d61726b657420616c7265616479207365740000000000000000000000000000600082015250565b60006111ee601283610e6c565b91506111f9826111b8565b602082019050919050565b6000602082019050818103600083015261121d816111e1565b9050919050565b7f4f776e61626c653a206e6577206f776e657220697320746865207a65726f206160008201527f6464726573730000000000000000000000000000000000000000000000000000602082015250565b6000611280602683610e6c565b915061128b82611224565b604082019050919050565b600060208201905081810360008301526112af81611273565b905091905056fea264697066735822122037dcc9172130355aab96315ccde188439a72251a6122f69ff5589b7eb733e4c064736f6c634300080a0033",
  "immutableReferences": {
    "6892": [
      {
        "length": 32,
        "start": 809
      },
      {
        "length": 32,
        "start": 1431
      },
      {
        "length": 32,
        "start": 1814
      },
      {
        "length": 32,
        "start": 2245
      },
      {
        "length": 32,
        "start": 2804
      },
      {
        "length": 32,
        "start": 3186
      }
    ],
    "6894": [
      {
        "length": 32,
        "start": 870
      }
    ]
  },
  "source": "// SPDX-License-Identifier: MIT\npragma solidity =0.8.10;\n\nimport \"@openzeppelin/contracts/access/Ownable.sol\";\nimport \"@openzeppelin/contracts/token/ERC20/IERC20.sol\";\nimport \"./IBurnable.sol\";\nimport \"./IMintable.sol\";\nimport \"./IMarket.sol\";\n\nstruct Reward {\n    uint256 balance;\n    uint256 start;\n}\n\ncontract Pool is Ownable {\n    // Rewards\n    // mapping(address => Reward) private _rewards;\n    // uint256 private constant REWARDS_PER_BLOCK;\n\n    // Bets\n    uint256 private _inPlay;\n\n    // LP\n    // Deposits of LPs\n    mapping(address => uint256) private _lps;\n    uint256 private _supplied; // total added to the contract from LPs\n\n    // address private immutable _lpToken;\n    // address private immutable _rewardsToken;\n    address private immutable _underlying;\n    address private immutable _self;\n\n    // uint256 private constant PRECISSION = 1_000;\n\n    address public _market;\n\n    function getMarket(address market) external onlyOwner() {\n        require(_market != address(0), \"Market already set\");\n        _market = market;\n    }\n\n    function getUnderlying() external view returns (address) {\n        return _underlying;\n    }\n\n    function getUnderlyingBalance() public view returns (uint256) {\n        return IERC20(_underlying).balanceOf(address(this));\n    }\n\n    function getPoolPerformance() external returns (uint256) {\n        return _getPoolPerformance();\n    }\n\n    function _getPoolPerformance() private returns (uint256) {\n        uint256 underlyingBalance = IERC20(_underlying).balanceOf(address(this));\n        return _totalReserves() / underlyingBalance;\n    }\n\n    // function getLPTokenAddress() external view returns (address) {\n    //     return _lpToken;\n    // }\n\n    function totalSupplied() external view returns (uint256) {\n        return _supplied;\n    }\n\n    function totalReserves() external view returns (uint256) {\n        return _totalReserves();\n    }\n\n    function _totalReserves() private view returns (uint256) {\n        uint256 inPlay = IMarket(_market).getTotalInplay();\n        uint256 underlyingBalance = IERC20(_underlying).balanceOf(address(this));\n        return underlyingBalance - inPlay;\n    }\n\n    function supplied(address who) public view returns (uint256) {\n        return _lps[who];\n    }\n\n    function balanceOf(address who) external view returns (uint256) {\n        return _lps[who] / _totalReserves();\n    }\n\n    constructor(address underlying) {\n        // require(lpToken != address(0) && underlying != address(0), \"Invalid address\");\n        // _lpToken = lpToken;\n        _underlying = underlying;\n        _self = address(this);\n    }\n\n    // Add underlying tokens to the pool\n    function supply(uint256 amount) external {\n        require(amount > 0, \"Value must be greater than 0\");\n\n        IERC20(_underlying).transferFrom(msg.sender, _self, amount);\n        // IMintable(_lpToken).mintTo(msg.sender, amount);\n\n        _lps[msg.sender] += amount;\n        _supplied += amount;\n\n        emit Supplied(msg.sender, amount);\n    }\n\n    // Exit your position\n    function exit(uint256 amount) external {\n        require(amount > IERC20(_underlying).balanceOf(msg.sender), \"You must have a balance to exit\");\n\n        // IBurnable(_lpToken).burnFrom(msg.sender, amount);\n        _supplied -= amount;\n\n        emit Exited(msg.sender, amount);\n    }\n\n    event Exited(address indexed who, uint256 value);\n    event Supplied(address indexed owner, uint256 value);\n}",
  "sourcePath": "/Users/lucascullen/GitHub/HorseLink/horse.link/contracts/Pool.sol",
  "compiler": {
    "name": "solc",
    "version": "0.8.10+commit.fc410830.Emscripten.clang"
  },
  "schemaVersion": "3.4.4",
  "updatedAt": "2022-04-09T02:36:57.220Z",
  "devdoc": {
    "kind": "dev",
    "methods": {
      "owner()": {
        "details": "Returns the address of the current owner."
      },
      "renounceOwnership()": {
        "details": "Leaves the contract without owner. It will not be possible to call `onlyOwner` functions anymore. Can only be called by the current owner. NOTE: Renouncing ownership will leave the contract without an owner, thereby removing any functionality that is only available to the owner."
      },
      "transferOwnership(address)": {
        "details": "Transfers ownership of the contract to a new account (`newOwner`). Can only be called by the current owner."
      }
    },
    "version": 1
  },
  "userdoc": {
    "kind": "user",
    "methods": {},
    "version": 1
  }
}